:040000000DEF00F010
:0400080078EF10F08D
:06001800FF0021EF0FF0D4
:10160000004D6561737572656D656E743A20307852
:1016100025580A0D0A0D0043757272656E742047D5
:1016200061696E3A2025730A0D004E657720476187
:10163000696E3A2025730A0D0A0D00312E333300EE
:10164000312E313400312E303700322E3637003112
:09165000360031003200380000C0
:10165A007DAF7E937DBF04D07D5106E17C0504E217
:10166A00336A010E326E04D07CC532F57DC533F57E
:10167A007AC53CF57BC53DF57EA904D0FE0E3C2615
:10168A00FF0E3D2221C534F522C535F523C536F5B1
:10169A0024C537F525C538F526C539F527C53AF5E0
:1016AA0028C53BF5416A1F0E406EA56B5ED0400609
:1016BA00D8A041060F0E34143E6E3F6A3FBE07D0D3
:1016CA003F5003E10A0E3E5C02E3570E01D0300E92
:1016DA003E26000E3F22BF0E2A6E2B6829502C6E22
:1016EA002D6A8ED805E11A0E2C5C02E2010E01D099
:1016FA00000E2E6E2F6A2E502F1020E09F0E2A6E9B
:10170A002B68200E3E102C6E000E3F102D6E78D8DE
:10171A0005E11A0E2C5C02E2010E01D0000E306EB9
:10172A00316A305031100AE03EC508F53FC509F567
:10173A00FFEC0EF008C53EF509C53FF55AD8610021
:10174A00F8F4DFF43206D8A033063C06D8A03D06EA
:10175A00040E2A6ED8903B323A3239323832373256
:10176A003632353234322A2EF5D741BE1DD0415099
:10177A0003E1020E405C18E334503510361037107E
:10178A00381039103A103B1092E133BE04D033506E
:10179A008EE132048CE23DBE07D03D5002E13C04AA
:1017AA0003E305017EB383D705017EA90DD0400668
:1017BA00D8A041061ED86100A4F4DFF44006D8A0E0
:1017CA00410617D8300EDF6E1FC514F520C515F572
:1017DA00860E4024166E050E4120176E3CC518F57C
:1017EA003DC519F5ACEC0DF014C51FF515C520F56E
:1017FA001200860E4024D96E050E4120DA6E1200C0
:10180A002A502C262B502D222D50120084D88AD8EB
:10181A00250A77E180D8DF2A7A6B7B6B7E6B7F6B38
:10182A007C697D6978D87ED8730A17E174D882D822
:10183A00610078F354F5610074F355F542C50DF56E
:10184A0043C50EF554C50FF555C510F5BCEC0CF0A3
:10185A000DC542F50EC543F512005DD863D8780A66
:10186A0004E059D85FD8580A37E155D8DFC4F6F4EE
:10187A00B2EC0EF06100D4F356F54DD85BD8610096
:10188A0078F34AF5610074F34BF54AC54CF54BC53C
:10189A004DF54E6A4F6A506A516A526A536A42C596
:1018AA001FF543C520F54CC521F54DC522F54EC59A
:1018BA0023F54FC524F550C525F551C526F552C562
:1018CA0027F553C528F556C529F52DEC0BF01FC58C
:1018DA0042F520C543F512001ED824D8250A0CE18A
:1018EA001AD8DF2A056A250E046E3CD860EC0EF081
:1018FA00436A010E426E010C0ED8DF2A426A436A1D
:10190A00120009D80FD8046E056A2CD860EC0EF0C4
:10191A0002D8DF2AEDD7610010F5D9F4610014F579
:10192A00DAF41200DFC4F6F4160EF76EF86A08004D
:10193A00F5501200DF2A610018F5D9F461001CF590
:10194A00DAF461007CF348F5020EDE2661007CF3CE
:10195A0049F5000EDD22610020F5D9F4610024F575
:10196A00DAF4000C42C506F543C507F5120021EE6C
:10197A00AFF111EE12F1060EDBC4E3F4E806FCE265
:10198A000FC51DF510C51EF51D501E1004E1120EDF
:10199A001D6E050E1E6E1DC502F51EC503F542EC31
:1019AA000FF002C521F503C522F57CC51FF57DC5DB
:1019BA0020F520BE0DD021501F5C2050800A116EE8
:1019CA002250800A115804E21FC521F520C522F5CC
:1019DA0021C51FF522C520F57AC51BF57BC51CF567
:1019EA0005017EB108D005D046D860EC0EF0214A38
:1019FA00222A38D8F9E3196A1A6A1BD0610074F4EA
:101A0A00F6F4610078F4F7F4000EF86E150EF76438
:101A1A0003D00800F55001D036D8046E056A0DC50A
:101A2A0006F50EC507F560EC0EF01D4A1E2A194A86
:101A3A001A2A1F50195C1A50800A116E2050800A07
:101A4A001158DCE305017EA108D005D014D860EC5A
:101A5A000EF0214A222A06D8F9E321C50DF522C53E
:101A6A000EF512001B50215C2250800A116E1C5088
:101A7A00800A11581200056A200E046E0DC506F57B
:101A8A000EC507F5200CF6C4E9F4F7C4EAF4EF50E2
:101A9A001200BFEC0FF0120E0301EC6F070E0001EB
:101AAA00A413A6513F0B8009A66F0501C36BC26B35
:101ABA00AE0E026E210E036EC0EC10F0B80E026E6E
:101ACA001D0E036EB6EC10F0D68E0501C3511EE052
:101ADA00C36B010EC0A2000EFF0A5D6E5D46C050C8
:101AEA005D18FD0B5D18C06E170EC46F0EEC10F07A
:101AFA0025D82FEC10F0010EC46F84EC10F002C54B
:101B0A00C5F503C5C6F52FEC10F011D0C2510FE090
:101B1A00C26B2A0EC46F0EEC10F010D82FEC10F026
:101B2A00000E036A026ACDEC10F0D1EC10F0C9EC99
:101B3A0010F00009FCE0030000F0C7D75D6E5DC538
:101B4A00C5F50501C551D8A4160EC66F12007EA1AF
:101B5A0003D035D862EC0FF019BE05D018C51DF5B3
:101B6A0019C51EF502D01D6A1E6A1B6A1C6A0BD0B3
:101B7A00056A200E046E14C506F515C507F560EC56
:101B8A000EF01B4A1C2A1D501B5C1C50800A1A6E40
:101B9A001E50800A1A58ECE305017EB103D00FD813
:101BAA0062EC0FF016C502F517C503F542EC0FF00B
:101BBA001D500224146E1E500320156E120016C505
:101BCA000DF517C50EF514C50FF515C510F512005C
:101BDA00AC90000E026A036ADCEC10F0AC92000EC4
:101BEA00026A036ADBEC10F0AC94000E026A036A24
:101BFA00DDEC10F0AC96000E026A036ADAEC10F023
:101C0A000201A16BA26BA36BA46BA56BA66BA76B5E
:101C1A00A86BA96BAA6BA00EAB6F800EAC6FAD6BF5
:101C2A00190EAE6FAF6BB06BB16BB26BB36B000ECC
:101C3A00026A036AACEC10F0000E026A036AA7ECAF
:101C4A0010F0000E026A036AB1EC10F05E6A12002C
:101C5A00BE6ABF6AC06A3F0EC66E700EC76EFD0EC0
:101C6A00C86E370E0401006F500E086FFC0E106F1D
:101C7A00016B096B010E116F026B0A6B126B370E47
:101C8A00036FF00E0B6F13693F0E046FF00E0C6FAB
:101C9A001469100E0201616F0D0E726F100E106F33
:101CAA000401056B066B076B0D6B0E6B0F6B156BE7
:101CBA00166B176B12000650071003E00650071048
:101CCA0003E10450C5EF10F01ED8DE50DE1011E01B
:101CDA001AD810EE02F00650E1260750E222DE5032
:101CEA00E65CE650800A0C6EDE50800A0C58D8B0CA
:101CFA00120020EE02F00650D9260750DA22DE2A18
:101D0A00000EDD22000C20EE04F00650D926075002
:101D1A00DA22120059C55CF5786B796B13D057C576
:101D2A0042F558C543F55C0E446E050E456E5AC51C
:101D3A0046F55BC547F50BEC0CF0425005017827D8
:101D4A0043507923610070F5F6F407D8F550E7E1BE
:101D5A0078C557F579C558F51200160EF76EF86A68
:101D6A00080012000301D96BDA6BDB6BDC6BDF6BEB
:101D7A00E06BE56BE76BEC6B060EEE6FEF6BF06BEF
:101D8A00F16BF26BF46B100EF56FF66BF76BF86B89
:101D9A00020EF96FFA6B940EF36FB494C60E026ECC
:101DAA00210E036EC0EC10F0A984B5901200010E4A
:101DBA00C26FD4EC10F00001A3A707D0A487A551E5
:101DCA008F0B1009A56FA3971200A439070B070AF6
:101DDA0006E18F0EA417A497A517A3878F0CA43921
:101DEA00070B016E012A013AA45101188F0B011841
:101DFA00A46F12009F0E0A6E0B6808C50CF509C580
:101E0A000DF50A500C260B500D220D5005E11A0E45
:101E1A000C5C02E2010E01D0000E0E6E0F6A0E502B
:101E2A000F1005E05F0E0814086E096A120008C553
:101E3A0008F509C509F51200300EF66E210EF76E87
:101E4A00000EF86E01EEA6F110EE10F00900F5C4CE
:101E5A00EEF4E550E150FAE101EE60F1460EEE6A69
:101E6A00E806FDE15E6A0401080E5D6F000E5E6F12
:101E7A00000E5F6F00014EEF0DF002C504F503C5B9
:101E8A0005F502D0024A032A610008F4F6F461005B
:101E9A000CF4F7F4000EF86E150EF76403D0080080
:101EAA00F55002D048EC0DF00009ECE10450025C58
:101EBA00026E05500358036E1200126A136A0BD0A1
:101ECA0011C504F5056A0FC506F510C507F560ECDE
:101EDA000EF0124A132A12500D24D96E13500E20F6
:101EEA00DA6EDF50116E1150EBE112009F0E046E94
:101EFA000568200E0210066E000E0310076E0450CD
:101F0A00062605500722075005E11A0E065C02E272
:101F1A00010E01D0000E026E036A12009F0E046EBB
:101F2A00056802C506F503C507F5045006260550DF
:101F3A000722075005E11A0E065C02E2010E01D0E3
:101F4A00000E026E036A1200BF0E046E056802C517
:101F5A0006F503C507F50450062605500722075063
:101F6A0005E11A0E065C02E2010E01D0000E026EB5
:101F7A00036A12006BEC10F02DEC0EF0B7EC0EF0C9
:101F8A00FBEC0FF03EEC10F08FEC10F01FEC10F0B1
:101F9A00D3EC0FF0EDEC0DF0E7EF0FF0040E206F2D
:101FAA00110E1F6F0F0E216F1D691C6BC20E026E80
:101FBA00210E036EB6EC10F0B696AB86800E0301C6
:101FCA001E6F800CD69AB490D680000E026A036AFD
:101FDA00E0EC10F0B990D682000E026A036ADFECD8
:101FEA0010F0BD90D684026A036A000C0001D56B1A
:101FFA00D76B060ED86FD96BDA6BDB6B020EDC6F10
:10200A00080E00D0DD6FDE6BDF6BD46B840ED66FEB
:10201A00840C056A0001A3B705D0A439070B046E26
:10202A000428056EA60E0524D96EDA6A050EDA2290
:10203A00DF501200780E0301196F186B980E1B6F90
:10204A00C40E026E210E036EBBEC10F0B69E800E1B
:10205A001A6F800CC50E0501C76F050EC86F576A47
:10206A00586AC4C559F5C70E5A6E050E5B6E8FEFD6
:10207A000EF0010ED56F020ED76F220ED86F060E24
:10208A00D96FDA6BDB6B080EDC6F110E07EF10F0FD
:10209A00B6960501BC51BD11D8B412000500FA6EFE
:1020AA00BC51FD6EBD51FE6EFF6AFA501200B49427
:1020BA000501C051C111D8B412000500FA6EC05111
:1020CA00FD6EC151FE6EFF6AFA501200620E0001E7
:1020DA00AD6F700EAE6FAF6BB36B020EB16FB26BBA
:1020EA00B06BAC6B1200A9B4B4A403D05CEC10F0D2
:1020FA001100ABB6B6A611004DEC10F011000301A9
:10210A00EB51056E046AEA510424026E000E0520A2
:10211A00036E1200A46B020EA56FA66FA76BA96BC4
:10212A00A80EA36FA80C5245403B544A43564F2869
:10213A006E756C6C2900026EB7A2FED7610008F4B6
:10214A00A3F2120002C5B8F503C5B9F5120002C51B
:10215A00BAF503C5BBF5120002C5B6F503C5B7F556
:10216A00120002C5BCF503C5BDF5120002C5BEF5D5
:10217A0003C5BFF5120002C5C0F503C5C1F51200BB
:10218A00036E0350A0EF10F00201B2BF010C000C65
:10219A00610008F418F3120003011A8F12000301F8
:1021AA001A9F1200010EC36F010C120012001200D6
:0E21BA00120012001200120012001200120099
:020000040020DA
:10000000FF0FFF0FFF0FFF0FFF0FFF0FFF0FFF0F80
:10001000FF0FFF0FFF0FFF0FFF0FFF0FFF0FFF0F70
:020000040030CA
:0A000000ECFFF7FF9FFFFFFFFFFF7B
:00000001FF
