:040000000DEF00F010
:04000800F2EF18F00B
:06001800FF007FEF17F06E
:10160000004D656173757265643A2025312E33662D
:10161000560A0D0A0D0043757272656E742047619B
:10162000696E3A2025730A0D004E6577204761697F
:101630006E3A2025730A0D0A0D00312E3333003126
:101640002E313400312E303700322E363700696E9D
:1016500066006E616E006C6C7300313600310032D2
:10166000003800000501816B3DC582F53EC583F55C
:101670003FC584F540C585F585AF14D0010E816F57
:1016800082C504F583C505F584C506F585C507F54E
:10169000A5EC19F004C582F505C583F506C584F5EA
:1016A00007C585F5866B876B54C571F555C572F511
:1016B00081510AE0815103E1676B2B0E02D0676B09
:1016C0002D0E666F66C581F59CDA91EC15F0040469
:1016D00005100EE10501815101E0DBDAE3DA4E0E7F
:1016E000066EBFEC18F013D0E9DA186E060EF6D1CC
:1016F00088DA91EC15F0045005100EE105018151D6
:1017000001E0C7DACFDA520E066EBFEC18F0FD0E1C
:101710007127FF0E7223E8D70501B2DA82C504F5FE
:1017200083C505F584C506F585C507F5D2DA51EC04
:1017300017F005E373D092DA05016F4B702B06DAD0
:10174000200E1C6E410E1D6ED4EC10F063DA050104
:101750007351825D046E74518359056E75518459BD
:10176000066E76518559076EABEC17F007BEE3D7CE
:1017700007500610051003E1020E045CDCE373C59C
:101780002FF574C530F575C531F576C532F582C5CE
:1017900033F583C534F584C535F585C536F537ECA5
:1017A00016F0C9E3050110DAABEC17F007BE07D05D
:1017B0000750061005101FE1020E045C1CE288C5EC
:1017C00082F589C583F58AC584F58BC585F526D054
:1017D0008CD9E8EC11F0E7D96F07D8A07007F4D9DD
:1017E000ABEC17F007BEEBD707500610051003E16E
:1017F000020E045CE4E382C52FF583C530F584C591
:1018000031F585C532F588C533F589C534F58AC506
:1018100035F58BC536F537EC16F0DAE341C569F5D9
:1018200069C56AF557BE05D056C562F557C563F55B
:1018300004D00501636B060E626F62C56DF563C56A
:101840006EF505016D4B6E2B660E6A1909E170BFCE
:1018500017DA670E691904E06F516D2770516E2316
:10186000776B786B82C579F583C57AF584C57BF58E
:1018700085C57CF588C573F589C574F58AC575F588
:101880008BC576F517D06DD9E8EC11F0CCD9CAEC40
:1018900012F078D9E9EC15F017DA36D9D4EC10F05B
:1018A000CBD987EC18F049D920D9E8EC11F07BD9D5
:1018B000774B782BDCD9E7E349D9A00E1C6E400E9C
:1018C0001D6ED4EC10F016C57DF517C57EF518C554
:1018D0007FF519C580F58CD97DC533F57EC534F506
:1018E0007FC535F580C536F537EC16F002E2050107
:1018F00016D079C504F57AC505F57BC506F57CC516
:1019000007F57DC508F57EC509F57FC50AF580C5D3
:101910000BF551EC17F007E305016BB104D07D6BBB
:101920007E6B7F6B806B82C504F583C505F584C52E
:1019300006F585C507F57DC508F57EC509F57FC5A2
:101940000AF580C50BF5A7EC0FF004C579F505C5C0
:101950007AF506C57BF507C57CF54AD942D975D914
:10196000D4EC10F016C533F517C534F518C535F5A8
:1019700019C536F537EC16F00EE305016F4B702BE9
:1019800064D92FD9D4EC10F045D9660E05016A1937
:1019900002E16D4B6E2B62D96FC560F570C561F5C4
:1019A0000501686B646B656B776B786B4FD0D9D82A
:1019B000E8EC11F038D9CAEC12F0E4D8E9EC15F0F3
:1019C00005BE05D005500FE10A0E045C0CE27DC592
:1019D00004F57EC505F57FC506F580C507F5E9EC7C
:1019E00015F072D905D0000E05016C6F090E6B6FF2
:1019F0000501685112E161AF10D0DFD82E0E59D920
:101A0000D8A07207010E686F08D0D7D8300E51D910
:101A1000D8A072076407D8A0650764516511F5E185
:101A2000CCD86B51300F45D9D8A072076DD8D4EC03
:101A300010F002D987EC18F080D857D8E8EC11F0F4
:101A4000B2D86007D8A06107774B782B10D907E28E
:101A500087BFADD7875103E14B0E865DA8E3786B56
:101A60004F0E776F000E7725D96E060E7821DA6E4D
:101A7000DF6A000E426E060E436E8651425E87514B
:101A8000435A77514224046E78514320056E000E6C
:101A9000066E060E076E86C508F587C509F548EC83
:101AA00018F08651775D866F87517859876F81511D
:101AB000010ED8B4000E776F786B815106E086076F
:101AC000D8A087077AD881C5DFF47751715F785144
:101AD000725BF4D88625186E060E8721196E71C5C3
:101AE0001AF572C51BF5EFEF16F088C504F589C528
:101AF00005F58AC506F58BC507F5086A096A200E43
:101B00000A6E410E0B6E410C79C52FF57AC530F582
:101B10007BC531F57CC532F57DC51AF57EC51BF553
:101B20007FC51CF580C51DF588C516F589C517F557
:101B30008AC518F58BC519F512002FC579F530C582
:101B40007AF531C57BF532C57CF5120088C516F5EE
:101B500089C517F58AC518F58BC519F51A6A1B6A68
:101B6000120079C504F57AC505F57BC506F57CC577
:101B700007F588C508F589C509F58AC50AF58BC535
:101B80000BF512001DC57DF51EC57EF51FC57FF541
:101B900020C580F57DC504F57EC505F57FC506F534
:101BA00080C507F5120004C588F505C589F506C589
:101BB0008AF507C58BF505011200000E8625D96E42
:101BC000060E8721DA6E12008851825D046E8951FB
:101BD0008359056E8A518459066E8B518559076E5B
:101BE00012001A6A1B6A200E1C6E410E1D6E410CFB
:101BF00079C52FF57AC530F57BC531F57CC532F551
:101C0000120082C504F583C505F584C506F585C5B2
:101C100007F5120016C573F517C574F518C575F5E7
:101C200019C576F5120004C51DF505C51EF506C5D6
:101C30001FF507C520F5120016C533F517C534F595
:101C400018C535F519C536F5120073C516F574C5F6
:101C500017F575C518F576C519F5120073C588F521
:101C600074C589F575C58AF576C58BF512006D5179
:101C7000775D7851800A426E6E51800A4258120098
:101C8000886B896B800E8A6F3F0E8B6F6F6B706BEA
:101C9000120081C500F67107D8A07207876B010E8C
:101CA000866F010C000E8625046E060E8721056ED8
:101CB0001200DF6E864B872B710712003BC516F5AD
:101CC0003CC517F5000E120004C56BF505C56CF593
:101CD0001200086A096A0A6A0B6A12008EC5D9F4F2
:101CE0000CD900D9250A01E0F0D00CD9DF2A556AB9
:101CF000546A54C55CF5566857688EC5D9F4FDD84A
:101D0000F1D82A0A0FE1FED8DF2A01D9DEC454F542
:101D1000DDC455F555AE1BD05C80546C551ED8B053
:101D2000552A15D0EFD8DF500A6E26EC15F00AC5FB
:101D300054F50BC555F502D0E5D8DF2AE3D8DFC44A
:101D4000F6F4D6D8F5D803E10A0E455CF5E38EC566
:101D5000D9F4D3D8C7D82E0A27E1566A576AD2D801
:101D6000DF2A8EC5D9F4C9D8BDD82A0A08E1CAD855
:101D7000DF2ACDD8DEC456F5DDC457F515D0C2D85C
:101D8000DF500A6E26EC15F00AC556F50BC557F55F
:101D900002D0B8D8DF2AB6D8DFC4F6F4A9D8C8D89C
:101DA00003E10A0E455CF5E38EC5D9F4A6D89AD8AE
:101DB000730A0DE0A7D8DF50046E560E056E076A51
:101DC000030E066E7DEC16F0045005101AE18EC568
:101DD000D9F493D887D8730A03E0506A030E02D06F
:101DE000506A010E4F6E8ED84F50DF268CC50FF50E
:101DF0008DC510F58CD8DEC411F5DDC412F516EFD3
:101E000014F080D8DF50526E52C5F6F471D8F5C484
:101E100051F507D0522A0FD06C0E516E0CD0516A7A
:101E20000AD090D8FCE144504C0AF4E02A0AF4E0CD
:101E30000A0AF0E0F4D752C5F6F454D8660A1AE05C
:101E400041D090C5D9F491C5DAF4DFC444F5040E4D
:101E5000DE26DFC445F5000EDD2244C5D9F445C5B4
:101E6000DAF4DEC447F5DEC448F5DEC449F5DEC465
:101E70004AF507D067D805E144504C0AE2E0200A51
:101E8000E0E052283FD8DF6E13D08CC53BF58DC5FE
:101E90003CF547C53DF548C53EF549C53FF54AC542
:101EA00040F552C5F6F424D8F5C441F532EF0BF0F5
:101EB00052C5F6F417D8446E456A455003E14450C4
:101EC000660AE3E01FD8DF2A12008EC5D9F415D8C0
:101ED00009D8066E076A8CC508F58DC509F522EC90
:101EE00017F0F0D7160EF76EF86A0800F5501200DA
:101EF000160EF76EF86A080012008FC5DAF4DFC418
:101F0000F6F412008EC5D9F48FC5DAF4120090C52C
:101F1000D9F491C5DAF4DFC444F5020EDE26DFC43D
:101F200045F5000EDD2244C5D9F445C5DAF4000CB0
:101F3000F5C444F5D00E4424456E466AFF0E462291
:101F4000465012005150446E456A455012000750E9
:101F5000800B106E07500724126E06BE12801250BE
:101F600005E0122801E106D9068E03D0046A056A4D
:101F7000066A076A0B50800B116E101801E0108C76
:101F80000B500B24116E0ABE1180115008E011286D
:101F900004E1086A096A0A6A0B6A0A8E03D0086AB1
:101FA000096A0A6A0B6A1250115C22E210AC02D074
:101FB000800E101A12C513F511C512F513C511F5CF
:101FC00004C513F508C504F513C508F505C513F5D3
:101FD00009C505F513C509F506C513F50AC506F5C6
:101FE00013C50AF507C513F50BC507F513C50BF5A2
:101FF000136A125011C50CF50D6A0C5E000E0D5AD5
:102000000DBE15D00D5003E11A0E0C5C10E3C2D8C2
:10201000010ED8B4000E136EADD811C512F50AD05A
:1020200013A002D0BCD802D0D89013329AD8115045
:10203000125CF6E310BC15D0125001E1A0D008509C
:102040000426095005220A5006220B50072207A039
:1020500053D013A002D0A3D802D0D890133281D885
:102060004BD00850045C095005580A5006580750D8
:10207000800A0C6E0B50800A0C581FE20450085C5A
:102080000C6E055009580D6E06500A580E6E07501A
:102090000B580F6EFF0E0C24046EFF0E0D20056E04
:1020A000FF0E0E20066EFF0E0F20076E800E101A18
:1020B000136C13500AE168D808D00850045E095028
:1020C000055A0A50065A0B50075A64D813E11350A8
:1020D00011E155D0D890043605360636073613BEC2
:1020E000048013A002D0D88001D0D89013361250AB
:1020F00001E0120606AEEED7116A13AE0AD013C580
:102100000CF57F0E0C1603E0010E116E02D004B028
:10211000FBD711500BE038D807A008D0073407329E
:10212000063205320432122801E0122A122802E097
:10213000125004E11FD8125001E1106A12A002D01F
:10214000068E01D0069ED8901230076E10BE078E04
:1021500004C504F505C505F506C506F507C507F56B
:10216000120004B0138E07340732063205320432EF
:10217000122A1200046A056A066A076A1200046AD3
:10218000056A066A076A1200042A000E0522062262
:102190000722000C04500510061007101200D890FA
:1021A00013300109136E12001950800B226E195062
:1021B0001924246E18BE2480245005E0242801E14F
:1021C000FDD8188E01D0FAD81D50800B221A1D5050
:1021D0001D24236E1CBE2380235005E0232801E12B
:1021E000F2D81C8E01D0EFD8235002E0245005E134
:1021F000166A176A186A196A12001C501602B1D8BA
:10220000256E266A276A286A2E50296E2A6A2B6A4A
:102210002C6A1B501702A5D8B2D81A501802A1D8A0
:10222000AED8A5D81A5017029CD8B5D81B501602A4
:1022300098D8B1D89CD81A50160293D8ACD81C5054
:1022400017028FD8B4D81B5018028BD8B0D81C50A6
:10225000180287D81E6E2E501F6E206A216A20C574
:1022600021F51FC520F51EC51FF51E6A1E50292623
:102270001F502A2220502B2221502C222850292660
:1022800091D875D8235024C51EF51F6A1E26000E4E
:102290001F22820E1E242D6EFF0E1F202E6E0FD0C9
:1022A000D89029362A362B362C3628BE2980D8904D
:1022B00025362636273628362D06D8A02E062BAEF4
:1022C000EFD7236A28AE13D025501E6E26501F6EFE
:1022D0002750206E7F0E2814216E1E501F102010D4
:1022E000211003E0010E236E02D029B0FBD723504A
:1022F0000BE0292A57D82CA007D02C342C322B32B3
:102300002A3229322D4A2E2A2EBE0AD02E5002E120
:102310002D2806E3296A2A6A800E2B6E7F0E15D0BF
:102320002EBE04D02E5008E12D0406E2296A2A6A46
:102330002B6A2C6A226A0AD02DC524F57F0E2B1633
:102340002C6A24B02B8ED89024302C6E22502C1264
:1023500029C516F52AC517F52BC518F52CC519F58D
:102360001200F3C42DF5F4C42EF52D50120027C52C
:1023700028F526C527F525C526F5256A1200252648
:10238000000E2622272228222E502926000E2A223D
:102390002B222C22000C25262E502622000E27222E
:1023A0002822000C000E2A222B222C22000C292687
:1023B0002E502A22000E2B222C22000C166A176A9D
:1023C000186A196A12001A6A1B6A1C6A1D6A1200CE
:1023D0000750800B146E075007241B6E06BE1B802F
:1023E0001B5005E01B2801E1D0D8068E03D0046AFB
:1023F000056A066A076A0B50800B141A0B500B24EF
:102400001C6E0ABE1C801C5008E01C2804E1086AEF
:10241000096A0A6A0B6A0A8E03D0086A096A0A6A9C
:102420000B6A085009100A100B1010E1AED8800E8C
:1024300006127F0E07121450071204C504F505C5D5
:1024400005F506C506F507C507F512001B5005E1A1
:10245000046A056A066A076A12001C501BC50CF55F
:102460000D6A0C5E000E0D5A7F0E0C24156E000EC8
:102470000D20166E04C510F505C511F506C512F53B
:1024800007C513F582D8176A186A196A1A6A1C6A8E
:102490001BD01C5006E0D890103611361236133679
:1024A00067D80850105C095011580A5012580B5048
:1024B000135809E31A8C0850105E0950115A0A503B
:1024C000125A0B50135A1C2A190E1C64E2D71050D2
:1024D00011101210131006E0178004D049D8150609
:1024E000D8A0160606AEFAD71C6A1AAE13D017503B
:1024F0000C6E18500D6E19500E6E7F0E1A140F6E62
:102500000C500D100E100F1003E0010E1C6E02D0C7
:1025100004B0FBD71C500EE0042A000E0522062250
:10252000072207A007D007340732063205320432EB
:10253000154A162A16BE07D0165002E1152803E3E5
:10254000166A156822D816BE04D0165006E1150486
:1025500004E2156A166A19D8146A15C51BF51BA082
:1025600002D0068E01D0069ED8901B30076E63D72E
:10257000D89004360536063607361ABE0480D89041
:102580001736183619361A361200046A056A066AB2
:10259000076A1200B7C52DF5B8C52EF5B9C52FF5D8
:1025A000BAC530F51DC52DF51EC52EF51FC52FF575
:1025B00020C530F5810E216E22682DC523F52EC56C
:1025C00024F52FC525F530C526F5180E05D0D89071
:1025D0002632253224322332E82EF9D72350212403
:1025E0002B6E000E22202C6E2CBE0ED02C5003E140
:1025F000170E2B5C09E31DC51DF51EC51EF51FC575
:102600001FF520C520F512002CBE47D02BC521F5A3
:10261000226823687F0E246E000E256E216601D08D
:1026200007D025342532243223322232212EF6D708
:1026300022C527F523C528F524C529F525C52AF582
:1026400027502D14216E28502E14226E29502F143D
:10265000236E2A50301455D8CEE044D801D04BD840
:10266000E82EFDD7215008E027502D2628502E2295
:1026700029502F222A503022271C216E281C226E1E
:10268000291C236E2A1C246E21502D1622502E1632
:1026900023502F16245030161CD024D801D02BD80C
:1026A000E82EFDD7216605D02D6A2E6A2F6A306A82
:1026B00010D0D8902D34216E2E34226E2F34236EFC
:1026C00030341FD806E02D6A2E6A800E2F6EBF0EA2
:1026D000306E2DC51DF52EC51EF52FC51FF530C555
:1026E00020F512002DC521F52EC522F52FC523F5A5
:1026F00030C524F5200CD8902432233222322132E6
:102700001200246E2150221023102410120021ECFC
:1027100019F0120E0301EC6F070E0001A413A6516D
:102720003F0B8009A66F0501C26BC16BD40E046E0E
:10273000340E056E53EC1AF04A0E046E300E056E20
:1027400049EC1AF0D68E330E05019F6FA06F530E21
:10275000A16F3A0EA26F0501C1510EE0C16B290EA7
:10276000976F94EC19F059D8F2EC19F0000E60EC68
:102770001AF064EC1AF047D0C25145E0C26B00EC8D
:102780001AF004C508F505C509F50A6A0B6A000EBA
:10279000A0EC14F008C516F509C517F50AC518F51B
:1027A0000BC519F59FC51AF5A0C51BF5A1C51CF5EC
:1027B000A2C51DF5D4EC10F016C5A3F517C5A4F5F8
:1027C00018C5A5F519C5A6F5010EC0A2000EFF0A91
:1027D00005019E6F9E47C0509E19FD0B9E19C06E4D
:1027E000160E976F94EC19F018D8F2EC19F0010E50
:1027F000976FA3C598F5A4C599F5A5C59AF5A6C583
:102800009BF5F2EC19F05CEC1AF00009FCE0050114
:10281000C151A1E1030000F09ED705019E6F9EC546
:1028200098F59851D8A4160E996F120021EEB0F1C8
:1028300011EE14F1060EDBC4E3F4E806FCE211C568
:102840001FF512C520F51F50201004E1140E1F6E55
:10285000050E206E1FC504F520C505F569EC18F0BE
:1028600004C523F505C524F556C521F557C522F540
:1028700022BE0DD02350215C2250800A136E2450BA
:10288000800A135804E221C523F522C524F523C587
:1028900021F524C522F554C51DF555C51EF55CB0BE
:1028A00008D005D03FD822EC17F0234A242A31D88B
:1028B000F9E31B6A1C6A19D01FC5F6F420C5F7F4AA
:1028C000000EF86E150EF76403D00800F55001D025
:1028D00031D8066E076A0FC508F510C509F522EC58
:1028E00017F01F4A202A1B4A1C2A21501B5C1C502F
:1028F000800A136E2250800A1358DEE35CA0120097
:1029000005D010D822EC17F0234A242A02D8F9E384
:1029100012001D50235C2450800A136E1E50800A42
:1029200013581200076A200E066E0FC508F510C571
:1029300009F5200CF6C4E9F4F7C4EAF4EF501200EC
:10294000106E10501CE00BAE1AD008C50CF509C56E
:102950000DF50AC50EF50BC50FF50C1E0D1E0E1E4E
:102960000F1E0C2A000E0D220E220F220CC512F58E
:102970000DC513F50EC514F50FC515F508D008C51E
:1029800012F509C513F50AC514F50BC515F5085060
:1029900009100A100B1005E1086A096A0A6A0B6A35
:1029A0001200960E116E02D0112A44D80C6A0D6ADC
:1029B0000E6AFE0E151444D808E0F6D7112A122A22
:1029C000000E13221422152235D80C6A0D6A0E6AE5
:1029D000155036D807E0F2D71106D89012361336C4
:1029E0001436153614BE03D0020E1160F5D711A0AF
:1029F000149ED890113211C50CF50D6A0E6A0F6A3B
:102A00000CC50FF50E6A0D6A0C6A0C5012120D50AF
:102A100013120E5014120F501512105002E00BBE7C
:102A2000158E12C508F513C509F514C50AF515C5A7
:102A30000BF51200D89015321432133212321200F4
:102A40000F6E0C500D100E100F101200116A126A4A
:102A50000F6A106A01D00A2A0AC5F6F472EC0FF068
:102A6000200AF9E00AC5F6F478EC0FF0F5C40CF58D
:102A7000F70E50D809E1050E0D5C06E2ECD7106A9E
:102A8000010E0F6E0A2A25D00AC5F6F472EC0FF07B
:102A90000C6E0D6A0D501DE10C502B0AF3E0060A76
:102AA000EEE017D011C504F512C505F5076A0A0E48
:102AB000066E5DEC19F00AC5F6F472EC0FF0045ED8
:102AC000000E055A300E0424116E000E0520126E01
:102AD000D9D70AC5F6F478EC0FF0F5C40CF5D00E92
:102AE00019D803E10A0E0D5CDDE30F5010100DE163
:102AF00011C50CF512C50DF50C1E0D1E0C4A0D2A44
:102B00000CC50AF50DC50BF5120011C50AF512C565
:102B10000BF512000C240D6E0E6AFF0E0E220E50E5
:102B20001200BBC50EF5BCC50FF5BDC510F5BEC581
:102B300011F504C50EF505C50FF506C510F507C559
:102B400011F539D8180E05D0D8900B320A32093257
:102B50000832E82EF9D708500C6E0D6A0C500D1093
:102B600013E1D8900E34086E0F34096E10340A6EDB
:102B700011340B6E29D804E1056A020E046E020CB2
:102B8000056A030E046E030C0C280D1010E113D817
:102B9000090ED890083609360A360B36E82EF9D7D2
:102BA00013D8010ED8A4000E046E056A1200056A3F
:102BB000040E046E040C0EC508F50FC509F510C50A
:102BC0000AF511C50BF51200085009100A100B1078
:102BD0001200063407340D6E0D5005E1046A056AD3
:102BE000066A076A120004C508F505C509F506C599
:102BF0000AF507C50BF5200E05D0D8900B320A3226
:102C000009320832E82EF9D708500C6E068E076A92
:102C1000960E0D5E0DAE0CD00D50800A970FDEE3C0
:102C2000D89007320632053204320D3EF9D70CD067
:102C30001F0E0D6407D0D2D7D8900436053606365D
:102C400007360D060D50F8E10C5008E0071E061E71
:102C5000051E046C000E05220622072204C504F599
:102C600005C505F506C506F507C507F51200376A5F
:102C7000386A800E3114396E7F0E321438D804E170
:102C80002F6A306A316A326A376A386A800E3514C0
:102C9000396E7F0E36142BD804E1336A346A356AF4
:102CA000366A32AE09D02F6C301ED8B0302A311EB1
:102CB000D8B0312A800E325636AE09D0336C341E6D
:102CC000D8B0342A351ED8B0352A800E3656800E3C
:102CD000321A361A33502F5C345030583550315830
:102CE0003650325802E2D8901200D88012003A6E64
:102CF0003750381039103A10120004C509F505C5CF
:102D00000AF50606D8A0070606280AE1072808E102
:102D1000046A056A1200092A0A2A0606D8A00706CC
:102D200009C5F6F472EC0FF011E00AC5F6F472EC86
:102D30000FF00CE00650071009E009C5F6F478EC36
:102D40000FF011D872EC0FF00818E5E009C5F6F4A1
:102D500078EC0FF008D872EC0FF0085C046E056A8E
:102D6000D8A005061200F5C408F50AC5F6F412004D
:102D7000BE6ABF6AC06A3F0EC66E700EC76EFD0E99
:102D8000C86E370E0401006F500E086FFC0E106FF6
:102D9000016B096B010E116F0201876B866B0401D9
:102DA000026B0A6B126B370E036FF00E0B6F136919
:102DB0003F0E046FF00E0C6F1469100E0201616F6C
:102DC0000D0E726F100E106F0401056B066B076B12
:102DD0000D6B0E6B0F6B156B166B176B12005CA0F7
:102DE00003D027D8D9EC18F01BBE05D01AC51FF5A3
:102DF0001BC520F502D01F6A206A1D6A1E6A0BD00F
:102E0000076A200E066E16C508F517C509F522ECEF
:102E100017F01D4A1E2A1F501D5C1E50800A1C6E92
:102E20002050800A1C58ECE35CB0120002D8D9EFA5
:102E300018F018C50FF519C510F516C511F517C509
:102E400012F512000850091003E00850091003E1C0
:102E5000065041EF1AF01ED8DE50DE1011E01AD8ED
:102E600010EE03F00850E1260950E222DE50E65C45
:102E7000E650800A0E6EDE50800A0E58D8B012005E
:102E800020EE03F00850D9260950DA22DE2A000E7F
:102E9000DD22000C20EE09F00850D9260950DA2274
:102EA00012000C6A0D6A800E06140E6E7F0E071457
:102EB00020D804E1046A056A066A076A0C6A0D6A8A
:102EC000800E0A140E6E7F0E0B1413D802E169EC0B
:102ED0000EF00850041809E10950051806E10A50DF
:102EE000061803E10B50071802E0D8901200D880B2
:102EF00012000F6E0C500D100E100F101200720EFB
:102F0000F66E340EF76E000EF86E01EEA7F110EEBD
:102F100010F00900F5C4EEF4E550E150FAE101EEDD
:102F200000F2500EEE6AE806FDE101EEB7F10C0E7C
:102F3000EE6AE806FDE101EE54F1090EEE6AE806DC
:102F4000FDE10401080E5D6F000E5E6F000E5F6F05
:102F5000000187EF13F007BE06D0075006100510DA
:102F60001CE104041AE204C508F505C509F506C507
:102F70000AF507C50BF5081E091E0A1E0B1E082AB6
:102F8000000E09220A220B2208C504F509C505F521
:102F90000AC506F50BC507F5000C04C504F505C503
:102FA00005F506C506F507C507F512000201A16B78
:102FB000A26BA36BA46BA56BA66BA76BA86BA96B8D
:102FC000AA6BA00EAB6F800EAC6F080EAD6F190E22
:102FD000AE6FAF6B200EB06FB16BB26BB36B046AA8
:102FE000056A27EC1AF0046A056A1EEC1AF0000E56
:102FF000046A056A6DEC1AF00501BF6BC06B120024
:103000000301D96BDA6BDB6BDC6BDF6BE06BE56BC1
:10301000E76BEC6B060EEE6FEF6BF06BF16BF26B28
:10302000F46B100EF56FF66BF76BF86B020EF96F21
:10303000FA6B940EF36FB494E80E046E340E056EC2
:1030400053EC1AF0A984B5901200010EC16F67EC21
:103050001AF00001A3A707D0A487A5518F0B100970
:10306000A56FA3971200A439070B070A06E18F0E7C
:10307000A417A497A517A3878F0CA439070B016E7B
:10308000012A013AA45101188F0B0118A46F1200F4
:1030900006C50DF507C50EF504C50BF505C50CF500
:1030A00010D00DC5D9F40EC5DAF4DF500A6E0D4A02
:1030B0000E2A0BC5D9F40CC5DAF40AC5DFF40B4AA5
:1030C0000C2A0806D8A009060828EBE10928E9E13E
:1030D000120004C506F505C507F502D0044A052A05
:1030E00004C5F6F405C5F7F4000EF86E150EF76486
:1030F00003D00800F55002D09AEC14F00009EEE17C
:103100000650045C046E07500558056E1200800ED0
:10311000361A2FC504F530C505F531C506F532C59B
:1031200007F533C508F534C509F535C50AF536C5C3
:103130000BF5A7EC0FF004C52FF505C530F506C556
:1031400031F507C532F5120094C553F50FD092C57D
:103150008CF593C58DF5530E05018E6F050E8F6F9F
:1031600095C590F596C591F56EEC0EF053C5F6F445
:1031700072EC0FF0ECE10501926B936B120006C547
:103180000AF504C508F505C509F50A2A0A04076EFB
:1031900007C5F6F4160EF76EF86A08C5D9F409C526
:1031A000DAF4084A092A0800F5C4DFF4DF50EDE13B
:1031B0001200146A156A0BD013C506F5076A11C50B
:1031C00008F512C509F522EC17F0144A152A145017
:1031D0000F24D96E15501020DA6EDF50136E135085
:1031E000EBE11200FAC402F5FBC403F5A8BEB3AECE
:1031F00002D073EC1AF0ABB6B6A603D0D4EC19F03B
:1032000005D0A9B4B4A402D0E3EC19F003C5FBF4D3
:1032100002C5FAF41100010E086E200E0418051004
:103220000CE0F70E0424066EFF0E0520076E075013
:1032300003E1050E065C01E3086A08C504F5056AAA
:1032400012000BEC1AF0B8EC16F000EC18F070EC71
:1032500019F0C5EC19F030EC1AF0B5EC19F035ECBA
:1032600019F0D6EC17F049EF19F0040E206F110E8B
:103270001F6F0F0E216F1D691C6BE20E046E340E62
:10328000056E49EC1AF0B696AB86800E03011E6FF0
:10329000800CD69AB490D680000E046A056A70EC51
:1032A0001AF0B990D682000E046A056A6FEC1AF023
:1032B000BD90D684046A056A000C04500602F3C46B
:1032C00008F5F4C409F504500702F3500926055027
:1032D0000602F350092608C504F509C505F51200D4
:1032E0000001D56BD76B060ED86FD96BDA6BDB6B31
:1032F000020EDC6F080E00D0DD6FDE6BDF6BD46B6F
:10330000840ED66F840CD00E0424066EFF0E0520AA
:10331000076E075005E10A0E065C02E2010E01D0BD
:10332000000E046E056A1200076A0001A3B705D0FB
:10333000A439070B066E0628076EA70E0724D96E60
:10334000DA6A050EDA22DF5012000450051006106A
:10335000071002E0800E071A04C504F505C505F53F
:1033600006C506F507C507F51200780E0301196FAB
:10337000186B980E1B6FE40E046E340E056E4EEC47
:103380001AF0B69E800E1A6F800C010ED56F020ED9
:10339000D76F220ED86F060ED96FDA6BDB6B080E73
:1033A000DC6F110E7CEF19F0B6960501C351C41104
:1033B000D8B412000500FA6EC351FD6EC451FE6E02
:1033C000FF6AFA501200B4940501C751C811D8B46D
:1033D00012000500FA6EC751FD6EC851FE6EFF6AFD
:1033E000FA501200980E9C6F050E9D6F926B936BB6
:1033F00097C594F59C0E956F050E966FA4EF18F087
:103400000301EB51076E066AEA510624046E000EB2
:103410000720056E1200620E0001AD6FAF6BB36B3B
:10342000020EB16FB06BAC6B1200046A0201B0BB4C
:10343000ABAB02D0010E046E045012000450051014
:10344000D8B4120004C558F505C559F5120004504A
:103450000510D8B4120004C55AF505C55BF5120075
:10346000A46B020EA56FA66FA76BA96BA80EA36F26
:10347000A80C5D443F3A5F4942615A286E756C6CF6
:103480002900056E15EC1AF00009FCE0055058EF14
:103490001AF004C5C3F505C5C4F5120004C5C5F589
:1034A00005C5C6F5120004C5C7F505C5C8F5120067
:1034B000046E04C5A3F212000201B2BF010C000C9D
:1034C000046E04C518F3120003011A8F12000301E1
:1034D0001A9F1200010EC26F010C1200120012009E
:0A34E0001200120012001200120088
:020000040020DA
:10000000FF0FFF0FFF0FFF0FFF0FFF0FFF0FFF0F80
:10001000FF0FFF0FFF0FFF0FFF0FFF0FFF0FFF0F70
:10002000FF0FFF0FFF0FFF0FFF0FFF0FFF0FFF0F60
:10003000FF0FFF0FFF0FFF0FFF0FFF0FFF0FFF0F50
:020000040030CA
:09000000ECFFF7FF9FFFFFFFFF7B
:00000001FF
