:040000000DEF00F010
:04000800A3EF1BF057
:06001800FF006FEF19F07C
:10160000004D656173757265643A2025312E33662D
:10161000560A0D0A0D0043757272656E742047619B
:10162000696E3A2025730A0D004E6577204761697F
:101630006E3A2025730A0D0A0D00312E3333003126
:101640002E313400312E303700322E363700494EDD
:1016500046004E414E00696E66006E616E006C661B
:0B16600000313600310032003800007D
:10166C00866B876B62C598F563C599F564C59AF569
:10167C0065C59BF59BAF15D0876B010E866F98C522
:10168C0002F599C503F59AC504F59BC505F53BEC28
:10169C001BF002C598F503C599F504C59AF505C567
:1016AC009BF59E6B9F6BD6C58AF5D7C58BF586517E
:1016BC00871102E1DAA510D08651871103E16D6B19
:1016CC002B0E02D06D6B2D0E6C6F6CC518F69E4BED
:1016DC009F2B8A07D8A08B0726DB9AEC16F0020406
:1016EC0003101FE1BF0E0501ADDA05E11A0E695DAD
:1016FC0002E2010E01D0000E6E6F6F6B6E516F1116
:10170C0006E0B8DA4E0E00DB45EC19F005D0B2DA83
:10171C00560EFADA45EC19F0A0DA87DA86EC17F0F7
:10172C004AD301DB9AEC16F0025003101FE1BF0EF6
:10173C00050188DA05E11A0E695D02E2010E01D09D
:10174C00000E706F716B7051711106E093DA520ECE
:10175C00DBDA45EC19F005D08DDA5A0ED5DA45EC0A
:10176C0019F07BDA62DA86EC17F025D3050111DB70
:10177C0098C502F599C503F59AC504F59BC505F501
:10178C0029DB17EC19F010E32CD0A7DAB6DAC2EC8F
:10179C0011F014C5A0F515C5A1F516C5A2F517C510
:1017AC00A3F505019C4B9D2BD0DAA7DA96DAC2EC97
:1017BC0011F0C2DA40EC17F008E3E7D705DAD8EC01
:1017CC0012F081DA9C07D8A09D07BFDAA0C531F5CD
:1017DC00A1C532F5A2C533F5A3C534F540EC17F01D
:1017EC00EDE366C508F5096A03EC1AF0085005012B
:1017FC008D6F8DC58CF5670E8D1916E1D851D911E9
:10180C0004E1000ED96F010ED86FD9BF04D0D951A5
:10181C0006E1D80504E2896B060E886F08D0D8C59E
:10182C0088F5D9C589F503D0D9BFF5D7F8D7670E98
:10183C008D191EE19DAF05D0FC0E9C5DFF0E9D59D0
:10184C0015E36769686988C569F589C56AF56751E3
:10185C00692768516A239C51695D6A51800A6B6FD4
:10186C009D51800A6B5902E3660E01D0650E8C6F98
:10187C0088C57EF589C57FF5670E8D1905E1660E65
:10188C008C1904E19DAF02D07E4B7F2B660E8C1918
:10189C0009E19DBF7EDA670E8D1904E09C517E270D
:1018AC009D517F23966B976B98C58EF599C58FF5D7
:1018BC009AC590F59BC591F5A0C580F5A1C581F59C
:1018CC00A2C582F5A3C583F517D0DBD9D8EC12F0ED
:1018DC0045DABAEC13F0E6D9F2EC16F076DA83D9E5
:1018EC00C2EC11F044DA49EC1AF096D96DD9D8EC67
:1018FC0012F0E9D9964B972B55DAE7E3EED9186A33
:10190C00196AA00E6CDAC2EC11F014C592F515C56B
:10191C0093F516C594F517C595F5FCD992C531F517
:10192C0093C532F594C533F595C534F540EC17F0F5
:10193C0002E2050116D08EC502F58FC503F590C5E0
:10194C0004F591C505F592C506F593C507F594C543
:10195C0008F595C509F517EC19F007E3050184B1F5
:10196C0004D0926B936B946B956B98C502F599C5EB
:10197C0003F59AC504F59BC505F592C506F593C507
:10198C0007F594C508F595C509F595EC10F002C559
:10199C008EF503C58FF504C590F505C591F5BAD93B
:1019AC00ACD9EED9C2EC11F0C7D940EC17F015E365
:1019BC0005019C4B9D2BE4D9A0D9C2EC11F014C5A8
:1019CC0080F515C581F516C582F517C583F5660E2C
:1019DC0005018C1902E17E4B7F2B80C5A0F581C5DA
:1019EC00A1F582C5A2F583C5A3F5650E05018C1979
:1019FC0005E09CC57CF59DC57DF502D07C6B7D6BAF
:101A0C007A6B7B6B786B796B966B976B47D039D90C
:101A1C00D8EC12F0A3D9BAEC13F044D9F2EC16F0CE
:101A2C00D4D90501DAB90BD08451851108E1670EC0
:101A3C008D1905E17DAF03D0784B792B1FD07A51EE
:101A4C007B1113E17DAF11D00ED92E0EB9D9D8A0D0
:101A5C008B077B6B010E7A6F08D005D9300EB0D98D
:101A6C00D8A08B077807D8A0790778517911F5E1C0
:101A7C00FAD88451300FA4D9D8A08B07B4D8C2ECB3
:101A8C0011F075D949EC1AF0C7D89ED8D8EC12F0E1
:101A9C001AD97C07D8A07D07964B972B83D907E2E0
:101AAC009FBFB5D79F5103E14B0E9E5DB0E37A51BA
:101ABC007B1107E1DAA905D0D6D82E0EDF6E9E4B2E
:101ACC009F2BD1D8DF6A650E8C197AE1976B4F0E7C
:101ADC00966F0CD9DF6A866B876B9DAF07D0876BCF
:101AEC00010E866F9C6D9D1FD8B09D2B896B020ECD
:101AFC00886F23D09607D8A09707F8D89CC502F515
:101B0C009DC503F5056A0A0E046E81EC18F00250AF
:101B1C00300FDF6E9CC502F59DC503F5056A0A0EF4
:101B2C00046E45EC18F002C59CF503C59DF58807BD
:101B3C00D8A089078A07D8A08B079C519D11DAE1A0
:101B4C0089BF04D08951D6E18805D4E29607D8A084
:101B5C0097078651871103E1736B2B0E02D0736BC1
:101B6C002D0E726FC3D86100C8F5DFF48A07D8A0B8
:101B7C008B079607D8A09707BF0E64D805E11A0EFD
:101B8C00695D02E2010E01D0000E766F776B765123
:101B9C00771103E1756B650E02D0756B450E746F92
:101BAC00A5D86100D0F5DFF48A07D8A08B0762D8DE
:101BBC00180E9625046E060E9721056E45EC19F04D
:101BCC0034D886EC17F0F7D0A0C52DF5A1C52EF5AD
:101BDC00A2C52FF5A3C530F5316A326A200E336EDB
:101BEC00410E346E410C8EC52DF58FC52EF590C56A
:101BFC002FF591C530F5A0C518F5A1C519F5A2C5ED
:101C0C001AF5A3C51BF592C514F593C515F594C526
:101C1C0016F595C517F512002DC58EF52EC58FF549
:101C2C002FC590F530C591F5120060C514F561C54E
:101C3C0015F5180E166E060E176E8AC518F58BC59F
:101C4C0019F51200676F68696651696F6A6B6751A5
:101C5C00692768516A236A5112000501FD0E8A2713
:101C6C00FF0E8B23FF0C180E9E25D96E060E9F219E
:101C7C00DA6E1200180E9E25026E060E9F21036E60
:101C8C0012008EC52DF58FC52EF590C52FF591C57B
:101C9C0030F5A0C531F5A1C532F5A2C533F5A3C504
:101CAC0034F5120046C592F547C593F548C594F531
:101CBC0049C595F592C502F593C503F594C504F590
:101CCC0095C505F512002DC5A0F52EC5A1F52FC59E
:101CDC00A2F530C5A3F505011200A0C514F5A1C5E8
:101CEC0015F5A2C516F5A3C517F51200180E962505
:101CFC00D96E060E9721DA6E1200186A196A200E38
:101D0C001A6E410E1B6E410C046E0450D8A4160EB4
:101D1C00056E12008EC52DF58FC52EF590C52FF5CD
:101D2C0091C530F5120098C502F599C503F59AC511
:101D3C0004F59BC505F5120014C531F515C532F532
:101D4C0016C533F517C534F5120098C52DF599C590
:101D5C002EF59AC52FF59BC530F512002DC546F50D
:101D6C002EC547F52FC548F530C549F5120014C5E9
:101D7C0031F515C532F516C533F517C534F5120016
:101D8C0080C514F581C515F582C516F583C517F503
:101D9C001200A06BA16B800EA26F3F0EA36F9C6B09
:101DAC009D6B12007E51965D9751800A676F7F5133
:101DBC00800A6759120014C560F515C561F512004B
:101DCC00DF6E9E4B9F2B8A07120002C584F503C55C
:101DDC0085F51200066A076A086A096A12001A6E0B
:101DEC00400E1B6E400C1ED9DFC4F6F422D9250A16
:101DFC0001E00CD117D9DF2AD66BD76BDA6BDB6B12
:101E0C00D869D9690FD9DFC4F6F413D92A0A10E1BD
:101E1C0009D91DD9610078F3D6F5610074F3D7F5B3
:101E2C00D7AF25D0DA81D66DD71FD8B0D72B1FD01E
:101E3C00F9D8DF50096E1EEC16F009C5D6F50AC5A7
:101E4C00D7F502D0EFD8DF2A3DD9ECD8DFC4F6F4B1
:101E5C00F0D84FD905E10A0E5C5C02E2010E01D00C
:101E6C00000E0501AC6FAD6BAC51AD11EBE1DAD8E6
:101E7C00DFC4F6F4DED82E0A32E1D86BD96BD2D897
:101E8C00DF2AD0D8DFC4F6F4D4D82A0A09E1CAD89C
:101E9C00DED8610078F3D8F5610074F3D9F51FD062
:101EAC00C1D8DF50096E1EEC16F009C5D8F50AC56D
:101EBC00D9F502D0B7D8DF2A05D9B4D8DFC4F6F4E7
:101ECC00B8D817D905E10A0E5C5C02E2010E01D00C
:101EDC00000E0501AE6FAF6BAE51AF11EBE1A2D8A6
:101EEC00DFC4F6F4A6D8086E096A03EC1AF00850A1
:101EFC000501B26FB2511BE095D803D9F6D899D829
:101F0C00086E096A03EC1AF008500501B36FB3515F
:101F1C000EE088D8DF505A6E020E5A26E6D889D8C1
:101F2C00086E096A03EC1AF008500501B46F660ECE
:101F3C00B2190BE177D8DFC4F6F481D873D8DF2A55
:101F4C009ED8C4D836EC0BF0E0D0B20E026E050E63
:101F5C00036E5E0E046E066A020E056E08EC18F037
:101F6C00025003101EE15ED8CCD8BFD868D8BF0E83
:101F7C005A6E5B6857D8DFC4F6F45BD8BAD805E163
:101F8C001A0E5C5C02E2010E01D0000EB06FB16B58
:101F9C00B05175D847D8020EDF2698D836EC0BF026
:101FAC00B4D040D8DFC4F6F444D8730A17E13AD859
:101FBC004ED8610078F3AAF5610074F3ABF5A4C5B3
:101FCC000DF5A5C50EF5AAC50FF5ABC510F50BECB7
:101FDC0015F00DC5A4F50EC5A5F5120023D8DFC468
:101FEC00F6F427D8250A0DE11DD8DF2A056A250E3F
:101FFC00046E90D8E8EC18F00501A56B010EA46FE7
:10200C00010C10D8DF2AA46BA56B12000BD8DFC40F
:10201C00F6F40FD8046E056A7DD8E8EC18F002D8F7
:10202C00DF2AEAD7610098F6D9F461009CF6DAF45D
:10203C001200160EF76EF86A0800F5501200160E14
:10204C00F76EF86A08006100D4F3B9F51200DF2AC4
:10205C006100A0F6D9F46100A4F6DAF461007CF317
:10206C005AF5020EDE2661007CF35BF5000EDD22D4
:10207C00610068F5D9F461006CF5DAF4000C6100CC
:10208C00A0F6D9F46100A4F6DAF461007CF35AF5F9
:10209C00040EDE2661007CF35BF5000EDD22610090
:1020AC0068F5D9F461006CF5DAF4610078F3B5F5F4
:1020BC00610078F3B6F5610078F3B7F5610078F359
:1020CC00B8F5000CD00E5A6E5B68D00CA4C560F548
:1020DC00A5C561F5B5C562F5B6C563F5B7C564F5BB
:1020EC00B8C565F5B9C566F51200610068F5F6F47A
:1020FC0012005C6E5D6A5A505C265B505D225D502E
:10210C001200DF505A6E5A2A120060C5A4F561C540
:10211C00A5F51200A4C506F5A5C507F512000550D6
:10212C00800B0E6E05500524106E04BE10801050EE
:10213C0005E0102801E106D9048E03D0026A036A77
:10214C00046A056A0950800B0F6E0E1801E00E8CA4
:10215C00095009240F6E08BE0F800F5008E00F289D
:10216C0004E1066A076A086A096A088E03D0066ADF
:10217C00076A086A096A10500F5C22E20EAC02D0A2
:10218C00800E0E1A10C511F50FC510F511C50FF5FF
:10219C0002C511F506C502F511C506F503C511F505
:1021AC0007C503F511C507F504C511F508C504F5F8
:1021BC0011C508F505C511F509C505F511C509F5D4
:1021CC00116A10500FC50AF50B6A0A5E000E0B5A05
:1021DC000BBE15D00B5003E11A0E0A5C10E3C2D8EB
:1021EC00010ED8B4000E116EADD80FC510F50AD083
:1021FC0011A002D0BCD802D0D89011329AD80F506E
:10220C00105CF6E30EBC15D0105001E1A0D00650C6
:10221C00022607500322085004220950052205A06B
:10222C0053D011A002D0A3D802D0D890113281D8AB
:10223C004BD00650025C0750035808500458055008
:10224C00800A0A6E0950800A0A581FE20250065C86
:10225C000A6E035007580B6E045008580C6E05504C
:10226C0009580D6EFF0E0A24026EFF0E0B20036E32
:10227C00FF0E0C20046EFF0E0D20056E800E0E1A44
:10228C00116C11500AE168D808D00650025E075054
:10229C00035A0850045A0950055A64D813E11150D6
:1022AC0011E155D0D890023603360436053611BEEE
:1022BC00028011A002D0D88001D0D89011361050D5
:1022CC0001E0100604AEEED70F6A11AE0AD011C5AC
:1022DC000AF57F0E0A1603E0010E0F6E02D002B053
:1022EC00FBD70F500BE038D805A008D005340532C9
:1022FC00043203320232102801E0102A102802E0C6
:10230C00105004E11FD8105001E10E6A10A002D049
:10231C00048E01D0049ED8901030056E0EBE058E32
:10232C0002C502F503C503F504C504F505C505F59D
:10233C00120002B0118E053405320432033202321F
:10234C00102A1200026A036A046A056A1200026A01
:10235C00036A046A056A1200022A000E0322042290
:10236C000522000C02500310041005101200D89026
:10237C0011300109116E12001750800B206E17508E
:10238C001724266E16BE2680265005E0262801E16D
:10239C0004D9168E01D001D91B50800B201A1B506A
:1023AC001B24216E1ABE2180215005E0212801E159
:1023BC00EFD81A8E01D0ECD8215002E0265005E15E
:1023CC00146A156A166A176A12001A501402B1D8E8
:1023DC00226E236A246A256A2C50276E286A296A81
:1023EC002A6A19501502A5D8B4D818501602A1D8CB
:1023FC00B0D8A7D8185015029CD8B7D819501402C9
:10240C0098D8B3D89ED81850140293D8AED81A5076
:10241C0015028FD8B6D8195016028BD8B2D81A50CC
:10242C00160287D81C6E2C501D6E1E6A1F6A1EC5A4
:10243C001FF51DC51EF51CC51DF51C6A1C50272655
:10244C001D5028221E5029221F502A222550272693
:10245C0093D877D8215026C51CF51D6A1C26000E72
:10246C001D22820E1C242B6EFF0E1D202C6E0FD0F5
:10247C00D8902736283629362A3625BE2780D8907C
:10248C0022362336243625362B06D8A02C0629AE28
:10249C00EFD7216A25AE13D022501C6E23501D6E2F
:1024AC0024501E6E7F0E25141F6E1C501D101E1006
:1024BC001F1003E0010E216E02D027B0FBD7215074
:1024CC000BE0272A59D82AA007D02A342A322932DD
:1024DC00283227322B4A2C2A2CBE0AD02C5002E14F
:1024EC002B2806E3276A286A800E296E7F0E15D0EA
:1024FC002CBE04D02C5008E12B0406E2276A286A73
:10250C00296A2A6A206A0AD02BC526F57F0E29165D
:10251C002A6A26B0298ED89026302A6E20502A128C
:10252C0027C514F528C515F529C516F52AC517F5BF
:10253C0012006100CCF32BF56100D0F32CF52B507D
:10254C00120024C525F523C524F522C523F5226ADE
:10255C0012002226000E2322242225222C5027266C
:10256C00000E282229222A22000C22262C5023225B
:10257C00000E24222522000C000E282229222A22B9
:10258C00000C27262C502822000E29222A22000C6F
:10259C00186A196A1A6A1B6A1200146A156A166A92
:1025AC00176A12003050800B3D6E30503024446E50
:1025BC002FBE4480445005E0442801E1D0D82F8E32
:1025CC0003D02D6A2E6A2F6A306A3450800B3D1A64
:1025DC0034503424456E33BE4580455008E04528C0
:1025EC0004E1316A326A336A346A338E03D0316A59
:1025FC00326A336A346A315032103310341010E1BD
:10260C00AED8800E2F127F0E30123D5030122DC5D9
:10261C002DF52EC52EF52FC52FF530C530F5120032
:10262C00445005E12D6A2E6A2F6A306A120045501B
:10263C0044C535F5366A355E000E365A7F0E3524A4
:10264C003E6E000E36203F6E2DC539F52EC53AF57F
:10265C002FC53BF530C53CF582D8406A416A426AC9
:10266C00436A456A1BD0455006E0D89039363A3655
:10267C003B363C3667D83150395C32503A5833507F
:10268C003B5834503C5809E3438C3150395E32503E
:10269C003A5A33503B5A34503C5A452A190E456429
:1026AC00E2D739503A103B103C1006E0408004D081
:1026BC0049D83E06D8A03F062FAEFAD7456A43AE9E
:1026CC0013D04050356E4150366E4250376E7F0EEF
:1026DC004314386E355036103710381003E0010EA5
:1026EC00456E02D02DB0FBD745500EE02D2A000EC2
:1026FC002E222F22302230A007D0303430322F320D
:10270C002E322D323E4A3F2A3FBE07D03F5002E1C7
:10271C003E2803E33F6A3E6822D83FBE04D03F50B8
:10272C0006E13E0404E23E6A3F6A19D83D6A3EC5A2
:10273C0044F544A002D02F8E01D02F9ED890443067
:10274C00306E63D7D8902D362E362F36303643BEAA
:10275C002D80D890403641364236433612002D6AD1
:10276C002E6A2F6A306A1200CCC556F5CDC557F5C6
:10277C00CEC558F5CFC559F546C556F547C557F5DD
:10278C0048C558F549C559F5810E4A6E4B6856C572
:10279C004CF557C54DF558C54EF559C54FF5180EA6
:1027AC0005D0D8904F324E324D324C32E82EF9D7FC
:1027BC004C504A24546E000E4B20556E55BE0ED014
:1027CC00555003E1170E545C09E346C546F547C561
:1027DC0047F548C548F549C549F5120055BE47D0DF
:1027EC0054C54AF54B684C687F0E4D6E000E4E6E0C
:1027FC004A6601D007D04E344E324D324C324B32F9
:10280C004A2EF6D74BC550F54CC551F54DC552F572
:10281C004EC553F5505056144A6E515057144B6ECA
:10282C00525058144C6E5350591455D8CEE044D8CD
:10283C0001D04BD8E82EFDD74A5008E05050562610
:10284C00515057225250582253505922501C4A6E04
:10285C00511C4B6E521C4C6E531C4D6E4A505616EE
:10286C004B5057164C5058164D5059161CD024D856
:10287C0001D02BD8E82EFDD74A6605D0566A576A88
:10288C00586A596A10D0D89056344A6E57344B6EE9
:10289C0058344C6E59341FD806E0566A576A800E6D
:1028AC00586EBF0E596E56C546F557C547F558C5F7
:1028BC0048F559C549F5120056C54AF557C54BF5AB
:1028CC0058C54CF559C54DF5200CD8904D324C32AD
:1028DC004B324A3212004D6E4A504B104C104D1078
:1028EC001200DBEC1AF0120E0301EC6F070E000164
:1028FC00A413A6513F0B8009A66F0501FF6BFE6B5D
:10290C00040E026E380E036EEBEC1BF04C0E026ED6
:10291C00340E036EE1EC1BF0D68E0501FE5110E077
:10292C00FE6B290EC06F2AEC1BF066D888EC1BF0EE
:10293C00000E036A026AF8EC1BF0FCEC1BF055D09D
:10294C00FF5153E0FF6B330E186E196E530EF5ECFE
:10295C000EF0AFEC1BF002C506F503C507F5086ACF
:10296C00096A000E98EC15F006C514F507C515F5A7
:10297C0008C516F509C517F5C2EC11F014C52DF5EF
:10298C0015C52EF516C52FF517C530F5316A326A07
:10299C00800E336E450E346ED8EC12F02DC5C8F592
:1029AC002EC5C9F52FC5CAF530C5CBF5010EC0A291
:1029BC00000EFF0A0501C76FC747C050C719FD0BB2
:1029CC00C719C06E160EC06F2AEC1BF015D888EC18
:1029DC001BF0010EC06FC8C5C1F5C9C5C2F5CAC58B
:1029EC00C3F5CBC5C4F588EC1BF0F4EC1BF0000967
:1029FC00FCE0030000F091D70501C76FC7C5C1F516
:102A0C00C151D8A4160EC26F120021EEEBF111EEDB
:102A1C0012F1060EDBC4E3F4E806FCE20FC51DF56B
:102A2C0010C51EF51D501E1004E1120E1D6E050E74
:102A3C001E6E1DC502F51EC503F596EC19F002C5F8
:102A4C0021F503C522F5D8C51FF5D9C520F520BE43
:102A5C000DD021501F5C2050800A116E2250800A2C
:102A6C00115804E21FC521F520C522F521C51FF51B
:102A7C0022C520F5D6C51BF5D7C51CF50501DAB165
:102A8C0008D005D047D8E8EC18F0214A222A39D8CA
:102A9C00F9E3196A1A6A1CD0610074F4F6F4610047
:102AAC0078F4F7F4000EF86E150EF76403D00800F6
:102ABC00F55002D0B5EC19F0046E056A0DC506F59B
:102ACC000EC507F5E8EC18F01D4A1E2A194A1A2AF9
:102ADC001F50195C1A50800A116E2050800A115830
:102AEC00DBE30501DAA108D005D014D8E8EC18F026
:102AFC00214A222A06D8F9E321C50DF522C50EF587
:102B0C0012001B50215C2250800A116E1C50800A4E
:102B1C0011581200056A200E046E0DC506F50EC57F
:102B2C0007F5200C0E6E0E501CE009AE1AD006C52F
:102B3C000AF507C50BF508C50CF509C50DF50A1EF8
:102B4C000B1E0C1E0D1E0A2A000E0B220C220D222F
:102B5C000AC510F50BC511F50CC512F50DC513F50D
:102B6C0008D006C510F507C511F508C512F509C53D
:102B7C0013F5065007100810091005E1066A076ADC
:102B8C00086A096A1200960E0F6E02D00F2A44D8FA
:102B9C000A6A0B6A0C6AFE0E131444D808E0F6D7C6
:102BAC000F2A102A000E11221222132235D80A6A7B
:102BBC000B6A0C6A135036D807E0F2D70F06D89080
:102BCC00103611361236133612BE03D0020E0F60B9
:102BDC00F5D70FA0129ED8900F320FC50AF50B6ACD
:102BEC000C6A0D6A0AC50DF50C6A0B6A0A6A0A5062
:102BFC0010120B5011120C5012120D5013120E50C9
:102C0C0002E009BE138E10C506F511C507F512C5F5
:102C1C0008F513C509F51200D8901332123211328F
:102C2C00103212000D6E0A500B100C100D10120009
:102C3C00166A176A0F6A106A01D0092A010E156EFE
:102C4C0067D81FEC10F0200A0CE0F70E0B6E0C6826
:102C5C005FD81FEC10F060D803E1050E0D5C01E3AA
:102C6C00156A15C511F5126A1150121006E0E5D758
:102C7C00106A010E0F6E092A23D04AD81FEC10F0EF
:102C8C000B6E0C6A0C501CE10B502B0AF4E0060A7C
:102C9C00EFE016D016C502F517C503F5056A0A0E46
:102CAC00046EC6EC1AF034D81FEC10F0025E000E65
:102CBC00035A300E0224166E000E0320176EDBD75B
:102CCC00D00E0B6E0C6824D81FEC10F025D805E143
:102CDC000A0E0D5C02E2010E01D0000E136E146A96
:102CEC0013501410D7E10F5010100DE116C50BF551
:102CFC0017C50CF50B1E0C1E0B4A0C2A0BC509F53F
:102D0C000CC50AF5120016C509F517C50AF512000F
:102D1C00610024F4F6F412000D6E0E6A0B500D26B1
:102D2C000C500E220E501200D0C50CF5D1C50DF56D
:102D3C00D2C50EF5D3C50FF502C50CF503C50DF5BF
:102D4C0004C50EF505C50FF539D8180E05D0D89069
:102D5C000932083207320632E82EF9D706500A6ECD
:102D6C000B6A0A500B1013E1D8900C34066E0D341C
:102D7C00076E0E34086E0F34096E29D804E1036A0D
:102D8C00020E026E020C036A030E026E030C0A287A
:102D9C000B1010E113D8090ED890063607360836FA
:102DAC000936E82EF9D713D8010ED8A4000E026EFE
:102DBC00036A1200036A040E026E040C0CC506F5BD
:102DCC000DC507F50EC508F50FC509F5120006501F
:102DDC000710081009101200043405340B6E0B5048
:102DEC0005E1026A036A046A056A120002C506F567
:102DFC0003C507F504C508F505C509F5200E05D072
:102E0C00D8900932083207320632E82EF9D706502C
:102E1C000A6E048E056A960E0B5E0BAE0CD00B5030
:102E2C00800A970FDEE3D890053204320332023267
:102E3C000B3EF9D70CD01F0E0B6407D0D2D7D8900D
:102E4C0002360336043605360B060B50F8E10A50F1
:102E5C0008E0051E041E031E026C000E0322042251
:102E6C00052202C502F503C503F504C504F505C525
:102E7C0005F51200356A366A800E2F14376E7F0EF8
:102E8C00301438D804E12D6A2E6A2F6A306A356AFC
:102E9C00366A800E3314376E7F0E34142BD804E14F
:102EAC00316A326A336A346A30AE09D02D6C2E1E08
:102EBC00D8B02E2A2F1ED8B02F2A800E305634AE02
:102ECC0009D0316C321ED8B0322A331ED8B0332A16
:102EDC00800E3456800E301A341A31502D5C32501C
:102EEC002E5833502F583450305802E2D8901200DC
:102EFC00D8801200386E355036103710381012004A
:102F0C000501DAA103D035D881EC1AF019BE05D031
:102F1C0018C51DF519C51EF502D01D6A1E6A1B6A5F
:102F2C001C6A0BD0056A200E046E14C506F515C577
:102F3C0007F5E8EC18F01B4A1C2A1D501B5C1C50B2
:102F4C00800A1A6E1E50800A1A58ECE30501DAB199
:102F5C0003D00FD881EC1AF016C502F517C503F58E
:102F6C0096EC19F01D500224146E1E500320156EA1
:102F7C00120016C50DF517C50EF514C50FF515C5C0
:102F8C0010F51200AC90000E026A036A07EC1CF0FC
:102F9C00AC92000E026A036A06EC1CF0AC94000EB4
:102FAC00026A036A08EC1CF0AC96000E026A036A13
:102FBC0005EC1CF00201A16BA26BA36BA46BA56BBF
:102FCC00A66BA76BA86BA96BAA6BA00EAB6F800E40
:102FDC00AC6FAD6B190EAE6FAF6BB06BB16BB26B00
:102FEC00B36B000E026A036AD7EC1BF0000E026A88
:102FFC00036AD2EC1BF0000E026A036ADCEC1BF0D5
:10300C005E6A120002C508F503C509F504C50AF588
:10301C000506D8A0060605280BE1062809E1026A78
:10302C00036A1200084A092A0A2A0506D8A00606CD
:10303C001ED80EE018D81FEC10F00AE00550061050
:10304C0007E015D8076E0FD81FEC10F00718EAE050
:10305C000ED8076E08D81FEC10F0075C026E036ADE
:10306C00D8A003061200610028F4F6F412006100E7
:10307C0020F4D9F4610024F4DAF4DF501200076A6A
:10308C0005AE06D0046C051ED8B0052A010E076EDD
:10309C0003AE06D0026C031ED8B0032A010E071A29
:1030AC00086A096A045005101BE0010E066E04D074
:1030BC00D89004360536062A05AEFAD7D8900836CD
:1030CC0009360450025C0550035805E30450025EB7
:1030DC000550035A0880D89005320432062EEED7DC
:1030EC00075004E0086C091ED8B0092A08C502F57F
:1030FC0009C503F51200076A03AE06D0026C031E65
:10310C00D8B0032A010E076E05AE04D0046C051E60
:10311C00D8B0052A0450051017E0010E066E04D035
:10312C00D89004360536062A05AEFAD70450025C50
:10313C000550035804E30450025E0550035AD8901E
:10314C0005320432062EF2D7075004E0026C031E3F
:10315C00D8B0032A02C502F503C503F51200BE6AF6
:10316C00BF6AC06A3F0EC66E700EC76EFD0EC86E8B
:10317C00370E0401006F500E086FFC0E106F016BC0
:10318C00096B010E116F026B0A6B126B370E036F1A
:10319C00F00E0B6F13693F0E046FF00E0C6F146979
:1031AC00100E0201616F0D0E726F100E106F040184
:1031BC00056B066B076B0D6B0E6B0F6B156B166B44
:1031CC00176B12000650071003E00650071003E1BE
:1031DC000450F0EF1BF01ED8DE50DE1011E01AD8B0
:1031EC0010EE02F00650E1260750E222DE50E65CBB
:1031FC00E650800A0C6EDE50800A0C58D8B01200D3
:10320C0020EE02F00650D9260750DA22DE2A000EF4
:10321C00DD22000C20EE04F00650D9260750DA22ED
:10322C0012000A6A0B6A800E04140C6E7F0E0514D1
:10323C0020D804E1026A036A046A056A0A6A0B6A06
:10324C00800E08140C6E7F0E091413D802E1F0ECFA
:10325C000EF00650021809E10750031806E1085059
:10326C00041803E10950051802E0D8901200D88028
:10327C0012000D6E0A500B100C100D10120004C52C
:10328C0008F505C509F502C50AF503C50BF5085087
:10329C00066E0950076E084A092A610018F4F6F404
:1032AC0061001CF4F7F4000EF86E610028F4D9F4F8
:1032BC0061002CF4DAF40A4A0B2A150EF76403D0D9
:1032CC000800F55002D0B5EC19F0DF6EDF50DFE1ED
:1032DC001200860EF66E370EF76E000EF86E01EECB
:1032EC00E2F110EE10F00900F5C4EEF4E550E150F7
:1032FC00FAE101EE00F2680EEE6AE806FDE101EE7D
:10330C00CCF1160EEE6AE806FDE15E6A0401080EC9
:10331C005D6F000E5E6F000E5F6F000177EF14F0B3
:10332C0002C504F503C505F502D0024A032A610063
:10333C0008F4F6F461000CF4F7F4000EF86E150EB8
:10334C00F76403D00800F55001D009D80009EDE16D
:10335C000450025C026E05500358036E1200F6C452
:10336C00E9F4F7C4EAF4EF5012000301D96BDA6BFD
:10337C00DB6BDC6BDF6BE06BE56BE76BEC6B060E12
:10338C00EE6FEF6BF06BF16BF26BF46B100EF56F85
:10339C00F66BF76BF86B020EF96FFA6B940EF36F1A
:1033AC00B4941C0E026E380E036EEBEC1BF0A98469
:1033BC00B5901200BCC5BFF5D46BD56B13D0BAC594
:1033CC00A4F5BBC5A5F5BF0EA66F050EA76FBDC5B1
:1033DC00A8F5BEC5A9F5F9EC0EF00501A451D4274A
:1033EC00A551D5236100FCF6F6F41FEC10F0E7E1D3
:1033FC00D4C5BAF5D5C5BBF51200BF0E0A6E0B6865
:10340C0008C50CF509C50DF50A500C260B500D22FC
:10341C000D5005E11A0E0C5C02E2010E01D0000EFB
:10342C000E6E0F6A0E500F1006E0200E0810086E7C
:10343C000950096E120008C508F509C509F51200F6
:10344C00010EFE6FFFEC1BF00001A3A707D0A487B1
:10345C00A5518F0B1009A56FA3971200A439070B68
:10346C00070A06E18F0EA417A497A517A3878F0C44
:10347C00A439070B016E012A013AA45101188F0BD4
:10348C000118A46F1200800E341A2DC502F52EC53A
:10349C0003F52FC504F530C505F531C506F532C564
:1034AC0007F533C508F534C509F595EC10F002C5E0
:1034BC002DF503C52EF504C52FF505C530F5120005
:1034CC00010E086E200E0218031011E0F70E046EA8
:1034DC00056802C506F503C507F504500626055018
:1034EC000722075003E1050E065C01E3086A08C5D4
:1034FC0002F5036A1200126A136A0BD011C504F5A7
:10350C00056A0FC506F510C507F5E8EC18F0124A68
:10351C00132A12500D24D96E13500E20DA6EDF5080
:10352C00116E1150EBE11200BF0E046E056802C55E
:10353C0006F503C507F5045006260550072207506B
:10354C0005E11A0E065C02E2010E01D0000E026EBD
:10355C00036A1200D00E046E056802C506F503C599
:10356C0007F50450062605500722075005E10A0E00
:10357C00065C02E2010E01D0000E026E036A12001C
:10358C00025004026100CCF306F56100D0F307F59C
:10359C0002500502F350072603500402F35007268D
:1035AC0006C502F507C503F5120096EC1BF0B5EC49
:1035BC0018F0BBEC19F017EC1BF05BEC1BF0BAEC41
:1035CC001BF04BEC1BF0EFEC1AF0C8EC17F003EF10
:1035DC001BF0040E206F110E1F6F0F0E216F1D6953
:1035EC001C6B180E026E380E036EE1EC1BF0B696D7
:1035FC00AB86800E03011E6F800CD69AB490D680D9
:10360C00000E026A036A0BEC1CF0B990D682000E15
:10361C00026A036A0AEC1CF0BD90D684026A036A43
:10362C00000C0001D56BD76B060ED86FD96BDA6B1B
:10363C00DB6B020EDC6F080E00D0DD6FDE6BDF6B18
:10364C00D46B840ED66F840C056A0001A3B705D029
:10365C00A439070B046E0428056EE20E0524D96EFE
:10366C00DA6A050EDA22DF50120002500310041041
:10367C00051002E0800E051A02C502F503C503F51C
:10368C0004C504F505C505F51200780E0301196F84
:10369C00186B980E1B6F1A0E026E380E036EE6EC4A
:1036AC001BF0B69E800E1A6F800C010ED56F020EA9
:1036BC00D76F220ED86F060ED96FDA6BDB6B080E44
:1036CC00DC6F110E23EF1BF0B6960501F851F911C2
:1036DC00D8B412000500FA6EF851FD6EF951FE6E69
:1036EC00FF6AFA501200B4940501FC51FD11D8B4D4
:1036FC0012000500FA6EFC51FD6EFD51FE6EFF6A64
:10370C00FA501200C10EC56F050EC66FBA6BBB6BBB
:10371C00C0C5BCF5C50EBD6F050EBE6FE0EF19F050
:10372C00620E0001AD6F700EAE6FAF6BB36B020E1D
:10373C00B16FB26BB06BAC6B1200A9B4B4A403D074
:10374C0079EC1BF01100ABB6B6A611006AEC1BF0BD
:10375C0011000301EB51056E046AEA510424026E58
:10376C00000E0520036E1200A46B020EA56FA66F4F
:10377C00A76BA96BA80EA36FA80C64443F3A6649CB
:10378C00426861286E756C6C2900026EB7A2FED778
:10379C00610008F4A3F2120002C5F4F503C5F5F5B7
:1037AC00120002C5F6F503C5F7F5120002C5F2F5D5
:1037BC0003C5F3F5120002C5F8F503C5F9F51200BF
:1037CC0002C5FAF503C5FBF5120002C5FCF503C5ED
:1037DC00FDF51200036E0350CBEF1BF00201B2BFDC
:1037EC00010C000C610008F418F3120003011A8F8D
:1037FC00120003011A9F1200010EFF6F010C120040
:10380C00120012001200120012001200120012001C
:02381C00120098
:020000040020DA
:10000000FF0FFF0FFF0FFF0FFF0FFF0FFF0FFF0F80
:10001000FF0FFF0FFF0FFF0FFF0FFF0FFF0FFF0F70
:020000040030CA
:0A000000ECFFF7FF9FFFFFFFFFFF7B
:00000001FF
