:040000000DEF00F010
:0400080097EF1BF063
:06001800FF0063EF19F088
:10160000004D656173757265643A2025312E33662D
:10161000560A0D0A0D0043757272656E742047619B
:10162000696E3A2025730A0D004E6577204761697F
:101630006E3A2025730A0D0A0D00312E3333003126
:101640002E313400312E303700322E363700494EDD
:1016500046004E414E00696E66006E616E006C661B
:0B16600000313600310032003800007D
:10166C007A6B7B6B3BC58CF53CC58DF53DC58EF51A
:10167C003EC58FF58FAF15D07B6B010E7A6F8CC585
:10168C0002F58DC503F58EC504F58FC505F52FEC58
:10169C001BF002C58CF503C58DF504C58EF505C58B
:1016AC008FF5926B936BD4C57EF5D5C57FF57A51CA
:1016BC007B1102E1D8A510D07A517B1103E1616B4B
:1016CC002B0E02D0616B2D0E606F60C500F6924B35
:1016DC00932B7E07D8A07F0726DB8EEC16F0020436
:1016EC0003101EE1AEDA05E11A0E425C02E2010EB5
:1016FC0001D0000E0501626F636B6251631106E04D
:10170C00B9DA4E0E01DB39EC19F005D0B3DA560E0E
:10171C00FBDA39EC19F0A1DA87DA7AEC17F04BD353
:10172C0002DB8EEC16F0025003101EE18ADA05E1A2
:10173C001A0E425C02E2010E01D0000E0501646F2C
:10174C00656B6451651106E095DA520EDDDA39EC01
:10175C0019F005D08FDA5A0ED7DA39EC19F07DDA98
:10176C0063DA7AEC17F027D305011CDB8CC502F584
:10177C008DC503F58EC504F58FC505F52BDB0BEC7C
:10178C0019F010E32CD0A9DAB8DABDEC11F014C5BD
:10179C0094F515C595F516C596F517C597F505017C
:1017AC00904B912BD2DAA9DA98DABDEC11F0C4DAAD
:1017BC0034EC17F008E3E7D706DAD3EC12F083DA4F
:1017CC009007D8A09107C1DA94C531F595C532F5CB
:1017DC0096C533F597C534F534EC17F0EDE33FC5FA
:1017EC0008F5096AF7EC19F008500501816F81C5FD
:1017FC0080F5670E811916E1D651D71104E1000E60
:10180C00D76F010ED66FD7BF04D0D75106E1D605DE
:10181C0004E27D6B060E7C6F08D0D6C57CF5D7C56F
:10182C007DF503D0D7BFF5D7F8D7670E81191EE128
:10183C0091AF05D0FC0E905DFF0E915915E34068F9
:10184C0041687CC542F57DC543F540504226415068
:10185C0043229051425C4350800A446E9151800A5D
:10186C00445802E3660E01D0650E806F7CC572F59C
:10187C007DC573F5670E811905E1660E801904E1CB
:10188C0091AF02D0724B732B660E801909E191BF98
:10189C0089DA670E811904E09051722791517323F4
:1018AC008A6B8B6B8CC582F58DC583F58EC584F5E3
:1018BC008FC585F594C574F595C575F596C576F502
:1018CC0097C577F517D0EED9D3EC12F047DAB5EC13
:1018DC0013F0D7D9E6EC16F078DA84D9BDEC11F018
:1018EC0046DA3DEC1AF097D96ED9D3EC12F0EBD95D
:1018FC008A4B8B2B4EDAE7E3F0D9186A196AA00EE3
:10190C001A6E400E1B6EBDEC11F014C586F515C594
:10191C0087F516C588F517C589F5FCD986C531F547
:10192C0087C532F588C533F589C534F534EC17F025
:10193C0002E2050116D082C502F583C503F584C504
:10194C0004F585C505F586C506F587C507F588C573
:10195C0008F589C509F50BEC19F007E3050178B119
:10196C0004D0866B876B886B896B8CC502F58DC533
:10197C0003F58EC504F58FC505F586C506F587C537
:10198C0007F588C508F589C509F590EC10F002C576
:10199C0082F503C583F504C584F505C585F5BAD96B
:1019AC00ACD9EED9BDEC11F0C7D934EC17F015E376
:1019BC000501904B912BE4D9A0D9BDEC11F014C5C5
:1019CC0074F515C575F516C576F517C577F5660E5C
:1019DC000501801902E1724B732B74C594F575C522
:1019EC0095F576C596F577C597F5650E05018019C1
:1019FC0005E090C570F591C571F502D0706B716BF7
:101A0C006E6B6F6B6C6B6D6B8A6B8B6B47D04AD943
:101A1C00D3EC12F0A3D9B5EC13F033D9E6EC16F0F5
:101A2C00D4D90501D8B90BD07851791108E1670EDA
:101A3C00811905E171AF03D06C4B6D2B1FD06E512A
:101A4C006F1113E171AF11D00ED92E0EB9D9D8A0E8
:101A5C007F076F6B010E6E6F08D005D9300EB0D9B1
:101A6C00D8A07F076C07D8A06D076C516D11F5E1FC
:101A7C00FAD87851300FA4D9D8A07F07B3D8BDECD1
:101A8C0011F075D93DEC1AF0C6D89DD8D3EC12F0F4
:101A9C001AD97007D8A071078A4B8B2B7AD907E219
:101AAC0093BFB5D7935103E14B0E925DB0E36E51EA
:101ABC006F1107E1D8A905D0D6D82E0EDF6E924B48
:101ACC00932BD1D8DF6A650E801979E18B6B4F0EA1
:101ADC008A6F0CD9DF6A7A6B7B6B91AF07D07B6B0B
:101AEC00010E7A6F906D911FD8B0912B7D6B020E09
:101AFC007C6F23D08A07D8A08B07F8D890C502F545
:101B0C0091C503F5056A0A0E046E75EC18F00250C7
:101B1C00300FDF6E90C502F591C503F5056A0A0E0C
:101B2C00046E39EC18F002C590F503C591F57C07ED
:101B3C00D8A07D077E07D8A07F0790519111DAE1DC
:101B4C007DBF04D07D51D6E17C05D4E28A07D8A0B4
:101B5C008B077A517B1103E1676B2B0E02D0676BFD
:101B6C002D0E666FC3D8610098F5DFF47E07D8A000
:101B7C007F078A07D8A08B0764D805E11A0E425C50
:101B8C0002E2010E01D0000E6A6F6B6B6A516B1191
:101B9C0003E1696B650E02D0696B450E686FA6D8C0
:101BAC006100A0F5DFF47E07D8A07F0763D8000E94
:101BBC008A25046E060E8B21056E39EC19F034D88B
:101BCC007AEC17F0F8D094C502F595C503F596C5D7
:101BDC0004F597C505F5066A076A200E086E410ED6
:101BEC00096E410C82C52DF583C52EF584C52FF5E4
:101BFC0085C530F594C518F595C519F596C51AF532
:101C0C0097C51BF586C514F587C515F588C516F55A
:101C1C0089C517F512002DC582F52EC583F52FC584
:101C2C0084F530C585F5120039C514F53AC515F59E
:101C3C00000E166E060E176E7EC518F57FC519F5CB
:101C4C001200BF0E406E41683F50426E436A4050D6
:101C5C00422641504322435012000501FD0E7E27BF
:101C6C00FF0E7F23FF0C000E9225D96E060E9321DA
:101C7C00DA6E1200000E9225026E060E9321036E90
:101C8C0012001BC586F51CC587F51DC588F51EC53C
:101C9C0089F586C502F587C503F588C504F589C5A0
:101CAC0005F5120082C502F583C503F584C504F55C
:101CBC0085C505F594C506F595C507F596C508F5D2
:101CCC0097C509F5120002C594F503C595F504C531
:101CDC0096F505C597F50501120094C514F595C543
:101CEC0015F596C516F597C517F51200000E8A2541
:101CFC00D96E060E8B21DA6E1200186A196A200E44
:101D0C001A6E410E1B6E410C046E0450D8A4160EB4
:101D1C00056E120082C52DF583C52EF584C52FF5F1
:101D2C0085C530F512008CC502F58DC503F58EC541
:101D3C0004F58FC505F5120014C531F515C532F53E
:101D4C0016C533F517C534F512008CC52DF58DC5A8
:101D5C002EF58EC52FF58FC530F5120002C51BF57B
:101D6C0003C51CF504C51DF505C51EF5120014C5EB
:101D7C0031F515C532F516C533F517C534F5120016
:101D8C0074C514F575C515F576C516F577C517F533
:101D9C00120072518A5D8B51800A406E7351800A19
:101DAC0040581200946B956B800E966F3F0E976F98
:101DBC00906B916B120014C539F515C53AF51200EC
:101DCC00DF6E924B932B7E07120002C578F503C58C
:101DDC0079F51200066A076A086A096A12001DD9A9
:101DEC00DFC4F6F421D9250A01E00BD116D9DF2A7C
:101DFC00D46BD56BD86BD96BD669D7690ED9DFC4C8
:101E0C00F6F412D92A0A10E108D91CD9610078F32A
:101E1C00D4F5610074F3D5F5D5AF25D0D881D46D48
:101E2C00D51FD8B0D52B1FD0F8D8DF50096E12ECC7
:101E3C0016F009C5D4F50AC5D5F502D0EED8DF2ABF
:101E4C003CD9EBD8DFC4F6F4EFD84ED905E10A0E35
:101E5C004D5C02E2010E01D0000E05019A6F9B6BE6
:101E6C009A519B11EBE1D9D8DFC4F6F4DDD82E0AD8
:101E7C0032E1D66BD76BD1D8DF2ACFD8DFC4F6F4DA
:101E8C00D3D82A0A09E1C9D8DDD8610078F3D6F590
:101E9C00610074F3D7F51FD0C0D8DF50096E12EC77
:101EAC0016F009C5D6F50AC5D7F502D0B6D8DF2A83
:101EBC0004D9B3D8DFC4F6F4B7D816D905E10A0EA5
:101ECC004D5C02E2010E01D0000E05019C6F9D6B72
:101EDC009C519D11EBE1A1D8DFC4F6F4A5D8086E96
:101EEC00096AF7EC19F008500501A46FA4511BE026
:101EFC0094D802D9F5D898D8086E096AF7EC19F07D
:101F0C0008500501A56FA5510EE087D8DF504B6E28
:101F1C00020E4B26E5D888D8086E096AF7EC19F042
:101F2C0008500501A66F660EA4190BE176D8DFC424
:101F3C00F6F480D872D8DF2A9DD8C3D836EC0BF0D3
:101F4C00DFD0A40E026E050E036E5E0E046E066AE2
:101F5C00020E056EFCEC17F0025003101EE15DD86A
:101F6C00CBD8BED867D8BF0E4B6E4C6856D8DFC4E2
:101F7C00F6F45AD8B9D805E11A0E4D5C02E2010EFE
:101F8C0001D0000E9E6F9F6B9E5174D846D8020EE6
:101F9C00DF2697D836EC0BF0B3D03FD8DFC4F6F47D
:101FAC0043D8730A17E139D84DD8610078F398F506
:101FBC00610074F399F545C50DF546C50EF598C548
:101FCC000FF599C510F5FFEC14F00DC545F50EC5D0
:101FDC0046F5120022D8DFC4F6F426D8250A0CE107
:101FEC001CD8DF2A056A250E046E8FD8DCEC18F09D
:101FFC00466A010E456E010C10D8DF2A456A466A06
:10200C0012000BD8DFC4F6F40FD8046E056A7DD825
:10201C00DCEC18F002D8DF2AEBD761001CF5D9F400
:10202C00610020F5DAF41200160EF76EF86A08005B
:10203C00F5501200160EF76EF86A08006100D4F322
:10204C00A7F51200DF2A610024F5D9F4610028F508
:10205C00DAF461007CF34BF5020EDE2661007CF3B2
:10206C004CF5000EDD2261002CF5D9F4610030F541
:10207C00DAF4000C610024F5D9F4610028F5DAF4E7
:10208C0061007CF34BF5040EDE2661007CF34CF50D
:10209C00000EDD2261002CF5D9F4610030F5DAF484
:1020AC00610078F3A0F5610078F3A1F5610078F395
:1020BC00A2F5610078F3A3F5000CD00E4B6E4C68C2
:1020CC00D00C45C539F546C53AF5A0C53BF5A1C5BB
:1020DC003CF5A2C53DF5A3C53EF5A7C53FF51200DD
:1020EC0061002CF5F6F412004D6E4E6A4B504D26E5
:1020FC004C504E224E501200DF504B6E4B2A1200A9
:10210C0039C545F53AC546F5120045C506F546C52F
:10211C0007F512000550800B0E6E05500524106E4D
:10212C0004BE1080105005E0102801E106D9048E81
:10213C0003D0026A036A046A056A0950800B0F6EA9
:10214C000E1801E00E8C095009240F6E08BE0F808A
:10215C000F5008E00F2804E1066A076A086A096A4A
:10216C00088E03D0066A076A086A096A10500F5C69
:10217C0022E20EAC02D0800E0E1A10C511F50FC55E
:10218C0010F511C50FF502C511F506C502F511C5FF
:10219C0006F503C511F507C503F511C507F504C50B
:1021AC0011F508C504F511C508F505C511F509C5E6
:1021BC0005F511C509F5116A10500FC50AF50B6A22
:1021CC000A5E000E0B5A0BBE15D00B5003E11A0E13
:1021DC000A5C10E3C7D8010ED8B4000E116EADD84E
:1021EC000FC510F50AD011A002D0B7D802D0D890E4
:1021FC0011329AD80F50105CF6E30EBC15D010506B
:10220C0001E1A0D0065002260750032208500422F8
:10221C000950052205A053D011A002D09ED802D09F
:10222C00D890113281D84BD00650025C075003581D
:10223C00085004580550800A0A6E0950800A0A5842
:10224C001FE20250065C0A6E035007580B6E0450D6
:10225C0008580C6E055009580D6EFF0E0A24026EBC
:10226C00FF0E0B20036EFF0E0C20046EFF0E0D20D4
:10227C00056E800E0E1A116C11500AE168D808D048
:10228C000650025E0750035A0850045A0950055A6A
:10229C0069D813E1115011E155D0D89002360336AC
:1022AC000436053611BE028011A002D0D88001D0B0
:1022BC00D8901136105001E0100604AEEED70F6A1C
:1022CC0011AE0AD011C50AF57F0E0A1603E0010EF5
:1022DC000F6E02D002B0FBD70F500BE038D805A020
:1022EC0008D005340532043203320232102801E0E2
:1022FC00102A102802E0105004E11FD8105001E100
:10230C000E6A10A002D0048E01D0049ED89010301A
:10231C00056E0EBE058E02C502F503C503F504C598
:10232C0004F505C505F5120002B0118E0534053211
:10233C00043203320232102A1200026A036A046A5F
:10234C00056A1200026A036A046A056A1200022A0C
:10235C00000E032204220522000CD8901130010932
:10236C00116E1200025003100410051012001750C9
:10237C00800B206E17501724226E16BE228022501E
:10238C0005E0222801E1FFD8168E01D0FCD81B50A5
:10239C00800B201A1B501B24216E1ABE2180215049
:1023AC0005E0212801E1F4D81A8E01D0F1D8215092
:1023BC0002E0225005E1146A156A166A176A1200C7
:1023CC001A501402B1D8236E246A256A266A2C503E
:1023DC00276E286A296A2A6A19501502A5D8B4D81A
:1023EC0018501602A1D8B0D8A7D8185015029CD8EE
:1023FC00B7D81950140298D8B3D89ED818501402D4
:10240C0093D8AED81A5015028FD8B6D819501602D8
:10241C008BD8B2D81A50160287D81C6E2C501D6E51
:10242C001E6A1F6A1EC51FF51DC51EF51CC51DF5B0
:10243C001C6A1C5027261D5028221E5029221F5072
:10244C002A222650272693D877D8215022C51CF54E
:10245C001D6A1C26000E1D22820E1C242B6EFF0EE4
:10246C001D202C6E0FD0D8902736283629362A36C8
:10247C0026BE2780D89023362436253626362B06C2
:10248C00D8A02C0629AEEFD7216A26AE13D0235044
:10249C001C6E24501D6E25501E6E7F0E26141F6E52
:1024AC001C501D101E101F1003E0010E216E02D0D7
:1024BC0027B0FBD721500BE0272A59D82AA007D0E8
:1024CC002A342A322932283227322B4A2C2A2CBE83
:1024DC000AD02C5002E12B2806E3276A286A800ECA
:1024EC00296E7F0E15D02CBE04D02C5008E12B0485
:1024FC0006E2276A286A296A2A6A206A0AD02BC54A
:10250C0022F57F0E29162A6A22B0298ED890223005
:10251C002A6E20502A1227C514F528C515F529C591
:10252C0016F52AC517F512006100CCF32BF56100E6
:10253C00D0F32CF52B50120025C526F524C525F516
:10254C0023C524F5236A12002326000E24222522FB
:10255C0026222C502726000E282229222A22000C63
:10256C0023262C502422000E25222622000C000E9D
:10257C00282229222A22000C27262C502822000E41
:10258C0029222A22000C146A156A166A176A12008C
:10259C00186A196A1A6A1B6A12000550800B126EAF
:1025AC0005500524196E04BE1980195005E0192830
:1025BC0001E1D0D8048E03D0026A036A046A056A6A
:1025CC000950800B121A095009241A6E08BE1A8081
:1025DC001A5008E01A2804E1066A076A086A096AB0
:1025EC00088E03D0066A076A086A096A0650071043
:1025FC000810091010E1AED8800E04127F0E0512DF
:10260C001250051202C502F503C503F504C504F505
:10261C0005C505F51200195005E1026A036A046A42
:10262C00056A12001A5019C50AF50B6A0A5E000EEB
:10263C000B5A7F0E0A24136E000E0B20146E02C56B
:10264C000EF503C50FF504C510F505C511F582D8B7
:10265C00156A166A176A186A1A6A1BD01A5006E0AD
:10266C00D8900E360F361036113667D806500E5CE1
:10267C0007500F58085010580950115809E3188C7E
:10268C0006500E5E07500F5A0850105A0950115A36
:10269C001A2A190E1A64E2D70E500F1010101110CE
:1026AC0006E0158004D049D81306D8A0140604AE51
:1026BC00FAD71A6A18AE13D015500A6E16500B6E54
:1026CC0017500C6E7F0E18140D6E0A500B100C1058
:1026DC000D1003E0010E1A6E02D002B0FBD71A5097
:1026EC000EE0022A000E03220422052205A007D0C8
:1026FC0005340532043203320232134A142A14BE52
:10270C0007D0145002E1132803E3146A136822D88B
:10271C0014BE04D0145006E1130404E2136A146AC4
:10272C0019D8126A13C519F519A002D0048E01D05C
:10273C00049ED8901930056E63D7D89002360336B4
:10274C000436053618BE0280D89015361636173664
:10275C0018361200026A036A046A056A1200CAC5B6
:10276C002BF5CBC52CF5CCC52DF5CDC52EF51BC544
:10277C002BF51CC52CF51DC52DF51EC52EF5810E92
:10278C001F6E20682BC521F52CC522F52DC523F510
:10279C002EC524F5180E05D0D890243223322232BF
:1027AC002132E82EF9D721501F24296E000E20204B
:1027BC002A6E2ABE0ED02A5003E1170E295C09E3BB
:1027CC001BC51BF51CC51CF51DC51DF51EC51EF531
:1027DC0012002ABE47D029C51FF5206821687F0E3C
:1027EC00226E000E236E1F6601D007D023342332D5
:1027FC002232213220321F2EF6D720C525F521C5D5
:10280C0026F522C527F523C528F525502B141F6E58
:10281C0026502C14206E27502D14216E28502E1467
:10282C004FD8CEE044D801D051D8E82EFDD71F5058
:10283C0008E025502B2626502C2227502D222850DC
:10284C002E22251C1F6E261C206E271C216E281C78
:10285C00226E1F502B1620502C1621502D16225054
:10286C002E161CD024D801D031D8E82EFDD71F66E7
:10287C0005D02B6A2C6A2D6A2E6A10D0D8902B3476
:10288C001F6E2C34206E2D34216E2E3419D806E098
:10289C002B6A2C6A800E2D6EBF0E2E6E2BC51BF56F
:1028AC002CC51CF52DC51DF52EC51EF512002BC50E
:1028BC001FF52CC520F52DC521F52EC522F5200CB4
:1028CC00226E1F502010211022101200D89022329C
:1028DC00213220321F321200CFEC1AF0120E0301FB
:1028EC00EC6F070E0001A413A6513F0B8009A66FD5
:1028FC000501FD6BFC6BEC0E026E370E036EDFEC0C
:10290C001BF0340E026E340E036ED5EC1BF0D68E1B
:10291C00330E536E546E530E556E3A0E566E0501B1
:10292C00FC5110E0FC6B290EAD6F1EEC1BF058D85F
:10293C007CEC1BF0000E036A026AECEC1BF0F0EC72
:10294C001BF047D0FD5145E0FD6BA3EC1BF002C51D
:10295C0006F503C507F5086A096A000E8CEC15F03C
:10296C0006C514F507C515F508C516F509C517F5FF
:10297C0053C518F554C519F555C51AF556C51BF5AB
:10298C00BDEC11F014C557F515C558F516C559F51C
:10299C0017C55AF5010EC0A2000EFF0A526E524620
:1029AC00C0505218FD0B5218C06E160E0501AD6FBB
:1029BC001EEC1BF015D87CEC1BF0010EAD6F57C54F
:1029CC00AEF558C5AFF559C5B0F55AC5B1F57CECA7
:1029DC001BF0E8EC1BF00009FCE0030000F09FD7B3
:1029EC00526E52C5AEF50501AE51D8A4160EAF6F9E
:1029FC00120021EEE9F111EE12F1060EDBC4E3F444
:102A0C00E806FCE20FC51DF510C51EF51D501E1085
:102A1C0004E1120E1D6E050E1E6E1DC502F51EC5BF
:102A2C0003F58AEC19F002C521F503C522F5D6C5CC
:102A3C001FF5D7C520F520BE0DD021501F5C2050AE
:102A4C00800A116E2250800A115804E21FC521F52C
:102A5C0020C522F521C51FF522C520F5D4C51BF5CF
:102A6C00D5C51CF50501D8B108D005D047D8DCEC8C
:102A7C0018F0214A222A39D8F9E3196A1A6A1CD0AB
:102A8C00610074F4F6F4610078F4F7F4000EF86E5B
:102A9C00150EF76403D00800F55002D0A9EC19F01C
:102AAC00046E056A0DC506F50EC507F5DCEC18F0CD
:102ABC001D4A1E2A194A1A2A1F50195C1A50800ADC
:102ACC00116E2050800A1158DBE30501D8A108D003
:102ADC0005D014D8DCEC18F0214A222A06D8F9E3E8
:102AEC0021C50DF522C50EF512001B50215C22509C
:102AFC00800A116E1C50800A11581200056A200EB3
:102B0C00046E0DC506F50EC507F5200C0E6E0E50A5
:102B1C001CE009AE1AD006C50AF507C50BF508C5A9
:102B2C000CF509C50DF50A1E0B1E0C1E0D1E0A2AEE
:102B3C00000E0B220C220D220AC510F50BC511F547
:102B4C000CC512F50DC513F508D006C510F507C553
:102B5C0011F508C512F509C513F506500710081034
:102B6C00091005E1066A076A086A096A1200960EDE
:102B7C000F6E02D00F2A4AD80A6A0B6A0C6AFE0E34
:102B8C0013143ED808E0F6D70F2A102A000E112293
:102B9C00122213223BD80A6A0B6A0C6A135030D8E3
:102BAC0007E0F2D70F06D8901036113612361336CE
:102BBC0012BE03D0020E0F60F5D70FA0129ED89054
:102BCC000F320FC50AF50B6A0C6A0D6A0AC50DF5B2
:102BDC000C6A0B6A0A6A0A5010120B5011120C5034
:102BEC0012120D5013120E5002E009BE138E10C5B6
:102BFC0006F511C507F512C508F513C509F5120040
:102C0C000D6E0A500B100C100D101200D8901332D0
:102C1C001232113210321200166A176A0F6A106AD9
:102C2C0001D0092A010E156E67D81AEC10F0200A93
:102C3C000CE0F70E0B6E0C685FD81AEC10F060D835
:102C4C0003E1050E0D5C01E3156A15C511F5126A59
:102C5C001150121006E0E5D7106A010E0F6E092A0A
:102C6C0023D04AD81AEC10F00B6E0C6A0C501CE1F5
:102C7C000B502B0AF4E0060AEFE016D016C502F54D
:102C8C0017C503F5056A0A0E046EBAEC1AF034D8AF
:102C9C001AEC10F0025E000E035A300E0224166E6F
:102CAC00000E0320176EDBD7D00E0B6E0C6824D8E9
:102CBC001AEC10F025D805E10A0E0D5C02E2010EAB
:102CCC0001D0000E136E146A13501410D7E10F507C
:102CDC0010100DE116C50BF517C50CF50B1E0C1ECF
:102CEC000B4A0C2A0BC509F50CC50AF5120016C5C2
:102CFC0009F517C50AF51200610024F4F6F4120068
:102D0C000D6E0E6A0B500D260C500E220E5012003A
:102D1C00CEC50CF5CFC50DF5D0C50EF5D1C50FF54B
:102D2C0002C50CF503C50DF504C50EF505C50FF56B
:102D3C0039D8180E05D0D89009320832073206322D
:102D4C00E82EF9D706500A6E0B6A0A500B1013E1E5
:102D5C00D8900C34066E0D34076E0E34086E0F349A
:102D6C00096E29D804E1036A020E026E020C036A92
:102D7C00030E026E030C0A280B1010E113D8090E77
:102D8C00D8900636073608360936E82EF9D713D808
:102D9C00010ED8A4000E026E036A1200036A040E20
:102DAC00026E040C0CC506F50DC507F50EC508F52D
:102DBC000FC509F512000650071008100910120073
:102DCC00043405340B6E0B5005E1026A036A046A85
:102DDC00056A120002C506F503C507F504C508F51A
:102DEC0005C509F5200E05D0D890093208320732F6
:102DFC000632E82EF9D706500A6E048E056A960E36
:102E0C000B5E0BAE0CD00B50800A970FDEE3D89004
:102E1C0005320432033202320B3EF9D70CD01F0EAE
:102E2C000B6407D0D2D7D890023603360436053659
:102E3C000B060B50F8E10A5008E0051E041E031E99
:102E4C00026C000E03220422052202C502F503C502
:102E5C0003F504C504F505C505F51200356A366A97
:102E6C00800E2F14376E7F0E301438D804E12D6A83
:102E7C002E6A2F6A306A356A366A800E3314376EC2
:102E8C007F0E34142BD804E1316A326A336A346A07
:102E9C0030AE09D02D6C2E1ED8B02E2A2F1ED8B0D5
:102EAC002F2A800E305634AE09D0316C321ED8B079
:102EBC00322A331ED8B0332A800E3456800E301A84
:102ECC00341A31502D5C32502E5833502F58345008
:102EDC00305802E2D8901200D8801200386E35506B
:102EEC0036103710381012000501D8A103D035D890
:102EFC0075EC1AF019BE05D018C51DF519C51EF5CF
:102F0C0002D01D6A1E6A1B6A1C6A0BD0056A200E51
:102F1C00046E14C506F515C507F5DCEC18F01B4A54
:102F2C001C2A1D501B5C1C50800A1A6E1E50800AF5
:102F3C001A58ECE30501D8B103D00FD875EC1AF090
:102F4C0016C502F517C503F58AEC19F01D500224BD
:102F5C00146E1E500320156E120016C50DF517C504
:102F6C000EF514C50FF515C510F51200AC90000E3A
:102F7C00026A036AFBEC1BF0AC92000E026A036A55
:102F8C00FAEC1BF0AC94000E026A036AFCEC1BF02A
:102F9C00AC96000E026A036AF9EC1BF00201A16BFD
:102FAC00A26BA36BA46BA56BA66BA76BA86BA96B91
:102FBC00AA6BA00EAB6F800EAC6FAD6B190EAE6F23
:102FCC00AF6BB06BB16BB26BB36B000E026A036A82
:102FDC00CBEC1BF0000E026A036AC6EC1BF0000E71
:102FEC00026A036AD0EC1BF05B6A120002C508F59A
:102FFC0003C509F504C50AF50506D8A0060605287B
:10300C000BE1062809E1026A036A1200084A092A40
:10301C000A2A0506D8A006061ED80EE018D81AEC07
:10302C0010F00AE00550061007E015D8076E0FD80F
:10303C001AEC10F00718EAE00ED8076E08D81AEC54
:10304C0010F0075C026E036AD8A003061200610040
:10305C0028F4F6F41200610020F4D9F4610024F491
:10306C00DAF4DF501200076A05AE06D0046C051EB8
:10307C00D8B0052A010E076E03AE06D0026C031EF3
:10308C00D8B0032A010E071A086A096A0450051001
:10309C001BE0010E066E04D0D89004360536062AC5
:1030AC0005AEFAD7D890083609360450025C0550A4
:1030BC00035805E30450025E0550035A0880D8906B
:1030CC0005320432062EEED7075004E0086C091EB8
:1030DC00D8B0092A08C502F509C503F51200076A1C
:1030EC0003AE06D0026C031ED8B0032A010E076E85
:1030FC0005AE04D0046C051ED8B0052A045005108A
:10310C0017E0010E066E04D0D89004360536062A58
:10311C0005AEFAD70450025C0550035804E3045082
:10312C00025E0550035AD89005320432062EF2D7AF
:10313C00075004E0026C031ED8B0032A02C502F546
:10314C0003C503F51200BE6ABF6AC06A3F0EC66EA5
:10315C00700EC76EFD0EC86E370E0401006F500E58
:10316C00086FFC0E106F016B096B010E116F026B77
:10317C000A6B126B370E036FF00E0B6F13693F0E59
:10318C00046FF00E0C6F1469100E0201616F0D0EBE
:10319C00726F100E106F0401056B066B076B0D6BD5
:1031AC000E6B0F6B156B166B176B1200065007101E
:1031BC0003E00650071003E10450E4EF1BF01ED8A7
:1031CC00DE50DE1011E01AD810EE02F00650E126A7
:1031DC000750E222DE50E65CE650800A0C6EDE50B0
:1031EC00800A0C58D8B0120020EE02F00650D926F6
:1031FC000750DA22DE2A000EDD22000C20EE04F04D
:10320C000650D9260750DA2212000A6A0B6A800E81
:10321C0004140C6E7F0E051420D804E1026A036AB4
:10322C00046A056A0A6A0B6A800E08140C6E7F0E1B
:10323C00091413D802E1F0EC0EF00650021809E163
:10324C000750031806E10850041803E1095005184B
:10325C0002E0D8901200D88012000D6E0A500B10AC
:10326C000C100D10120004C508F505C509F502C5B2
:10327C000AF503C50BF50850066E0950076E084A8F
:10328C00092A610018F4F6F461001CF4F7F4000E3E
:10329C00F86E610028F4D9F461002CF4DAF40A4ACF
:1032AC000B2A150EF76403D00800F55002D0A9ECD8
:1032BC0019F0DF6EDF50DFE112006E0EF66E370E86
:1032CC00F76E000EF86E01EEE0F110EE10F0090052
:1032DC00F5C4EEF4E550E150FAE101EE00F2500EC7
:1032EC00EE6AE806FDE101EEB2F12E0EEE6AE8069A
:1032FC00FDE15B6A0401080E5D6F000E5E6F000E4F
:10330C005F6F000172EF14F002C504F503C505F5FB
:10331C0002D0024A032A610008F4F6F461000CF4AE
:10332C00F7F4000EF86E150EF76403D00800F55094
:10333C0001D009D80009EDE10450025C026E055081
:10334C000358036E1200F6C4E9F4F7C4EAF4EF5024
:10335C0012000301D96BDA6BDB6BDC6BDF6BE06BA0
:10336C00E56BE76BEC6B060EEE6FEF6BF06BF16BD6
:10337C00F26BF46B100EF56FF66BF76BF86B020ECD
:10338C00F96FFA6B940EF36FB494040E026E380E50
:10339C00036EDFEC1BF0A984B5901200AAC54FF5A3
:1033AC00D26BD36B13D0A8C545F5A9C546F54F0E06
:1033BC00476E050E486EABC549F5ACC54AF5F5EC44
:1033CC000EF045500501D2274650D32361003CF541
:1033DC00F6F41AEC10F0E7E1D2C5A8F5D3C5A9F5BF
:1033EC001200BF0E0A6E0B6808C50CF509C50DF569
:1033FC000A500C260B500D220D5005E11A0E0C5CD8
:10340C0002E2010E01D0000E0E6E0F6A0E500F106C
:10341C0006E0200E0810086E0950096E120008C54F
:10342C0008F509C509F51200010EFC6FF3EC1BF051
:10343C000001A3A707D0A487A5518F0B1009A56F76
:10344C00A3971200A439070B070A06E18F0EA417E5
:10345C00A497A517A3878F0CA439070B016E012A1B
:10346C00013AA45101188F0B0118A46F1200800EA1
:10347C00341A2DC502F52EC503F52FC504F530C53C
:10348C0005F531C506F532C507F533C508F534C564
:10349C0009F590EC10F002C52DF503C52EF504C509
:1034AC002FF505C530F51200010E086E200E02181E
:1034BC00031011E0F70E046E056802C506F503C58E
:1034CC0007F50450062605500722075003E1050EA8
:1034DC00065C01E3086A08C502F5036A1200126A69
:1034EC00136A0BD011C504F5056A0FC506F510C596
:1034FC0007F5DCEC18F0124A132A12500D24D96E81
:10350C0013500E20DA6EDF50116E1150EBE11200E9
:10351C00BF0E046E056802C506F503C507F5045019
:10352C00062605500722075005E11A0E065C02E23A
:10353C00010E01D0000E026E036A1200D00E046E52
:10354C00056802C506F503C507F5045006260550A7
:10355C000722075005E10A0E065C02E2010E01D0BB
:10356C00000E026E036A1200025004026100CCF3DA
:10357C0006F56100D0F307F502500502F35007265B
:10358C0003500402F350072606C502F507C503F5E0
:10359C0012008AEC1BF0A9EC18F0AFEC19F00BEC54
:1035AC001BF04FEC1BF0AEEC1BF03FEC1BF0E3EC14
:1035BC001AF0BCEC17F0F7EF1AF0040E206F110E96
:1035CC001F6F0F0E216F1D691C6B000E026E380EE3
:1035DC00036ED5EC1BF0B696AB86800E03011E6F06
:1035EC00800CD69AB490D680000E026A036AFFEC67
:1035FC001BF0B990D682000E026A036AFEEC1BF037
:10360C00BD90D684026A036A000C0001D56BD76B9F
:10361C00060ED86FD96BDA6BDB6B020EDC6F080E03
:10362C0000D0DD6FDE6BDF6BD46B840ED66F840C39
:10363C00056A0001A3B705D0A439070B046E042852
:10364C00056EE00E0524D96EDA6A050EDA22DF501B
:10365C001200025003100410051002E0800E051A2F
:10366C0002C502F503C503F504C504F505C505F54A
:10367C001200780E0301196F186B980E1B6F020E57
:10368C00026E380E036EDAEC1BF0B69E800E1A6FCB
:10369C00800C010ED56F020ED76F220ED86F060E5E
:1036AC00D96FDA6BDB6B080EDC6F110E17EF1BF0AA
:1036BC00B6960501F651F711D8B412000500FA6E52
:1036CC00F651FD6EF751FE6EFF6AFA501200B4947B
:1036DC000501FA51FB11D8B412000500FA6EFA512B
:1036EC00FD6EFB51FE6EFF6AFA501200AE0E506E6C
:1036FC00050E516EA86BA96BADC5AAF5500EAB6F3C
:10370C00050EAC6FD4EF19F0620E0001AD6F700EA8
:10371C00AE6FAF6BB36B020EB16FB26BB06BAC6BC9
:10372C001200A9B4B4A403D06DEC1BF01100ABB61D
:10373C00B6A611005EEC1BF011000301EB51056EF7
:10374C00046AEA510424026E000E0520036E120076
:10375C00A46B020EA56FA66FA76BA96BA80EA36F27
:10376C00A80C64443F3A6649426861286E756C6CDB
:10377C002900026EB7A2FED7610008F4A3F2120072
:10378C0002C5F2F503C5F3F5120002C5F4F503C545
:10379C00F5F5120002C5F0F503C5F1F5120002C5EE
:1037AC00F6F503C5F7F5120002C5F8F503C5F9F5F2
:1037BC00120002C5FAF503C5FBF51200036E0350A7
:1037CC00BFEF1BF00201B2BF010C000C610008F44A
:1037DC0018F3120003011A8F120003011A9F120032
:1037EC00010EFD6F010C12001200120012001200EB
:0A37FC001200120012001200120069
:020000040020DA
:10000000FF0FFF0FFF0FFF0FFF0FFF0FFF0FFF0F80
:10001000FF0FFF0FFF0FFF0FFF0FFF0FFF0FFF0F70
:020000040030CA
:0A000000ECFFF7FF9FFFFFFFFFFF7B
:00000001FF
