:040000000DEF00F010
:04000800A4EF20F051
:06001800FF007EEF21F065
:1016000000CA40000000000E4900001C47A6480028
:1016100000000000000000000000000000000000CA
:1016200000000000000000000038481C480048008E
:1016300000F046000000000000D2480000BE47262F
:10164000492C490000DC4800004D656173757265E6
:10165000643A2025312E3366560A0D0A0D00437573
:101660007272656E74204761696E3A2025730A0DA7
:10167000004E6577204761696E3A2025730A0D0A8E
:101680000D00312E333300312E313400312E3037FE
:1016900000322E363700696E66006E616E006C6C2B
:1016A000730031360031003200380000000E0501B1
:1016B000816F3EC582F53FC583F540C584F541C5C0
:1016C00085F585BF68EF0BF066EF0BF07CEF0BF054
:1016D000010E816F82C505F583C506F584C507F542
:1016E00085C508F5ACEC22F005C582F506C583F585
:1016F00007C584F508C585F5000E0501876F000E46
:10170000866F57C571F558C572F58151D8B48BEF06
:101710000BF08DEF0BF0A1EF0BF08151D8A493EFFC
:101720000BF095EF0BF09BEF0BF0000E676F2B0E9D
:10173000666F9FEF0BF0000E676F2D0E666F66C52C
:1017400081F582C505F583C506F584C507F585C510
:1017500008F532EC1EF005040610D8A4B2EF0BF029
:10176000B4EF0BF0E7EF0BF005018151D8B4BBEFFC
:101770000BF0BDEF0BF0C6EF0BF081C500F6710763
:10178000D8A07207000E876F010E866F000E8625A7
:10179000056E060E8721066E960E076E160E086EF3
:1017A0008BEC22F00501FD0E7127FF0E72233CC564
:1017B00017F53DC518F5000E196E060E1A6E71C5A7
:1017C0001BF572C51CF526EC1FF066EF10F082C504
:1017D00005F583C506F584C507F585C508F532EC22
:1017E0001EF005500610D8A4F8EF0BF0FAEF0BF03E
:1017F0002DEF0CF005018151D8B401EF0CF003EF8F
:101800000CF00CEF0CF081C500F67107D8A0720740
:10181000000E876F010E866F000E8625056E060E80
:101820008721066E9A0E076E160E086E8BEC22F05C
:101830000501FD0E7127FF0E72233CC517F53DC54E
:1018400018F5000E196E060E1A6E71C51BF572C5DD
:101850001CF526EC1FF066EF10F0000E0501886FF6
:10186000000E896F800E8A6F3F0E8B6F000E706FB7
:10187000000E6F6F82C505F583C506F584C507F5B3
:1018800085C508F5000E096E000E0A6E000E0B6E7F
:10189000000E0C6E7BEC1FF0D8B051EF0CF053EF44
:1018A0000CF032EF0DF060EF0CF073C588F574C5E5
:1018B00089F575C58AF576C58BF505016F4B702BDB
:1018C00088C517F589C518F58AC519F58BC51AF5A8
:1018D000000E1B6E000E1C6E200E1D6E410E1E6E45
:1018E00039EC15F017C573F518C574F519C575F5FC
:1018F0001AC576F505017351825D056E74518359E1
:10190000066E75518459076E76518559086E4BECF9
:1019100021F008BE97EF0CF008500710061009E1FF
:10192000020E055CD8A097EF0CF099EF0CF055EF84
:101930000CF073C530F574C531F575C532F576C553
:1019400033F582C534F583C535F584C536F585C5CF
:1019500037F5B0EC1DF0D8A0B0EF0CF0B2EF0CF002
:1019600055EF0CF005018851825D056E8951835950
:10197000066E8A518459076E8B518559086E4BEC5F
:1019800021F008BED1EF0CF008500710061007E157
:10199000020E055CD8B0CFEF0CF0D1EF0CF019EFD0
:1019A0000DF088C582F589C583F58AC584F58BC598
:1019B00085F532EF0DF088C505F589C506F58AC5B0
:1019C00007F58BC508F5000E096E000E0A6E200E95
:1019D0000B6E410E0C6E4EEC17F005C588F506C572
:1019E00089F507C58AF508C58BF505016F07D8A0ED
:1019F00070078851825D056E89518359066E8A5140
:101A00008459076E8B518559086E4BEC21F008BE46
:101A100017EF0DF008500710061007E1020E055CE5
:101A2000D8B015EF0DF017EF0DF019EF0DF0D1EF65
:101A30000CF082C530F583C531F584C532F585C516
:101A400033F588C534F589C535F58AC536F58BC5B6
:101A500037F5B0EC1DF0D8A030EF0DF032EF0DF0FF
:101A6000DBEF0CF042C569F569C56AF55ABE3BEF7C
:101A70000DF03DEF0DF043EF0DF059C562F55AC57D
:101A800063F548EF0DF0000E0501636F060E626FFF
:101A900062C56DF563C56EF505016D4B6E2B660E67
:101AA0006A19D8A456EF0DF058EF0DF078EF0DF04D
:101AB00070BF5FEF0DF05DEF0DF06BEF0DF0000EFE
:101AC000886F000E896F800E8A6F3F0E8B6F000E3D
:101AD000706F000E6F6F670E6919D8B472EF0DF05A
:101AE00074EF0DF078EF0DF06F516D2770516E238C
:101AF000000E786F000E776F82C579F583C57AF591
:101B000084C57BF585C57CF588C573F589C574F5F5
:101B10008AC575F58BC576F509EF0EF079C505F523
:101B20007AC506F57BC507F57CC508F588C509F5B6
:101B300089C50AF58AC50BF58BC50CF54EEC17F077
:101B400005C51EF506C51FF507C520F508C521F515
:101B50001BEC19F01EC57DF51FC57EF520C57FF570
:101B600021C580F57DC505F57EC506F57FC507F560
:101B700080C508F52DEC1DF005C56BF506C56CF5A7
:101B800079C530F57AC531F57BC532F57CC533F5BD
:101B90007DC51BF57EC51CF57FC51DF580C51EF5F1
:101BA00088C517F589C518F58AC519F58BC51AF5C5
:101BB00039EC15F017C534F518C535F519C536F5E6
:101BC0001AC537F523EC22F030C579F531C57AF521
:101BD00032C57BF533C57CF588C505F589C506F5A5
:101BE0008AC507F58BC508F5000E096E000E0A6E52
:101BF000200E0B6E410E0C6E4EEC17F005C588F5ED
:101C000006C589F507C58AF508C58BF50501774B2B
:101C1000782B6D51775D7851800A436E6E51800A42
:101C20004358D8A016EF0EF018EF0EF08EEF0DF01F
:101C300088C517F589C518F58AC519F58BC51AF534
:101C4000000E1B6E000E1C6EA00E1D6E400E1E6E52
:101C500039EC15F017C57DF518C57EF519C57FF56A
:101C60001AC580F579C530F57AC531F57BC532F5F1
:101C70007CC533F57DC534F57EC535F57FC536F5B4
:101C800080C537F5B0EC1DF0D8B049EF0EF04BEF42
:101C90000EF056EF0EF0000E05017D6F000E7E6F08
:101CA000000E7F6F000E806F7FEF0EF079C505F597
:101CB0007AC506F57BC507F57CC508F57DC509F530
:101CC0007EC50AF57FC50BF580C50CF57BEC1FF0D2
:101CD000D8A06DEF0EF06FEF0EF07FEF0EF0050164
:101CE0006BB175EF0EF077EF0EF07FEF0EF0000E98
:101CF0007D6F000E7E6F000E7F6F000E806F82C5BD
:101D000005F583C506F584C507F585C508F57DC5C8
:101D100009F57EC50AF57FC50BF580C50CF5D9EC34
:101D200012F005C579F506C57AF507C57BF508C536
:101D30007CF579C530F57AC531F57BC532F57CC5C2
:101D400033F5000E1B6E000E1C6E200E1D6E410E34
:101D50001E6E73C517F574C518F575C519F576C5EA
:101D60001AF539EC15F017C534F518C535F519C550
:101D700036F51AC537F5B0EC1DF0D8A0C2EF0EF05D
:101D8000C4EF0EF0EDEF0EF005016F4B702B73C535
:101D900017F574C518F575C519F576C51AF5000E51
:101DA0001B6E000E1C6E200E1D6E410E1E6E39EC59
:101DB00015F017C573F518C574F519C575F51AC56D
:101DC00076F5660E05016A19D8A4E9EF0EF0EBEF7F
:101DD0000EF0EDEF0EF06D4B6E2B73C588F574C5EC
:101DE00089F575C58AF576C58BF56FC560F570C543
:101DF00061F5000E0501686F000E656F000E646FDF
:101E0000000E786F000E776FEBEF0FF079C505F5D8
:101E10007AC506F57BC507F57CC508F588C509F5C3
:101E200089C50AF58AC50BF58BC50CF54EEC17F084
:101E300005C51EF506C51FF507C520F508C521F522
:101E40001BEC19F01EC57DF51FC57EF520C57FF57D
:101E500021C580F57DC505F57EC506F57FC507F56D
:101E600080C508F52DEC1DF006BE42EF0FF00650C0
:101E700007E10A0E055CD8B040EF0FF042EF0FF01B
:101E800052EF0FF07DC505F57EC506F57FC507F558
:101E900080C508F52DEC1DF005C56BF506C56CF584
:101EA00057EF0FF0000E05016C6F090E6B6F050107
:101EB0006851D8A45EEF0FF060EF0FF088EF0FF0DD
:101EC00061BF67EF0FF065EF0FF088EF0FF0000EC6
:101ED0008625D96E060E8721DA6E2E0EDF6E864BB2
:101EE000872B7107D8A07207010E686F88EF0FF07B
:101EF000000E8625D96E060E8721DA6E300EDF6E53
:101F0000864B872B7107D8A072076407D8A0650796
:101F100064516511D8A48FEF0FF091EF0FF078EFB7
:101F20000FF0000E8625D96E060E8721DA6E6B51F2
:101F3000300FDF6E864B872B7107D8A0720779C5EB
:101F400030F57AC531F57BC532F57CC533F57DC5F5
:101F50001BF57EC51CF57FC51DF580C51EF588C522
:101F600017F589C518F58AC519F58BC51AF539EC29
:101F700015F017C534F518C535F519C536F51AC568
:101F800037F523EC22F030C579F531C57AF532C545
:101F90007BF533C57CF588C505F589C506F58AC589
:101FA00007F58BC508F5000E096E000E0A6E200EAF
:101FB0000B6E410E0C6E4EEC17F005C588F506C58C
:101FC00089F507C58AF508C58BF505016007D8A016
:101FD0006107774B782B6D51775D7851800A436E9E
:101FE0006E51800A4358D8B0F8EF0FF0FAEF0FF0B7
:101FF00008EF10F087BF06EF10F0875109E14B0E94
:10200000865DD8A006EF10F008EF10F006EF0FF095
:10201000000E786F4F0E776F000E7725D96E060E83
:102020007821DA6E000EDF6E000E436E060E446EEF
:102030008651435E8751445A77514324056E785147
:102040004420066E000E076E060E086E86C509F562
:1020500087C50AF5FBEC21F005018651775D866F97
:1020600087517859876F8151D8A439EF10F03CEF30
:1020700010F0010E3DEF10F0000E776F786B81517C
:10208000D8B445EF10F047EF10F052EF10F086078C
:10209000D8A08707000E8625D96E060E8721DA6E36
:1020A00081C5DFF47751715F7851725B3CC517F5DC
:1020B0003DC518F5000E8625196E060E87211A6E8D
:1020C00071C51BF572C51CF526EC1FF012008EC5FC
:1020D000D9F48FC5DAF4DEC4F6F4DDC4F7F4F86A97
:1020E0000800F550250AD8A478EF10F07AEF10F028
:1020F000C3EF12F08EC5D9F48FC5DAF4DE2A000ED4
:10210000DD22000E586E000E576E57C55BF55968FC
:102110005A688EC5D9F48FC5DAF4DEC4F6F4DDC48E
:10212000F7F4F86A0800F5502A0AD8A49AEF10F0DC
:102130009CEF10F0C5EF10F08EC5D9F48FC5DAF41E
:10214000DE2A000EDD2290C5D9F491C5DAF4DFC491
:1021500045F5020EDE26DFC446F5000EDD2245C53C
:10216000D9F446C5DAF4DEC457F5DDC458F558BED7
:10217000BEEF10F0BCEF10F0F9EF10F05B80576C81
:10218000581ED8B0582AF9EF10F08EC5D9F48FC573
:10219000DAF4DEC40BF5DDC40CF583EC1CF00BC5E2
:1021A00057F50CC558F5DCEF10F08EC5D9F48FC586
:1021B000DAF4DE2A000EDD228EC5D9F48FC5DAF4FA
:1021C000DEC4F6F4DDC4F7F4F86A0800F5C445F59A
:1021D000D00E4524466E476AFF0E4722475009E15C
:1021E0000A0E465CD8A0F7EF10F0F9EF10F0D5EF2B
:1021F00010F08EC5D9F48FC5DAF4DEC4F6F4DDC470
:10220000F7F4F86A0800F5502E0AD8A40AEF11F086
:102210000CEF11F07BEF11F0000E5A6E000E596EAC
:102220008EC5D9F48FC5DAF4DE2A000EDD228EC504
:10223000D9F48FC5DAF4DEC4F6F4DDC4F7F4F86A35
:102240000800F5502A0AD8A428EF11F02AEF11F05F
:1022500047EF11F08EC5D9F48FC5DAF4DE2A000EEF
:10226000DD2290C5D9F491C5DAF4DFC445F5020E3C
:10227000DE26DFC446F5000EDD2245C5D9F446C58D
:10228000DAF4DEC459F5DDC45AF57BEF11F08EC5E2
:10229000D9F48FC5DAF4DEC40BF5DDC40CF583EC9C
:1022A0001CF00BC559F50CC55AF55EEF11F08EC543
:1022B000D9F48FC5DAF4DE2A000EDD228EC5D9F4FA
:1022C0008FC5DAF4DEC4F6F4DDC4F7F4F86A08006A
:1022D000F5C445F5D00E4524466E476AFF0E4722E9
:1022E000475009E10A0E465CD8A079EF11F07BEF68
:1022F00011F057EF11F08EC5D9F48FC5DAF4DEC4B2
:10230000F6F4DDC4F7F4F86A0800F550730AD8B49F
:102310008CEF11F08EEF11F0A9EF11F08EC5D9F40A
:102320008FC5DAF4DEC405F5DDC406F59E0E076E32
:10233000160E086E000E0A6E030E096EB1EC1EF04A
:1023400005500610D8A4A7EF11F0A9EF11F0EAEF9D
:1023500011F08EC5D9F48FC5DAF4DEC4F6F4DDC40D
:10236000F7F4F86A0800F550730AD8B4BAEF11F020
:10237000BCEF11F0C2EF11F0000E516E030E506E63
:10238000C6EF11F0000E516E010E506E8EC5D9F4DD
:102390008FC5DAF45050DE265150DD228CC510F581
:1023A0008DC511F590C5D9F491C5DAF4DFC445F5B2
:1023B000020EDE26DFC446F5000EDD2245C5D9F447
:1023C00046C5DAF4DEC412F5DDC413F5FEEC1AF0EE
:1023D000D8EF12F08EC5D9F48FC5DAF4DEC453F508
:1023E000DDC454F553C5F6F454C5F7F4F86A080093
:1023F000F5C452F508EF12F0534A542A21EF12F0B7
:102400006C0E526E21EF12F0000E526E21EF12F0A0
:102410005250456E466A4650000AD8B412EF12F088
:1024200004EF12F045504C0AD8B4FCEF11F02A0A20
:10243000D8B400EF12F00A0AD8B4FCEF11F004EFA0
:1024400012F053C5F6F454C5F7F4F86A0800F550D5
:10245000660AD8A42EEF12F030EF12F0BAEF12F0A5
:1024600066EF12F090C5D9F491C5DAF4DFC445F5F2
:10247000040EDE26DFC446F5000EDD2245C5D9F484
:1024800046C5DAF4DEC448F5DEC449F5DEC44AF5D3
:10249000DEC44BF57BEF12F090C5D9F491C5DAF4A8
:1024A000DFC445F5040EDE26DFC446F5000EDD224E
:1024B00045C5D9F446C5DAF4DEC448F5DEC449F5AD
:1024C000DEC44AF5DEC44BF57BEF12F05250456E88
:1024D000466A4650000AD8B470EF12F07BEF12F053
:1024E00045504C0AD8B44CEF12F0200AD8B432EF61
:1024F00012F07BEF12F0010E5324456E000E5420B3
:10250000466E8EC5D9F48FC5DAF445C5DEF446C5EE
:10251000DDF4A3EF12F08CC53CF58DC53DF548C543
:102520003EF549C53FF54AC540F54BC541F553C594
:10253000F6F454C5F7F4F86A0800F5C442F556EC11
:102540000BF0D8EF12F053C5F6F454C5F7F4F86A5F
:102550000800F550456E466A4650000AD8B4B3EFFD
:1025600012F0BAEF12F04550660AD8B48BEF12F0B1
:10257000BAEF12F08EC5D9F48FC5DAF4DE2A000E58
:10258000DD22D8EF12F08EC5D9F48FC5DAF4DEC49F
:10259000F6F4DDC4F7F4F86A0800F550076E086A2F
:1025A0008CC509F58DC50AF5D0EC1FF0BAEF12F015
:1025B00012000850800B116E08500824136E07AEED
:1025C000E4EF12F0E6EF12F0E7EF12F01380135091
:1025D000D8B4EDEF12F0EFEF12F004EF13F0132880
:1025E000D8A4F5EF12F0F7EF12F0FFEF12F0000EA3
:1025F000056E000E066E000E076E000E086E078E4A
:10260000000E086E0CEF13F0000E056E000E066E45
:10261000000E076E000E086E0C50800B126E1150EB
:102620001218D8B416EF13F018EF13F019EF13F0D7
:10263000118C0C500C24126E0BAE21EF13F023EF13
:1026400013F024EF13F012801250D8B42AEF13F0D5
:102650002CEF13F041EF13F01228D8A432EF13F04F
:1026600034EF13F03CEF13F0000E096E000E0A6E0B
:10267000000E0B6E000E0C6E0B8E000E0C6E49EFF2
:1026800013F0000E096E000E0A6E000E0B6E000EA7
:102690000C6E1350125CD8B050EF13F052EF13F0E1
:1026A00079EF13F011AC57EF13F059EF13F05BEF24
:1026B00013F0800E111A13C514F512C513F514C5C5
:1026C00012F505C514F509C505F514C509F506C5C6
:1026D00014F50AC506F514C50AF507C514F50BC5AA
:1026E00007F514C50BF508C514F50CC508F514C598
:1026F0000CF5000E146E135012C50DF50E6A0D5E2A
:10270000000E0E5A0EBE8EEF13F00E5009E11A0E97
:102710000D5CD8A08EEF13F090EF13F0C7EF13F01D
:102720000550061007100810D8A499EF13F09CEF7D
:1027300013F0010E9DEF13F0000E146E000E056EE7
:10274000000E066E000E076E000E086E12C513F521
:10275000D0EF13F014A0AFEF13F0B1EF13F0B7EF19
:1027600013F0D89014300109146EB9EF13F0D8901B
:10277000143205A0BEEF13F0C0EF13F0C1EF13F059
:10278000148E08340832073206320532132A1250EA
:10279000135CD8A0CEEF13F0D0EF13F0AAEF13F034
:1027A00011BCD5EF13F0D7EF13F017EF14F013505F
:1027B000D8A4DDEF13F0DFEF13F0E9EF13F0000E14
:1027C000056E000E066E000E076E000E086E38EFE6
:1027D00015F0095005260A5006220B5007220C500E
:1027E000082208A0F6EF13F0F8EF13F0A4EF14F0AE
:1027F00014A0FDEF13F0FFEF13F005EF14F0D890E5
:1028000014300109146E07EF14F0D890143205A0AB
:102810000CEF14F00EEF14F00FEF14F0148E0834D8
:102820000832073206320532132AA4EF14F0095099
:10283000055C0A5006580B5007580850800A0D6E68
:102840000C50800A0D58D8B028EF14F02AEF14F07D
:1028500055EF14F00550095C0D6E06500A580E6EC7
:1028600007500B580F6E08500C58106EFF0E0D24B9
:10287000056EFF0E0E20066EFF0E0F20076EFF0E78
:102880001020086E800E111A146C1450D8A44BEF4F
:1028900014F04DEF14F05DEF14F0010E0526000E5C
:1028A0000622072208225DEF14F00950055E0A5047
:1028B000065A0B50075A0C50085A055006100710BC
:1028C0000810D8A466EF14F068EF14F09DEF14F030
:1028D0001450D8A46EEF14F070EF14F09DEF14F0C4
:1028E000000E056E000E066E000E076E000E086EDE
:1028F00038EF15F0D890053606360736083614AE90
:1029000084EF14F086EF14F087EF14F0058014A024
:102910008CEF14F08EEF14F092EF14F0D880143690
:1029200094EF14F0D89014361350D8B49AEF14F0F2
:102930009CEF14F09DEF14F0130607AEA2EF14F015
:10294000A4EF14F07AEF14F0000E126E14AEABEF99
:1029500014F0ADEF14F0C5EF14F014C50DF57F0EB3
:102960000D16D8B4B6EF14F0B8EF14F0BCEF14F0B5
:10297000010E126EC5EF14F005A0C1EF14F0C3EF05
:1029800014F0C5EF14F0B8EF14F01250D8B4CBEF38
:1029900014F0CDEF14F0F8EF14F0010E0526000E40
:1029A00006220722082208A0D8EF14F0DAEF14F06C
:1029B000F8EF14F005C50DF506C50EF507C50FF5C2
:1029C00008C510F5103410320F320E320D320DC51D
:1029D00005F50EC506F50FC507F510C508F5132852
:1029E000D8B4F5EF14F0F7EF14F0F8EF14F0132A61
:1029F0001328D8B4FEEF14F000EF15F008EF15F02F
:102A00001350D8A406EF15F008EF15F01AEF15F0E3
:102A1000000E056E000E066E000E076E000E086EAC
:102A20001350D8A416EF15F018EF15F01AEF15F0A3
:102A3000000E116E13A01FEF15F021EF15F024EF1B
:102A400015F0078E25EF15F0079ED8901330086E0D
:102A500011AE2DEF15F02FEF15F030EF15F0088EB9
:102A600005C505F506C506F507C507F508C508F54A
:102A700012001A50800B236E1A501A24296E19AEB8
:102A800044EF15F046EF15F047EF15F02980295077
:102A9000D8B44DEF15F04FEF15F062EF15F029287F
:102AA000D8A455EF15F057EF15F05FEF15F0000EB5
:102AB000176E000E186E000E196E000E1A6E198E2B
:102AC0006AEF15F0000E176E000E186E000E196EEC
:102AD000000E1A6E1E50800B231A1E501E24246EE8
:102AE0001DAE75EF15F077EF15F078EF15F0248037
:102AF0002450D8B47EEF15F080EF15F093EF15F069
:102B00002428D8A486EF15F088EF15F090EF15F083
:102B1000000E1B6E000E1C6E000E1D6E000E1E6E53
:102B20001D8E9BEF15F0000E1B6E000E1C6E000E2E
:102B30001D6E000E1E6E2450D8B4A1EF15F0A3EF49
:102B400015F0ABEF15F02950D8A4A9EF15F0ABEFB5
:102B500015F0B5EF15F0000E176E000E186E000E92
:102B6000196E000E1A6E4DEF17F01D501702F3C4C8
:102B70002EF5F4C42FF52E50256E266A276A286A92
:102B80002F502A6E2B6A2C6A2D6A1C501802F3C42F
:102B90002EF5F4C42FF52E502526000E26222722CE
:102BA00028222F502A26000E2B222C222D221B50A9
:102BB0001902F3C42EF5F4C42FF52E502526000E6D
:102BC0002622272228222F502A26000E2B222C22B2
:102BD0002D2227C528F526C527F525C526F5256A02
:102BE0001B501802F3C42EF5F4C42FF52E502526E1
:102BF0002F502622000E2722000E28221C501702DA
:102C0000F3C42EF5F4C42FF52E5025262F5026227E
:102C1000000E2722000E282227C528F526C527F5F5
:102C200025C526F5256A1B501702F3C42EF5F4C4FA
:102C30002FF52E5025262F502622000E2722000E7B
:102C400028221D501802F3C42EF5F4C42FF52E507F
:102C50002A262F502B22000E2C22000E2D221C5033
:102C60001902F3C42EF5F4C42FF52E502A262F5046
:102C70002B22000E2C22000E2D221D501902F3C40F
:102C80002EF5F4C42FF52E501F6E2F50206E216AA2
:102C9000226A21C522F520C521F51FC520F51F6A2E
:102CA0001F502A2620502B2221502C2222502D2228
:102CB00025C51FF526C520F527C521F528C522F510
:102CC000190E68EF16F0D8902232213220321F32CE
:102CD000E82E63EF16F01F502A2620502B22215099
:102CE0002C2222502D2227C528F526C527F525C5DB
:102CF00026F5256A245029C51FF5206A1F26000ED7
:102D00002022820E1F242E6EFF0E20202F6E9EEF9B
:102D100016F0D8902A362B362C362D3628AE93EF67
:102D200016F095EF16F096EF16F02A80D89025361B
:102D30002636273628362E06D8A02F062CAEA3EF2F
:102D400016F0A5EF16F089EF16F0000E246E28AEEF
:102D5000ACEF16F0AEEF16F0D2EF16F0FF0E251422
:102D60001F6EFF0E2614206EFF0E2714216E7F0E9D
:102D70002814226E1F50201021102210D8B4C3EF47
:102D800016F0C5EF16F0C9EF16F0010E246ED2EF63
:102D900016F02AA0CEEF16F0D0EF16F0D2EF16F014
:102DA000C5EF16F02450D8B4D8EF16F0DAEF16F0CD
:102DB000FEEF16F0010E2A26000E2B222C222D22C9
:102DC0002DA0E5EF16F0E7EF16F0FEEF16F02AC59E
:102DD0001FF52BC520F52CC521F52DC522F5223474
:102DE0002232213220321F321FC52AF520C52BF591
:102DF00021C52CF522C52DF52E4A2F2A2FBE09EF0D
:102E000017F02F5008E12E28D8A009EF17F00BEF8C
:102E100017F015EF17F0000E2A6E000E2B6E800EC5
:102E20002C6E7F0E2D6E43EF17F02FBE22EF17F0A2
:102E30002F5006E12E04D8B020EF17F022EF17F044
:102E40002EEF17F0000E2A6E000E2B6E000E2C6E69
:102E5000000E2D6E000E236E43EF17F02EC529F5E0
:102E6000FF0E2A16FF0E2B167F0E2C16000E2D16A7
:102E700029A03DEF17F03FEF17F040EF17F02C8E31
:102E8000D89029302D6E23502D122AC517F52BC549
:102E900018F52CC519F52DC51AF512000850800B30
:102EA000156E085008241C6E07AE59EF17F05BEF43
:102EB00017F05CEF17F01C801C50D8B462EF17F0CD
:102EC00064EF17F079EF17F01C28D8A46AEF17F019
:102ED0006CEF17F074EF17F0000E056E000E066E23
:102EE000000E076E000E086E078E000E086E81EF52
:102EF00017F0000E056E000E066E000E076E000E37
:102F0000086E0C50800B151A0C500C241D6E0BAE65
:102F10008CEF17F08EEF17F08FEF17F01D801D501C
:102F2000D8B495EF17F097EF17F0ACEF17F01D2816
:102F3000D8A49DEF17F09FEF17F0A7EF17F0000E42
:102F4000096E000E0A6E000E0B6E000E0C6E0B8EDC
:102F5000000E0C6EB4EF17F0000E096E000E0A6E34
:102F6000000E0B6E000E0C6E09500A100B100C10A8
:102F7000D8A4BDEF17F0BFEF17F0D7EF17F0000E92
:102F8000056E000E066E000E076E000E086E800EB7
:102F900007127F0E08121550081205C505F506C563
:102FA00006F507C507F508C508F51AEF19F01C5016
:102FB000D8A4DDEF17F0DFEF17F0E9EF17F0000E00
:102FC000056E000E066E000E076E000E086E1AEFFC
:102FD00019F01D501CC50DF50E6A0D5E000E0E5A3F
:102FE0007F0E0D24166E000E0E20176E05C511F50E
:102FF00006C512F507C513F508C514F5000E056ED4
:10300000000E066E000E076E000E086E000E186EA3
:10301000000E196E000E1A6E000E1B6E000E1D6E55
:103020004AEF18F01D50D8B418EF18F01AEF18F046
:1030300031EF18F0D8901136123613361436D89076
:1030400005360636073608361BAE29EF18F02BEF8B
:1030500018F02CEF18F00580D890183619361A366B
:103060001B360950115C0A5012580B5013580C5063
:103070001458D8A03EEF18F040EF18F049EF18F0C0
:103080001B8C0950115E0A50125A0B50135A0C50E7
:10309000145A1D2A190E1D6450EF18F052EF18F043
:1030A00012EF18F01150121013101410D8B45BEF77
:1030B00018F05DEF18F075EF18F0188075EF18F044
:1030C000D89005360636073608361BAE6AEF18F07C
:1030D0006CEF18F06DEF18F00580D890183619369F
:1030E0001A361B361606D8A0170607AE7AEF18F068
:1030F0007CEF18F060EF18F0000E1D6E1BAE83EF32
:1031000018F085EF18F0A9EF18F0FF0E18140D6EE7
:10311000FF0E19140E6EFF0E1A140F6E7F0E1B1485
:10312000106E0D500E100F101010D8B49AEF18F04A
:103130009CEF18F0A0EF18F0010E1D6EA9EF18F02B
:1031400005A0A5EF18F0A7EF18F0A9EF18F09CEF75
:1031500018F01D50D8B4AFEF18F0B1EF18F0D5EF5C
:1031600018F0010E0526000E06220722082208A0EC
:10317000BCEF18F0BEEF18F0D5EF18F005C50DF54F
:1031800006C50EF507C50FF508C510F51034103249
:103190000F320E320D320DC505F50EC506F50FC501
:1031A00007F510C508F5164A172A17BEE0EF18F004
:1031B000175008E11628D8A0E0EF18F0E2EF18F059
:1031C000EDEF18F0000E176E1668000E056E000E7B
:1031D000066E000E076E000E086E17BEFAEF18F0AE
:1031E000175006E11604D8B0F8EF18F0FAEF18F00F
:1031F00008EF19F0000E176E000E166E000E056E29
:10320000000E066E000E076E000E086E000E156EA4
:1032100016C51CF51CA00FEF19F011EF19F014EFF3
:1032200019F0078E15EF19F0079ED8901C30086E24
:10323000CBEF17F01200C2C52EF5C3C52FF5C4C5DC
:1032400030F5C5C531F51EC52EF51FC52FF520C5B6
:1032500030F521C531F5810E226EFF0E236E2EC58D
:1032600024F52FC525F530C526F531C527F5180EEF
:103270003FEF19F0D8902732263225322432E82E3B
:103280003AEF19F0245022242C6E000E23202D6ECC
:103290002DBE54EF19F02D5009E1170E2C5CD8A06B
:1032A00054EF19F056EF19F060EF19F01EC51EF536
:1032B0001FC51FF520C520F521C521F523EF1AF004
:1032C0002DBE65EF19F067EF19F0D7EF19F02CC597
:1032D00022F5FF0E236EFF0E246E7F0E256E000E6C
:1032E000266E226676EF19F07EEF19F0263426322C
:1032F000253224322332222E71EF19F023C528F50E
:1033000024C529F525C52AF526C52BF528502E14E8
:10331000226E29502F14236E2A503014246E2B5005
:103320003114256E2250231024102510D8A49BEFB1
:1033300019F09DEF19F09FEF19F056EF19F02EC517
:1033400022F52FC523F530C524F531C525F5200E0E
:10335000AFEF19F0D8902532243223322232E82EF2
:10336000AAEF19F02250231024102510D8B4BBEF77
:1033700019F0BDEF19F0C5EF19F028502E2629508D
:103380002F222A5030222B503122281C226E291C39
:10339000236E2A1C246E2B1C256E22502E162350C1
:1033A0002F1624503016255031161BEF1AF02EC55B
:1033B00022F52FC523F530C524F531C525F5200E9E
:1033C000E7EF19F0D8902532243223322232E82E4A
:1033D000E2EF19F02250231024102510D8A4F3EFA7
:1033E00019F0F5EF19F0FFEF19F0000E2E6E000E38
:1033F0002F6E000E306E000E316E1BEF1AF0D8905B
:103400002E34226E2F34236E3034246E3134256EE8
:103410002250231024102510D8B411EF1AF013EF06
:103420001AF01BEF1AF0000E2E6E000E2F6E800E9B
:10343000306EBF0E316E2EC51EF52FC51FF530C57F
:1034400020F531C521F51200116E1150D8B42BEFC3
:103450001AF02DEF1AF04FEF1AF00CBE34EF1AF0FD
:1034600032EF1AF04FEF1AF009C50DF50AC50EF547
:103470000BC50FF50CC510F50D1E0E1E0F1E101EF0
:103480000D2A000E0E220F2210220DC513F50EC5B7
:1034900014F50FC515F510C516F557EF1AF009C547
:1034A00013F50AC514F50BC515F50CC516F509502D
:1034B0000A100B100C10D8A460EF1AF062EF1AF08B
:1034C0006CEF1AF0000E096E000E0A6E000E0B6E05
:1034D000000E0C6EFDEF1AF0960E126E76EF1AF0DB
:1034E000122AD8901632153214321332000E1314E9
:1034F0000D6E000E14140E6E000E15140F6EFE0EDF
:103500001614106E0D500E100F101010D8A48BEF63
:103510001AF08DEF1AF070EF1AF09BEF1AF0122AE2
:10352000010E1326000E142215221622D8901632F0
:10353000153214321332000E13140D6E000E1414D3
:103540000E6E000E15140F6EFF0E1614106E0D5039
:103550000E100F101010D8A4B0EF1AF0B2EF1AF03E
:103560008FEF1AF0BAEF1AF01206D890133614360D
:103570001536163615BEBFEF1AF0C1EF1AF0C9EFB7
:103580001AF0020E1260C7EF1AF0C9EF1AF0B4EF8A
:103590001AF012B0CEEF1AF0D0EF1AF0D1EF1AF005
:1035A000159ED890123212C50DF50E6A0F6A106A78
:1035B0000DC510F50F6A0E6A0D6A0D5013120E50EC
:1035C00014120F501512105016121150D8B4EBEF00
:1035D0001AF0EDEF1AF0F5EF1AF00CBEF4EF1AF056
:1035E000F2EF1AF0F5EF1AF0168E13C509F514C5AF
:1035F0000AF515C50BF516C50CF5120021EEBBF149
:1036000011EE15F1060EDBC4E3F4E806FCE212C588
:1036100020F513C521F520502110D8A412EF1BF07E
:1036200014EF1BF018EF1BF0150E206E050E216E27
:1036300020C505F521C506F5D3EC21F005C524F517
:1036400006C525F559C522F55AC523F523BE2BEF2E
:103650001BF02DEF1BF042EF1BF02450225C235097
:10366000800A146E2550800A1458D8A03AEF1BF037
:103670003CEF1BF03EEF1BF042EF1BF022C524F5A0
:1036800023C525F524C522F525C523F557C51EF507
:1036900058C51FF55BB04FEF1BF051EF1BF06EEFFD
:1036A0001BF05FEF1BF0000E086E200E076E10C5BA
:1036B00009F511C50AF5D0EC1FF0244A252A1E5041
:1036C000245C2550800A146E1F50800A1458D8A01C
:1036D0006CEF1BF06EEF1BF053EF1BF0000E1D6E36
:1036E000000E1C6E93EF1BF020C5F6F421C5F7F415
:1036F000000EF86E150EF76403D00800F55005D0E3
:10370000F6C4E9F4F7C4EAF4EF50146E1450076EEF
:10371000086A10C509F511C50AF5D0EC1FF0204A5A
:10372000212A1C4A1D2A22501C5C1D50800A146E3E
:103730002350800A1458D8A0A0EF1BF0A2EF1BF072
:1037400074EF1BF05BA0A7EF1BF0A9EF1BF0C6EF17
:103750001BF0B7EF1BF0000E086E200E076E10C5B1
:1037600009F511C50AF5D0EC1FF0244A252A1E5090
:10377000245C2550800A146E1F50800A1458D8A06B
:10378000C4EF1BF0C6EF1BF0ABEF1BF01200A3EC75
:1037900023F0120E0301EC6F070E0001A413A651D3
:1037A0003F0B8009A66F000E0501D96F000ED86F80
:1037B0001E0E056E490E066E82EC24F02C0E056E70
:1037C000420E066E69EC24F0D68E330E0501A16F11
:1037D000330EA26F530EA36F3A0EA46F0501D8519A
:1037E000D8B4F5EF1BF0F7EF1BF00CEF1CF0000E58
:1037F000D86F710E986F160E996FC8EC22F005C540
:103800009AF506C59BF5B8EC23F0000E8BEC24F07E
:1038100093EC24F068EF1CF0D951D8B412EF1CF0EF
:1038200014EF1CF068EF1CF0000ED96F5EEC24F072
:1038300005C509F506C50AF50B6A0C6A000E24ECED
:103840001AF009C517F50AC518F50BC519F50CC509
:103850001AF5A1C51BF5A2C51CF5A3C51DF5A4C588
:103860001EF539EC15F017C5A5F518C5A6F519C54F
:10387000A7F51AC5A8F5C0B240EF1CF043EF1CF045
:10388000010E44EF1CF0000EFF0A0501A06FA047D7
:10389000C050A019FD0BA019C06E5E0E986F160ED9
:1038A000996FC8EC22F005C59AF506C59BF5B8ECF2
:1038B00023F0490E0501986F160E996FA5C59AF56C
:1038C000A6C59BF5A7C59CF5A8C59DF5B8EC23F04A
:1038D00053EC24F00009D8B470EF1CF072EF1CF028
:1038E00068EF1CF00501D851D8B479EF1CF07BEFDC
:1038F0001CF07DEF1CF0EEEF1BF0030000F0EEEF8C
:103900001BF00DEF00F0000E136E000E126E000E95
:10391000116E000E106E8FEF1CF00B4A0C2A0BC5B7
:10392000F6F40CC5F7F4F86A0800F550200AD8B48C
:103930009CEF1CF09EEF1CF08DEF1CF00BC5F6F415
:103940000CC5F7F4F86A0800F5C40DF5F70E0D2460
:103950000E6E0F6AFF0E0F220F5009E1050E0E5C6E
:10396000D8A0B5EF1CF0B7EF1CF08DEF1CF0C1EF45
:103970001CF0000E116E010E106E0B4A0C2AF8EFAF
:103980001CF00BC5F6F40CC5F7F4F86A0800F55006
:103990000D6E0E6A0E50000AD8B4D1EF1CF0F8EF8D
:1039A0001CF00D502B0AD8B4BDEF1CF0060AD8B499
:1039B000B9EF1CF0F8EF1CF012C505F513C506F5BC
:1039C000000E086E0A0E076ECCEC23F00BC5F6F461
:1039D0000CC5F7F4F86A0800F550055E000E065AAB
:1039E000300E0524126E000E0620136EBDEF1CF083
:1039F0000BC5F6F40CC5F7F4F86A0800F5C40DF52C
:103A0000D00E0D240E6E0F6AFF0E0F220F5009E12B
:103A10000A0E0E5CD8A00FEF1DF011EF1DF0DCEFC9
:103A20001CF010501110D8A418EF1DF01AEF1DF063
:103A300028EF1DF012C50DF513C50EF50D1E0E1E57
:103A40000D4A0E2A0DC50BF50EC50CF52CEF1DF019
:103A500012C50BF513C50CF51200073408340E6EB1
:103A60000E50D8A436EF1DF038EF1DF042EF1DF0D8
:103A7000000E056E000E066E000E076E000E086E3C
:103A8000AFEF1DF005C509F506C50AF507C50BF52D
:103A900008C50CF5200E52EF1DF0D8900C320B32F9
:103AA0000A320932E82E4DEF1DF009500D6E078ED7
:103AB000FF0E0516FF0E0616FF0E0716000E08165F
:103AC000960E0E5E0EBE69EF1DF067EF1DF07FEFE4
:103AD0001DF00E50800A970FD8B071EF1DF073EFF4
:103AE0001DF075EF1DF038EF1DF0D8900832073249
:103AF000063205320E3E75EF1DF097EF1DF01F0EDA
:103B00000E6485EF1DF087EF1DF08FEF1DF038EF8D
:103B10001DF0D89005360636073608360E060E50CC
:103B2000D8A495EF1DF097EF1DF089EF1DF00D5013
:103B3000D8B49DEF1DF09FEF1DF0A7EF1DF0081EFC
:103B4000071E061E056C000E06220722082205C568
:103B500005F506C506F507C507F508C508F5120001
:103B6000000E3014386E000E3114396E800E32148F
:103B70003A6E7F0E33143B6E385039103A103B10BA
:103B8000D8A4C5EF1DF0C7EF1DF0CFEF1DF0000E5C
:103B9000306E000E316E000E326E000E336E000E6F
:103BA0003414386E000E3514396E800E36143A6EA9
:103BB0007F0E37143B6E385039103A103B10D8A4A2
:103BC000E4EF1DF0E6EF1DF0EEEF1DF0000E346E99
:103BD000000E356E000E366E000E376E33AEF3EF0C
:103BE0001DF0F5EF1DF0FEEF1DF0306C311ED8B06A
:103BF000312A321ED8B0322A800E335637AE03EF48
:103C00001EF005EF1EF00EEF1EF0346C351ED8B01E
:103C1000352A361ED8B0362A800E3756000E301A96
:103C2000000E311A000E321A800E331A000E341AAA
:103C3000000E351A000E361A800E371A3450305CDA
:103C4000355031583650325837503358D8B02BEFA2
:103C50001EF02DEF1EF030EF1EF0D89031EF1EF069
:103C6000D8801200C6C50FF5C7C510F5C8C511F537
:103C7000C9C512F505C50FF506C510F507C511F53F
:103C800008C512F50FC509F510C50AF511C50BF5E4
:103C900012C50CF5180E52EF1EF0D8900C320B32F4
:103CA0000A320932E82E4DEF1EF009500D6E0E6AF1
:103CB0000D500E10D8A45FEF1EF061EF1EF081EFE3
:103CC0001EF0D8900F34096E10340A6E11340B6E4A
:103CD00012340C6E09500A100B100C10D8A473EF9C
:103CE0001EF075EF1EF07BEF1EF0000E066E020E4A
:103CF000056EB0EF1EF0000E066E030E056EB0EFFF
:103D00001EF00D280E10D8A488EF1EF08AEF1EF0CA
:103D1000ACEF1EF00FC509F510C50AF511C50BF57E
:103D200012C50CF5090ED89009360A360B360C363A
:103D3000E82E93EF1EF009500A100B100C10D8B4A7
:103D4000A4EF1EF0A7EF1EF0010EA8EF1EF0000E6C
:103D5000056E066AB0EF1EF0000E066E040E056ECC
:103D6000120005C50CF506C50DF507C50EF508C50D
:103D70000FF50906D8A00A06092806E10A28D8A4E2
:103D8000C4EF1EF0C6EF1EF0D3EF1EF0000E066E5D
:103D9000000E056E25EF1FF00C4A0D2A0E4A0F2A61
:103DA0000906D8A00A060CC5F6F40DC5F7F4F86AA2
:103DB0000800F5500009D8B4E0EF1EF0E2EF1EF065
:103DC00011EF1FF00EC5F6F40FC5F7F4F86A0800FE
:103DD000F5500009D8B4EFEF1EF0F1EF1EF011EF2F
:103DE0001FF009500A10D8B4F8EF1EF0FAEF1EF0D9
:103DF00011EF1FF00CC5F6F40DC5F7F4F86A0800D2
:103E0000F5C40BF50EC5F6F40FC5F7F4F86A080013
:103E1000F5500B18D8B40FEF1FF011EF1FF0CCEFD7
:103E20001EF00CC5F6F40DC5F7F4F86A0800F5C4E9
:103E30000BF50EC5F6F40FC5F7F4F86A0800F55057
:103E40000B5C056E066AD8A0060612005BA02BEF7D
:103E50001FF02DEF1FF037EF1FF019C510F51AC531
:103E600011F517C512F518C513F569EC22F01CBE43
:103E70003CEF1FF03EEF1FF044EF1FF01BC520F595
:103E80001CC521F548EF1FF0000E216E000E206EBC
:103E9000000E1F6E000E1E6E5AEF1FF0000E086E11
:103EA000200E076E17C509F518C50AF5D0EC1FF0EE
:103EB0001E4A1F2A20501E5C1F50800A1D6E215072
:103EC000800A1D58D8A067EF1FF069EF1FF04EEF72
:103ED0001FF05BB06EEF1FF070EF1FF07AEF1FF076
:103EE00019C510F51AC511F517C512F518C513F542
:103EF00069EC22F01200000E05140D6E000E06147F
:103F00000E6E800E07140F6E7F0E0814106E0D508B
:103F10000E100F101010D8A490EF1FF092EF1FF0AA
:103F20009AEF1FF0000E056E000E066E000E076E73
:103F3000000E086E000E09140D6E000E0A140E6EAF
:103F4000800E0B140F6E7F0E0C14106E0D500E10A1
:103F50000F101010D8A4AFEF1FF0B1EF1FF0B9EFA2
:103F60001FF0000E096E000E0A6E000E0B6E000EA2
:103F70000C6E095005180FE10A5006180CE10B50A1
:103F8000071809E10C500818D8B4C9EF1FF0CBEF9F
:103F90001FF0CEEF1FF0D890CFEF1FF0D8801200A7
:103FA00009500A10D8B4D7EF1FF0D9EF1FF0E2EF95
:103FB0001FF009500A10D8A4E0EF1FF0E2EF1FF045
:103FC000E7EF1FF00750F1EC23F01AEF20F020EE9E
:103FD00009F00950D9260A50DA22DE50DE10D8B492
:103FE000F4EF1FF0F6EF1FF011EF20F020EE09F0D4
:103FF0000950D9260A50DA2210EE03F00950E126C2
:104000000A50E222DE50E65CE650800A0F6EDE5077
:10401000800A0F58D8B00FEF20F011EF20F01AEF00
:1040200020F020EE03F00950D9260A50DA22DE2AC9
:10403000000EDD221200000EBE6E000EBF6E000EDE
:10404000C06E3F0EC66E700EC76EFD0EC86E370E88
:104050000401006F500E086FFC0E106F000E016F10
:10406000000E096F010E116F000E0201876F000E26
:10407000866F000E0401026F000E0A6F000E126FB1
:10408000370E036FF00E0B6F13693F0E046FF00EC7
:104090000C6F1469100E0201616F0D0E726F100E1D
:1040A000106F000E0401056F000E066F000E076F03
:1040B000000E0D6F000E0E6F000E0F6F000E156FCD
:1040C000000E166F000E176F1200000E0201A16F96
:1040D000000EA26F000EA36F000EA46F000EA56F5E
:1040E000000EA66F000EA76F000EA86F000EA96F3E
:1040F000000EAA6FA00EAB6F800EAC6F080EAD6FF6
:10410000190EAE6F000EAF6F200EB06F000EB16FC4
:10411000000EB26F000EB36F000E056E000E066E3D
:104120001CEC24F0000E056E000E066E0EEC24F062
:10413000000E056E000E066E00EC24F0000E050168
:10414000D16F000ED06F1200FAC403F5FBC404F562
:10415000A8AEADEF20F0AFEF20F0B8EF20F0B3AE97
:10416000B4EF20F0B6EF20F0B8EF20F09BEC24F095
:10417000ABA6BDEF20F0BFEF20F0CAEF20F0B6A64F
:10418000C4EF20F0C6EF20F0CAEF20F032EC23F0AD
:10419000DAEF20F0A9A4CFEF20F0D1EF20F0DAEF92
:1041A00020F0B4A4D6EF20F0D8EF20F0DAEF20F022
:1041B0004AEC23F004C5FBF403C5FAF41100000E29
:1041C0000301D96F000EDA6F000EDB6F000EDC6F9B
:1041D000000EDF6F000EE06F000EE56F000EE76F60
:1041E000000EEC6F060EEE6F000EEF6F000EF06F1C
:1041F000000EF16F000EF26F000EF46F100EF56FEF
:10420000000EF66F000EF76F000EF86F020EF96FDA
:10421000000EFA6F940EF36FB494380E056E490ECB
:10422000066E82EC24F0A984B5901200010E0501FF
:10423000D86F96EC24F00001A3A721EF21F023EF23
:1042400021F02BEF21F0A487A5518F0B1009A56F4A
:10425000A3974AEF21F0A439070B070AD8A433EF3C
:1042600021F035EF21F03DEF21F08F0EA417A49738
:104270008F0EA517A3874AEF21F0010E016EA43916
:10428000070B026E01500226023AA45102188F0B4E
:104290000218A46F120008BE5AEF21F00850071050
:1042A000061006E10504D8B058EF21F05AEF21F0CE
:1042B00075EF21F005C509F506C50AF507C50BF52B
:1042C00008C50CF5091E0A1E0B1E0C1E092A000E3D
:1042D0000A220B220C2209C505F50AC506F50BC5F5
:1042E00007F50CC508F57DEF21F005C505F506C5F8
:1042F00006F507C507F508C508F512008C0EF66E21
:10430000480EF76E000EF86E01EEA9F110EE19F0EE
:104310000900F5C4EEF4E550E150FAE101EE00F2D7
:10432000500EEE6AE806FDE101EEC2F1180EEE6AEB
:10433000E806FDE15B6A5A6A596A586A576A0401DD
:10434000080E5D6F000E5E6F000E5F6F0001C7EF1D
:104350001BF094C555F595C556F5BEEF21F092C5F5
:104360008CF593C58DF5550E05018E6F050E8F6F7B
:1043700096C590F597C591F567EC10F055C5F6F424
:1043800056C5F7F4F86A0800F5500009D8A4CBEF39
:1043900021F0CDEF21F0AFEF21F0000E0501936F7A
:1043A000000E926F120005C507F506C508F5DBEF94
:1043B00021F0054A062A05C5F6F406C5F7F4000EF5
:1043C000F86E150EF76403D00800F55005D0F6C45A
:1043D000E9F4F7C4EAF4EF500009D8A4F2EF21F0B1
:1043E000F4EF21F0D9EF21F00750055C056E08507D
:1043F0000658066E120007C50EF508C50FF505C56F
:104400000CF506C50DF515EF22F00EC5D9F40FC554
:10441000DAF4DF500B6E0E4A0F2A0CC5D9F40DC525
:10442000DAF40BC5DFF40C4A0D2A0906D8A00A06F7
:10443000092806E10A28D8A420EF22F022EF22F072
:1044400005EF22F01200000E341A000E351A000E8D
:10445000361A800E371A30C505F531C506F532C556
:1044600007F533C508F534C509F535C50AF536C570
:104470000BF537C50CF5D9EC12F005C530F506C5BE
:1044800031F507C532F508C533F51200010E096E86
:10449000200E05180610D8B450EF22F052EF22F08B
:1044A00065EF22F0F70E0524076EFF0E0620086E5A
:1044B000085009E1050E075CD8A061EF22F063EF18
:1044C00022F065EF22F0000E096E09C505F5066AB7
:1044D0001200000E166E000E156E7AEF22F014C553
:1044E00007F5086A12C509F513C50AF5D0EC1FF0E7
:1044F000154A162A15501024D96E16501120DA6E5E
:10450000DF50146E1450D8A488EF22F08AEF22F006
:104510006FEF22F0120007C509F508C50AF505C5B9
:104520000BF506C50CF509C5F6F40AC5F7F4094AFA
:104530000A2AF86A0BC5D9F40CC5DAF40B4A0C2A1E
:104540000800F5C4DFF4DF50D8A4A9EF22F0ABEFE8
:1045500022F093EF22F01200055006100710081009
:10456000D8B4B5EF22F0B7EF22F0BFEF22F0000E83
:10457000051A000E061A000E071A800E081A05C545
:1045800005F506C506F507C507F508C508F51200C7
:10459000000E086E0001A3B7D0EF22F0D2EF22F098
:1045A000D7EF22F0A439070B076E0728086E0850D2
:1045B000020DA90EF324D96E050EF420DA6EDEC4C6
:1045C00005F5DDC406F51200D69AB490D680000E2B
:1045D000056E000E066E7DEC24F0B990D682000EBA
:1045E000056E000E066E78EC24F0BD90D684000EA9
:1045F000056E000E066E73EC24F01200010E000131
:10460000D56F020ED76F220ED86F060ED96F000E2F
:10461000DA6F000EDB6F080EDC6F110EDD6F000E1F
:10462000DE6F000EDF6F000ED46F840ED66F1200A7
:10463000000E0001D56F000ED76F060ED86F000E6A
:10464000D96F000EDA6F000EDB6F020EDC6F080E02
:10465000DD6F000EDE6F000EDF6F000ED46F840E74
:10466000D66F1200B6960501DA51DB11D8B43BEFD4
:1046700023F03DEF23F049EF23F002D849EF23F078
:104680000500FA6EDA51FD6EDB51FE6EFF6AFA50DC
:1046900012001200B4940501DE51DF11D8B453EFBB
:1046A00023F055EF23F061EF23F002D861EF23F000
:1046B0000500FA6EDE51FD6EDF51FE6EFF6AFA50A4
:1046C00012001200D00E0524076EFF0E0620086EA1
:1046D00008500AE10A0E075CD8A071EF23F074EFCE
:1046E00023F0010E75EF23F0000E056E066A12002E
:1046F000040E0301206F110E1F6F0F0E216F1D6935
:10470000000E1C6F320E056E490E066E69EC24F029
:10471000B696AB86800E03011E6F1200000E056E6A
:104720000201B0AB96EF23F098EF23F0A1EF23F056
:10473000ABAB9DEF23F09FEF23F0A1EF23F0010E31
:10474000056E0550120038EC24F01BEC20F0DFEC75
:1047500020F018EC23F0FEEC22F02AEC24F0DFEC41
:1047600023F078EC23F065EC20F0E4EC22F012006A
:104770009A0E05019E6F050E9F6F000E926F000E40
:10478000936F98C594F599C595F59E0E966F050E95
:10479000976FA9EC21F0120005500702F3C409F548
:1047A000F4C40AF505500802F3500A260650070221
:1047B000F3500A2609C505F50AC506F51200780E5C
:1047C0000301196F000E186F980E1B6F340E056EE3
:1047D000490E066E6EEC24F0B69E800E03011A6F31
:1047E0001200066E8EEC23F00009D8B4FAEF23F025
:1047F000FCEF23F0F2EF23F0065087EC24F01200D8
:1048000005500610D8B407EF24F009EF24F00DEF9F
:1048100024F005C5CAF506C5CBF5120005500610F3
:10482000D8B415EF24F017EF24F01BEF24F005C5E2
:10483000CCF506C5CDF5120005500610D8B423EF0F
:1048400024F025EF24F029EF24F005C5CEF506C5A8
:10485000CFF51200000E0001A46F020EA56F020E2C
:10486000A66F000EA76F000EA96FA80EA36F12000F
:10487000620E0001AD6F000EAF6F000EB36F020E3F
:10488000B16F000EB06F000EAC6F1200A5168C1643
:1048900087168216A71691168A16A916A216286ED2
:0548A000756C6C29009D
:1048A6000201B2BF59EF24F05CEF24F0010E5DEF78
:1048B60024F0000E12000301EB51086E076AEA515C
:1048C6000724056E000E0820066E120005C5DAF5EF
:1048D60006C5DBF5120005C5DCF506C5DDF51200DB
:1048E60005C5D2F506C5D3F5120005C5D4F506C52E
:1048F600D5F5120005C5D6F506C5D7F5120005C5CE
:10490600DEF506C5DFF51200056E05C5A3F2120039
:10491600056E05C518F31200010E0501D96F1200C8
:1049260003011A8F120003011A9F120012001200CF
:044936001200120059
:020000040020DA
:10000000FF0FFF0FFF0FFF0FFF0FFF0FFF0FFF0F80
:10001000FF0FFF0FFF0FFF0FFF0FFF0FFF0FFF0F70
:10002000FF0FFF0FFF0FFF0FFF0FFF0FFF0FFF0F60
:10003000FF0FFF0FFF0FFF0FFF0FFF0FFF0FFF0F50
:020000040030CA
:09000000ECFFF7FF9FFFFFFFFF7B
:00000001FF
