:040000000DEF00F010
:04000800D1EF25F01F
:06001800FF0086EF25F059
:101600000036450000324F00000000BC4FB24F9E34
:101610004F00000000000000004A4F0C4E00000088
:10162000000000C64F0000B44E125018500250D0B7
:101630004F00004D656173757265643A2025312E47
:101640003366560A0D0A0D0043757272656E74207A
:101650004761696E3A2025730A0D004E6577204771
:1016600061696E3A2025730A0D0A0D00312E33335D
:1016700000312E313400312E303700322E36370013
:10168000494E46004E414E00696E66006E616E0026
:0D1690006C66003136003100320038000079
:10169E00000E0501876F000E866F62C598F563C553
:1016AE0099F564C59AF565C59BF59BBF63EF0BF085
:1016BE0061EF0BF079EF0BF0000E876F010E866F66
:1016CE0098C503F599C504F59AC505F59BC506F5AC
:1016DE0050EC26F003C598F504C599F505C59AF5A5
:1016EE0006C59BF5000E05019F6F000E9E6FE0C5AF
:1016FE008AF5E1C58BF586518711D8A489EF0BF0D9
:10170E008BEF0BF092EF0BF0E4A590EF0BF092EF56
:10171E000BF0ACEF0BF086518711D8A499EF0BF0BC
:10172E009BEF0BF0A1EF0BF0000E6D6F2B0E6C6F9D
:10173E00A5EF0BF0000E6D6F2D0E6C6F6CC510F6D5
:10174E009E4B9F2B8A07D8A08B0798C503F599C58A
:10175E0004F59AC505F59BC506F5DDEC20F00304EE
:10176E000410D8A4BDEF0BF0BFEF0BF016EF0CF08A
:10177E00BF0E0501676FFF0E686F6651696F6A6B6A
:10178E006751692768516A236A510AE11A0E695D29
:10179E00D8A0D4EF0BF0D7EF0BF0010ED8EF0BF073
:1017AE00000E6E6F6F6B6E516F11D8B4E1EF0BF0D0
:1017BE00E3EF0BF0F1EF0BF0100E9E25036E060E0D
:1017CE009F21046E800E056E160E066ED0EC24F070
:1017DE00FDEF0BF0100E9E25036E060E9F21046E7C
:1017EE00880E056E160E066ED0EC24F00501FD0E69
:1017FE008A27FF0E8B2360C515F561C516F5100EF1
:10180E00176E060E186E8AC519F58BC51AF5D6EC2D
:10181E0021F015C560F516C561F5A3EF11F098C559
:10182E0003F599C504F59AC505F59BC506F5DDECDE
:10183E0020F003500410D8A427EF0CF029EF0CF081
:10184E0080EF0CF0BF0E0501676FFF0E686F6651DB
:10185E00696F6A6B6751692768516A236A510AE199
:10186E001A0E695DD8A03EEF0CF041EF0CF0010EA0
:10187E0042EF0CF0000E706F716B70517111D8B495
:10188E004BEF0CF04DEF0CF05BEF0CF0100E9E25B5
:10189E00036E060E9F21046E840E056E160E066EE6
:1018AE00D0EC24F067EF0CF0100E9E25036E060EA2
:1018BE009F21046E8C0E056E160E066ED0EC24F073
:1018CE000501FD0E8A27FF0E8B2360C515F561C538
:1018DE0016F5100E176E060E186E8AC519F58BC505
:1018EE001AF5D6EC21F015C560F516C561F5A3EF16
:1018FE0011F0000E0501A06F000EA16F800EA26FF9
:10190E003F0EA36F000E9D6F000E9C6F98C503F5E2
:10191E0099C504F59AC505F59BC506F5000E076E2B
:10192E00000E086E000E096E000E0A6E4CEC23F0CF
:10193E00D8B0A4EF0CF0A6EF0CF029EF0DF0C5EF28
:10194E000CF0A0C515F5A1C516F5A2C517F5A3C5D2
:10195E0018F5000E196E000E1A6E200E1B6E410E3B
:10196E001C6E9CEC17F015C5A0F516C5A1F517C594
:10197E00A2F518C5A3F505019C4B9D2B98C52EF518
:10198E0099C52FF59AC530F59BC531F5000E196E28
:10199E00000E1A6E200E1B6E410E1C6EA0C515F5A4
:1019AE00A1C516F5A2C517F5A3C518F59CEC17F041
:1019BE0015C532F516C533F517C534F518C535F509
:1019CE005BEC20F0D8B0EEEF0CF0F0EF0CF0A8EFDF
:1019DE000CF010EF0DF0A0C52EF5A1C52FF5A2C588
:1019EE0030F5A3C531F5000E326E000E336E200EAB
:1019FE00346E410E356EC3EC19F02EC5A0F52FC511
:101A0E00A1F530C5A2F531C5A3F505019C07D8A0F7
:101A1E009D0798C52EF599C52FF59AC530F59BC52E
:101A2E0031F5A0C532F5A1C533F5A2C534F5A3C570
:101A3E0035F55BEC20F0D8A027EF0DF029EF0DF077
:101A4E00F2EF0CF066C509F50A6A03EC25F00950B1
:101A5E0005018D6F8DC58CF5670E8D19D8A43AEFE3
:101A6E000DF03CEF0DF062EF0DF0E251E311D8A452
:101A7E0043EF0DF045EF0DF049EF0DF0000EE36F63
:101A8E00010EE26FE3BF56EF0DF0E35106E1E20502
:101A9E00D8B054EF0DF056EF0DF05CEF0DF0000ED8
:101AAE00896F060E886F6BEF0DF0E2C588F5E3C502
:101ABE0089F56BEF0DF0E3BF67EF0DF069EF0DF0F9
:101ACE0056EF0DF05CEF0DF0670E8D19D8A472EF86
:101ADE000DF074EF0DF0A3EF0DF09DAF82EF0DF052
:101AEE00FC0E9C5DFF0E9D59D8A080EF0DF082EF8D
:101AFE000DF0A1EF0DF0FF0E676FFF0E686F88C53A
:101B0E0069F589C56AF56751692768516A239C5141
:101B1E00695D6A51800A6B6F9D51800A6B59D8A01E
:101B2E009BEF0DF09DEF0DF0A1EF0DF0660E8C6F9B
:101B3E00A3EF0DF0650E8C6F88C57EF589C57FF518
:101B4E00670E8D19D8A4AEEF0DF0B0EF0DF0C0EF0B
:101B5E000DF0660E8C19D8A4B7EF0DF0B9EF0DF09D
:101B6E00C2EF0DF09DBFC0EF0DF0BEEF0DF0C2EF56
:101B7E000DF07E4B7F2B660E8C19D8A4C9EF0DF09D
:101B8E00CBEF0DF0EBEF0DF09DBFD2EF0DF0D0EFE0
:101B9E000DF0DEEF0DF0000EA06F000EA16F800EA7
:101BAE00A26F3F0EA36F000E9D6F000E9C6F670E0F
:101BBE008D19D8B4E5EF0DF0E7EF0DF0EBEF0DF06A
:101BCE009C517E279D517F23000E976F000E966FBE
:101BDE0098C58EF599C58FF59AC590F59BC591F56B
:101BEE00A0C580F5A1C581F5A2C582F5A3C583F573
:101BFE007CEF0EF08EC52EF58FC52FF590C530F506
:101C0E0091C531F5A0C532F5A1C533F5A2C534F5A0
:101C1E00A3C535F5C3EC19F02EC547F52FC548F50C
:101C2E0030C549F531C54AF590EC1BF047C592F524
:101C3E0048C593F549C594F54AC595F592C503F582
:101C4E0093C504F594C505F595C506F5D8EC1FF0BA
:101C5E0003C584F504C585F58EC52EF58FC52FF504
:101C6E0090C530F591C531F5A0C519F5A1C51AF588
:101C7E00A2C51BF5A3C51CF592C515F593C516F5A2
:101C8E0094C517F595C518F59CEC17F015C532F5EA
:101C9E0016C533F517C534F518C535F5AEEC25F078
:101CAE002EC58EF52FC58FF530C590F531C591F542
:101CBE00A0C52EF5A1C52FF5A2C530F5A3C531F5EA
:101CCE00000E326E000E336E200E346E410E356EE7
:101CDE00C3EC19F02EC5A0F52FC5A1F530C5A2F5A0
:101CEE0031C5A3F50501964B972B7E51965D975105
:101CFE00800A676F7F51800A6759D8A089EF0EF06E
:101D0E008BEF0EF001EF0EF0A0C515F5A1C516F57F
:101D1E00A2C517F5A3C518F5000E196E000E1A6EA2
:101D2E00A00E1B6E400E1C6E9CEC17F015C592F5A6
:101D3E0016C593F517C594F518C595F58EC52EF5F0
:101D4E008FC52FF590C530F591C531F592C532F599
:101D5E0093C533F594C534F595C535F55BEC20F098
:101D6E00D8B0BCEF0EF0BEEF0EF0C9EF0EF0000EC5
:101D7E000501926F000E936F000E946F000E956F1B
:101D8E00F2EF0EF08EC503F58FC504F590C505F57F
:101D9E0091C506F592C507F593C508F594C509F5E5
:101DAE0095C50AF54CEC23F0D8A0E0EF0EF0E2EF6B
:101DBE000EF0F2EF0EF0050184B1E8EF0EF0EAEF4F
:101DCE000EF0F2EF0EF0000E926F000E936F000EFB
:101DDE00946F000E956F98C503F599C504F59AC5D5
:101DEE0005F59BC506F592C507F593C508F594C58F
:101DFE0009F595C50AF53CEC15F003C58EF504C53D
:101E0E008FF505C590F506C591F58EC52EF58FC5D6
:101E1E002FF590C530F591C531F5000E196E000EF7
:101E2E001A6E200E1B6E410E1C6E80C515F581C5F7
:101E3E0016F582C517F583C518F59CEC17F015C578
:101E4E0032F516C533F517C534F518C535F55BEC07
:101E5E0020F0D8A035EF0FF037EF0FF060EF0FF056
:101E6E0005019C4B9D2B80C515F581C516F582C5C8
:101E7E0017F583C518F5000E196E000E1A6E200E9A
:101E8E001B6E410E1C6E9CEC17F015C580F516C529
:101E9E0081F517C582F518C583F5660E05018C19F7
:101EAE00D8A45CEF0FF05EEF0FF060EF0FF07E4BFB
:101EBE007F2B80C5A0F581C5A1F582C5A2F583C58E
:101ECE00A3F5650E05018C19D8B470EF0FF072EF03
:101EDE000FF078EF0FF09CC57CF59DC57DF57CEF7E
:101EEE000FF0000E7D6F000E7C6F000E7B6F000EEC
:101EFE007A6F000E796F000E786F000E976F000EDE
:101F0E00966F77EF10F08EC52EF58FC52FF590C515
:101F1E0030F591C531F5A0C532F5A1C533F5A2C591
:101F2E0034F5A3C535F5C3EC19F02EC547F52FC50D
:101F3E0048F530C549F531C54AF590EC1BF047C55B
:101F4E0092F548C593F549C594F54AC595F592C5E0
:101F5E0003F593C504F594C505F595C506F5D8ECBE
:101F6E001FF003C584F504C585F50501E4B9C2EF7C
:101F7E000FF0C4EF0FF0E1EF0FF084518511D8A4EC
:101F8E00CBEF0FF0CDEF0FF0E1EF0FF0670E8D19E5
:101F9E00D8A4D4EF0FF0D6EF0FF0E1EF0FF07DBF26
:101FAE00DDEF0FF0DBEF0FF0E1EF0FF0784B792B59
:101FBE002BEF10F07A517B11D8A4E8EF0FF0EAEF77
:101FCE000FF014EF10F07DBFF1EF0FF0EFEF0FF009
:101FDE0014EF10F0100E9E25D96E060E9F21DA6EAC
:101FEE002E0EDF6E9E4B9F2B8A07D8A08B07000EFE
:101FFE007B6F010E7A6F14EF10F0100E9E25D96EC6
:10200E00060E9F21DA6E300EDF6E9E4B9F2B8A07D7
:10201E00D8A08B077807D8A0790778517911D8A462
:10202E001BEF10F01DEF10F004EF10F0100E9E25B8
:10203E00D96E060E9F21DA6E8451300FDF6E9E4BE5
:10204E009F2B8A07D8A08B078EC52EF58FC52FF52F
:10205E0090C530F591C531F5A0C519F5A1C51AF594
:10206E00A2C51BF5A3C51CF592C515F593C516F5AE
:10207E0094C517F595C518F59CEC17F015C532F5F6
:10208E0016C533F517C534F518C535F5AEEC25F084
:10209E002EC58EF52FC58FF530C590F531C591F54E
:1020AE00A0C52EF5A1C52FF5A2C530F5A3C531F5F6
:1020BE00000E326E000E336E200E346E410E356EF3
:1020CE00C3EC19F02EC5A0F52FC5A1F530C5A2F5AC
:1020DE0031C5A3F505017C07D8A07D07964B972B3C
:1020EE007E51965D9751800A676F7F51800A6759BE
:1020FE00D8B084EF10F086EF10F094EF10F09FBF81
:10210E0092EF10F09F5109E14B0E9E5DD8A092EF19
:10211E0010F094EF10F08AEF0FF07A517B11D8A4E3
:10212E009BEF10F09DEF10F0AEEF10F0E4A9A2EFD0
:10213E0010F0A4EF10F0AEEF10F0100E9E25D96E39
:10214E00060E9F21DA6E2E0EDF6E9E4B9F2B100E0B
:10215E009E25D96E060E9F21DA6E000EDF6E650E7D
:10216E008C19D8A4BDEF10F0BFEF10F091EF11F065
:10217E00000E976F4F0E966F100E9625D96E060EA7
:10218E009721DA6E000EDF6E000E876F000E866FDF
:10219E009DBFD6EF10F0D4EF10F0DEEF10F0000E72
:1021AE00876F010E866F9C6D9D1FD8B09D2B000E04
:1021BE00896F020E886F0FEF11F09607D8A0970760
:1021CE00100E9625D96E060E9721DA6E9CC503F574
:1021DE009DC504F5000E066E0A0E056EF4EC22F097
:1021EE000350300FDF6E9CC503F59DC504F5000E40
:1021FE00066E0A0E056E39EC22F003C59CF504C579
:10220E009DF505018807D8A089078A07D8A08B07F6
:10221E009C519D11D8A416EF11F018EF11F0E4EFB8
:10222E0010F089BF25EF11F0895106E18805D8B06D
:10223E0023EF11F025EF11F0E4EF10F09607D8A080
:10224E00970786518711D8A42FEF11F031EF11F0B7
:10225E0037EF11F0000E736F2B0E726F3BEF11F014
:10226E00000E736F2D0E726F100E9625D96E060E20
:10227E009721DA6E6100C8F5DFF48A07D8A08B07C4
:10228E009607D8A09707BF0E676FFF0E686F66514F
:10229E00696F6A6B6751692768516A236A510AE14F
:1022AE001A0E695DD8A05EEF11F061EF11F0010E0C
:1022BE0062EF11F0000E766F776B76517711D8A41E
:1022CE006BEF11F06DEF11F073EF11F0000E756FF3
:1022DE00650E746F77EF11F0000E756F450E746F0B
:1022EE00100E9625D96E060E9721DA6E6100D0F586
:1022FE00DFF48A07D8A08B07100E9E25036E060EFC
:10230E009F21046E100E9625056E060E9721066E01
:10231E00D0EC24F060C515F561C516F5100E176EDC
:10232E00060E186E8AC519F58BC51AF5D6EC21F076
:10233E0015C560F516C561F51200610098F6D9F461
:10234E0061009CF6DAF4DEC4F6F4DDC4F7F4F86A44
:10235E000800F550250AD8A4B7EF11F0B9EF11F027
:10236E001BEF15F0610098F6D9F461009CF6DAF4D3
:10237E00DE2A000EDD22000E0501E16F000EE06F79
:10238E00E0C5E4F5E1C5E5F5E269E369610098F6BB
:10239E00D9F461009CF6DAF4DEC4F6F4DDC4F7F489
:1023AE00F86A0800F5502A0AD8A4E0EF11F0E2EF1F
:1023BE0011F015EF12F0610098F6D9F461009CF659
:1023CE00DAF4DE2A000EDD226100A0F6D9F46100F7
:1023DE00A4F6DAF461007CF3AAF5020EDE266100A3
:1023EE007CF3ABF5000EDD226100A8F6D9F4610096
:1023FE00ACF6DAF4610078F3E0F5610074F3E1F520
:10240E00E1BF0EEF12F00CEF12F062EF12F0E4816A
:10241E00E06DE11FD8B0E12B62EF12F0610098F68B
:10242E00D9F461009CF6DAF4610078F30AF56100E4
:10243E0074F30BF573EC1DF00AC5E0F50BC5E1F571
:10244E0032EF12F0610098F6D9F461009CF6DAF4DE
:10245E00DE2A000EDD22D00E0501AA6FFF0EAB6F35
:10246E00610098F6D9F461009CF6DAF4DEC4F6F455
:10247E00DDC4F7F4F86A0800F550AC6FAD6BAA51E5
:10248E00AC27AB51AD23AD510AE10A0EAC5DD8A01D
:10249E0053EF12F056EF12F0010E57EF12F0000E3E
:1024AE00B06FB16BB051B111D8A460EF12F062EF02
:1024BE0012F029EF12F0610098F6D9F461009CF643
:1024CE00DAF4DEC4F6F4DDC4F7F4F86A0800F55069
:1024DE002E0AD8A475EF12F077EF12F00DEF13F06D
:1024EE00000EE36F000EE26F610098F6D9F4610002
:1024FE009CF6DAF4DE2A000EDD22610098F6D9F49D
:10250E0061009CF6DAF4DEC4F6F4DDC4F7F4F86A82
:10251E000800F5502A0AD8A497EF12F099EF12F09E
:10252E00C0EF12F0610098F6D9F461009CF6DAF46F
:10253E00DE2A000EDD226100A0F6D9F46100A4F6B9
:10254E00DAF461007CF3AAF5020EDE2661007CF35C
:10255E00ABF5000EDD226100A8F6D9F46100ACF6F1
:10256E00DAF4610078F3E2F5610074F3E3F50DEF50
:10257E0013F0610098F6D9F461009CF6DAF461006C
:10258E0078F30AF5610074F30BF573EC1DF00AC5D0
:10259E00E2F50BC5E3F5DDEF12F0610098F6D9F424
:1025AE0061009CF6DAF4DE2A000EDD22D00E050163
:1025BE00AA6FFF0EAB6F610098F6D9F461009CF61E
:1025CE00DAF4DEC4F6F4DDC4F7F4F86A0800F55068
:1025DE00AC6FAD6BAA51AC27AB51AD23AD510AE137
:1025EE000A0EAC5DD8A0FEEF12F001EF13F0010E53
:1025FE0002EF13F0000EB26FB36BB251B311D8A449
:10260E000BEF13F00DEF13F0D4EF12F0610098F60C
:10261E00D9F461009CF6DAF4DEC4F6F4DDC4F7F406
:10262E00F86A0800F550096E0A6A03EC25F00950A5
:10263E000501BA6FBA51D8B427EF13F029EF13F092
:10264E0071EF13F0610098F6D9F461009CF6DAF49C
:10265E00610078F3AAF5610074F3ABF5010EAA27B9
:10266E00000EAB236100A8F6F6F46100ACF6F7F4A9
:10267E00F86A0800F550096E0A6A03EC25F0095055
:10268E000501BB6FBB51D8B44FEF13F051EF13F0F0
:10269E0071EF13F0610098F6D9F461009CF6DAF44C
:1026AE00610078F3AAF5610074F3ABF5020EAA2768
:1026BE00000EAB236100A8F6F6F46100ACF6F7F459
:1026CE00F86A0800F550096E0A6A03EC25F0095005
:1026DE000501BC6F660EBA19D8A478EF13F07AEF25
:1026EE0013F0CAEF13F0610098F6D9F461009CF66E
:1026FE00DAF4DEC4F6F4DDC4F7F4F86A080061001B
:10270E00D4F3BDF5610098F6D9F461009CF6DAF4C5
:10271E00DE2A000EDD226100A0F6D9F46100A4F6D7
:10272E00DAF461007CF3AAF5040EDE2661007CF378
:10273E00ABF5000EDD226100A8F6D9F46100ACF60F
:10274E00DAF4610078F3B6F5610078F3B7F561005D
:10275E0078F3B8F5610078F3B9F5A4C560F5A5C5B1
:10276E0061F5B6C562F5B7C563F5B8C564F5B9C50B
:10277E0065F5BDC566F54FEC0BF060C5A4F561C5FA
:10278E00A5F53BEF15F0BA0E036E050E046E900E16
:10279E00056E160E066E000E086E020E076E5CECCF
:1027AE0021F003500410D8A4DFEF13F0E1EF13F083
:1027BE0092EF14F0610098F6D9F461009CF6DAF409
:1027CE00610078F3AAF5610074F3ABF5010E050113
:1027DE00AA27000EAB236100A8F6F6F46100ACF652
:1027EE00F7F4F86A08006100D4F3BDF5BF0EAA6FC6
:1027FE00FF0EAB6F610098F6D9F461009CF6DAF427
:10280E00DEC4F6F4DDC4F7F4F86A0800F550AC6FD8
:10281E00AD6BAA51AC27AB51AD23AD510AE11A0EE7
:10282E00AC5DD8A01DEF14F020EF14F0010E21EFD7
:10283E0014F0000EB46FB56BB451B511D8B42AEFC5
:10284E0014F02CEF14F050EF14F06100A0F6D9F450
:10285E006100A4F6DAF461007CF3AAF5040EDE261C
:10286E0061007CF3ABF5000EDD226100A8F6D9F411
:10287E006100ACF6DAF4610078F3B6F5610078F336
:10288E00B7F5610078F3B8F5610078F3B9F572EF3A
:10289E0014F06100A0F6D9F46100A4F6DAF4610038
:1028AE007CF3AAF5040EDE2661007CF3ABF5000E78
:1028BE00DD226100A8F6D9F46100ACF6DAF461000D
:1028CE0078F3B6F5610078F3B7F5610078F3B8F5F3
:1028DE00610078F3B9F5020E610098F6D9F4610043
:1028EE009CF6DAF4DE26000EDD22A4C560F5A5C541
:1028FE0061F5B6C562F5B7C563F5B8C564F5B9C57A
:10290E0065F5BDC566F54FEC0BF060C5A4F561C568
:10291E00A5F53BEF15F0610098F6D9F461009CF631
:10292E00DAF4DEC4F6F4DDC4F7F4F86A0800F55004
:10293E00730AD8A4A5EF14F0A7EF14F0DCEF14F08F
:10294E00610098F6D9F461009CF6DAF4DE2A000EE6
:10295E00DD226100A0F6D9F46100A4F6DAF461007C
:10296E007CF3AAF5020EDE2661007CF3ABF5000EB9
:10297E00DD226100A8F6D9F46100ACF6DAF461004C
:10298E0078F3AEF5610074F3AFF5A4C50EF5A5C5E9
:10299E000FF5AEC510F5AFC511F54AEC1EF00EC51C
:1029AE00A4F50FC5A5F53BEF15F0610098F6D9F427
:1029BE0061009CF6DAF4DEC4F6F4DDC4F7F4F86ACE
:1029CE000800F550250AD8A4EFEF14F0F1EF14F03B
:1029DE000BEF15F0610098F6D9F461009CF6DAF46D
:1029EE00DE2A000EDD22000E066E250E056EA4C533
:1029FE0007F5A5C508F5A1EC23F0000E0501A56F9E
:102A0E00010EA46F3BEF15F0610098F6D9F461004A
:102A1E009CF6DAF4DE2A000EDD22000E0501A56F0B
:102A2E00000EA46F3BEF15F0610098F6D9F461002B
:102A3E009CF6DAF4DEC4F6F4DDC4F7F4F86A0800A6
:102A4E00F550056E066AA4C507F5A5C508F5A1ECF7
:102A5E0023F0610098F6D9F461009CF6DAF4DE2AD0
:102A6E00000EDD2204EF15F012000650800B0F6EE3
:102A7E0006500624116E05AE47EF15F049EF15F01E
:102A8E004AEF15F011801150D8B450EF15F052EFF7
:102A9E0015F067EF15F01128D8A458EF15F05AEF7E
:102AAE0015F062EF15F0000E036E000E046E000EB0
:102ABE00056E000E066E058E000E066E6FEF15F09B
:102ACE00000E036E000E046E000E056E000E066EF6
:102ADE000A50800B106E0F501018D8B479EF15F005
:102AEE007BEF15F07CEF15F00F8C0A500A24106E58
:102AFE0009AE84EF15F086EF15F087EF15F0108014
:102B0E001050D8B48DEF15F08FEF15F0A4EF15F02F
:102B1E001028D8A495EF15F097EF15F09FEF15F04C
:102B2E00000E076E000E086E000E096E000E0A6E85
:102B3E00098E000E0A6EACEF15F0000E076E000E39
:102B4E00086E000E096E000E0A6E1150105CD8B0A1
:102B5E00B3EF15F0B5EF15F0DCEF15F00FACBAEFE3
:102B6E0015F0BCEF15F0BEEF15F0800E0F1A11C563
:102B7E0012F510C511F512C510F503C512F507C5EE
:102B8E0003F512C507F504C512F508C504F512C5FF
:102B9E0008F505C512F509C505F512C509F506C5F1
:102BAE0012F50AC506F512C50AF5000E126E115081
:102BBE0010C50BF50C6A0B5E000E0C5A0CBEF1EF35
:102BCE0015F00C5009E11A0E0B5CD8A0F1EF15F0C0
:102BDE00F3EF15F02AEF16F003500410051006104F
:102BEE00D8A4FCEF15F0FFEF15F0010E00EF16F074
:102BFE00000E126E000E036E000E046E000E056EB9
:102C0E00000E066E10C511F533EF16F012A012EF7E
:102C1E0016F014EF16F01AEF16F0D89012300109D4
:102C2E00126E1CEF16F0D890123203A021EF16F0A0
:102C3E0023EF16F024EF16F0128E0634063205320C
:102C4E0004320332112A1050115CD8A031EF16F065
:102C5E0033EF16F00DEF16F00FBC38EF16F03AEF1B
:102C6E0016F07AEF16F01150D8A440EF16F042EF9E
:102C7E0016F04CEF16F0000E036E000E046E000EF2
:102C8E00056E000E066E9BEF17F0075003260850D8
:102C9E000422095005220A50062206A059EF16F00A
:102CAE005BEF16F007EF17F012A060EF16F062EF71
:102CBE0016F068EF16F0D89012300109126E6AEF16
:102CCE0016F0D890123203A06FEF16F071EF16F0D7
:102CDE0072EF16F0128E06340632053204320332CB
:102CEE00112A07EF17F00750035C085004580950DB
:102CFE0005580650800A0B6E0A50800A0B58D8B041
:102D0E008BEF16F08DEF16F0B8EF16F00350075C50
:102D1E000B6E045008580C6E055009580D6E065077
:102D2E000A580E6EFF0E0B24036EFF0E0C20046E5F
:102D3E00FF0E0D20056EFF0E0E20066E800E0F1A72
:102D4E00126C1250D8A4AEEF16F0B0EF16F0C0EF22
:102D5E0016F0010E0326000E042205220622C0EFF5
:102D6E0016F00750035E0850045A0950055A0A50CF
:102D7E00065A0350041005100610D8A4C9EF16F019
:102D8E00CBEF16F000EF17F01250D8A4D1EF16F0DB
:102D9E00D3EF16F000EF17F0000E036E000E046E68
:102DAE00000E056E000E066E9BEF17F0D8900336E0
:102DBE0004360536063612AEE7EF16F0E9EF16F0DA
:102DCE00EAEF16F0038012A0EFEF16F0F1EF16F017
:102DDE00F5EF16F0D8801236F7EF16F0D8901236BF
:102DEE001150D8B4FDEF16F0FFEF16F000EF17F00C
:102DFE00110605AE05EF17F007EF17F0DDEF16F031
:102E0E00000E106E12AE0EEF17F010EF17F028EF47
:102E1E0017F012C50BF57F0E0B16D8B419EF17F07D
:102E2E001BEF17F01FEF17F0010E106E28EF17F0C3
:102E3E0003A024EF17F026EF17F028EF17F01BEF83
:102E4E0017F01050D8B42EEF17F030EF17F05BEFED
:102E5E0017F0010E0326000E04220522062206A0FC
:102E6E003BEF17F03DEF17F05BEF17F003C50BF5D7
:102E7E0004C50CF505C50DF506C50EF50E340E325E
:102E8E000D320C320B320BC503F50CC504F50DC516
:102E9E0005F50EC506F51128D8B458EF17F05AEF00
:102EAE0017F05BEF17F0112A1128D8B461EF17F065
:102EBE0063EF17F06BEF17F01150D8A469EF17F00E
:102ECE006BEF17F07DEF17F0000E036E000E046E21
:102EDE00000E056E000E066E1150D8A479EF17F095
:102EEE007BEF17F07DEF17F0000E0F6E11A082EF43
:102EFE0017F084EF17F087EF17F0058E88EF17F0B5
:102F0E00059ED8901130066E0FAE90EF17F092EF2F
:102F1E0017F093EF17F0068E03C503F504C504F5FD
:102F2E0005C505F506C506F512001850800B216E75
:102F3E0018501824276E17AEA7EF17F0A9EF17F049
:102F4E00AAEF17F027802750D8B4B0EF17F0B2EFE2
:102F5E0017F0C5EF17F02728D8A4B8EF17F0BAEF7F
:102F6E0017F0C2EF17F0000E156E000E166E000E63
:102F7E00176E000E186E178ECDEF17F0000E156E31
:102F8E00000E166E000E176E000E186E1C50800B83
:102F9E00211A1C501C24226E1BAED8EF17F0DAEF4C
:102FAE0017F0DBEF17F022802250D8B4E1EF17F0C4
:102FBE00E3EF17F0F6EF17F02228D8A4E9EF17F099
:102FCE00EBEF17F0F3EF17F0000E196E000E1A6EFE
:102FDE00000E1B6E000E1C6E1B8EFEEF17F0000E09
:102FEE00196E000E1A6E000E1B6E000E1C6E225015
:102FFE00D8B404EF18F006EF18F00EEF18F02750C3
:10300E00D8A40CEF18F00EEF18F018EF18F0000E11
:10301E00156E000E166E000E176E000E186EC2EFB5
:10302E0019F01B5015026100CCF32CF56100D0F3A2
:10303E002DF52C50236E246A256A266A2D50286E93
:10304E00296A2A6A2B6A1A5016026100CCF32CF5F3
:10305E006100D0F32DF52C502326000E24222522BC
:10306E0026222D502826000E29222A222B221950E4
:10307E0017026100CCF32CF56100D0F32DF52C5026
:10308E002326000E2422252226222D502826000E2D
:10309E0029222A222B2225C526F524C525F523C54E
:1030AE0024F5236A195016026100CCF32CF5610049
:1030BE00D0F32DF52C5023262D502422000E252240
:1030CE00000E26221A5015026100CCF32CF5610079
:1030DE00D0F32DF52C5023262D502422000E252220
:1030EE00000E262225C526F524C525F523C524F573
:1030FE00236A195015026100CCF32CF56100D0F350
:10310E002DF52C5023262D502422000E2522000EA4
:10311E0026221B5016026100CCF32CF56100D0F371
:10312E002DF52C5028262D502922000E2A22000E75
:10313E002B221A5017026100CCF32CF56100D0F34C
:10314E002DF52C5028262D502922000E2A22000E55
:10315E002B221B5017026100CCF32CF56100D0F32B
:10316E002DF52C501D6E2D501E6E1F6A206A1FC528
:10317E0020F51EC51FF51DC51EF51D6A1D502826FE
:10318E001E5029221F502A2220502B2223C51DF506
:10319E0024C51EF525C51FF526C520F5190EDDEF34
:1031AE0018F0D89020321F321E321D32E82ED8EF82
:1031BE0018F01D5028261E5029221F502A2220505A
:1031CE002B2225C526F524C525F523C524F5236A0E
:1031DE00225027C51DF51E6A1D26000E1E22820EC8
:1031EE001D242C6EFF0E1E202D6E13EF19F0D8909D
:1031FE00283629362A362B3626AE08EF19F00AEF76
:10320E0019F00BEF19F02880D89023362436253686
:10321E0026362C06D8A02D062AAE18EF19F01AEF76
:10322E0019F0FEEF18F0000E226E26AE21EF19F007
:10323E0023EF19F047EF19F0FF0E23141D6EFF0E4A
:10324E0024141E6EFF0E25141F6E7F0E2614206E84
:10325E001D501E101F102010D8B438EF19F03AEF81
:10326E0019F03EEF19F0010E226E47EF19F028A06B
:10327E0043EF19F045EF19F047EF19F03AEF19F057
:10328E002250D8B44DEF19F04FEF19F073EF19F03B
:10329E00010E2826000E29222A222B222BA05AEFBD
:1032AE0019F05CEF19F073EF19F028C51DF529C55B
:1032BE001EF52AC51FF52BC520F5203420321F32EE
:1032CE001E321D321DC528F51EC529F51FC52AF54E
:1032DE0020C52BF52C4A2D2A2DBE7EEF19F02D5030
:1032EE0008E12C28D8A07EEF19F080EF19F08AEFB4
:1032FE0019F0000E286E000E296E800E2A6E7F0EBB
:10330E002B6EB8EF19F02DBE97EF19F02D5006E188
:10331E002C04D8B095EF19F097EF19F0A3EF19F030
:10332E00000E286E000E296E000E2A6E000E2B6EF9
:10333E00000E216EB8EF19F02CC527F5FF0E2816DA
:10334E00FF0E29167F0E2A16000E2B1627A0B2EF9F
:10335E0019F0B4EF19F0B5EF19F02A8ED890273086
:10336E002B6E21502B1228C515F529C516F52AC529
:10337E0017F52BC518F512003150800B3E6E3150EB
:10338E003124456E30AECEEF19F0D0EF19F0D1EFFB
:10339E0019F045804550D8B4D7EF19F0D9EF19F090
:1033AE00EEEF19F04528D8A4DFEF19F0E1EF19F090
:1033BE00E9EF19F0000E2E6E000E2F6E000E306E1D
:1033CE00000E316E308E000E316EF6EF19F0000EDB
:1033DE002E6E000E2F6E000E306E000E316E3550BA
:1033EE00800B3E1A35503524466E34AE01EF1AF07E
:1033FE0003EF1AF004EF1AF046804650D8B40AEFE5
:10340E001AF00CEF1AF021EF1AF04628D8A412EF9A
:10341E001AF014EF1AF01CEF1AF0000E326E000EB6
:10342E00336E000E346E000E356E348E000E356E19
:10343E0029EF1AF0000E326E000E336E000E346E4F
:10344E00000E356E3250331034103510D8A432EFD2
:10345E001AF034EF1AF04CEF1AF0000E2E6E000E2A
:10346E002F6E000E306E000E316E800E30127F0EFB
:10347E0031123E5031122EC52EF52FC52FF530C507
:10348E0030F531C531F58FEF1BF04550D8A452EF12
:10349E001AF054EF1AF05EEF1AF0000E2E6E000EB8
:1034AE002F6E000E306E000E316E8FEF1BF04650F9
:1034BE0045C536F5376A365E000E375A7F0E36240E
:1034CE003F6E000E3720406E2EC53AF52FC53BF5E8
:1034DE0030C53CF531C53DF5000E2E6E000E2F6E3B
:1034EE00000E306E000E316E000E416E000E426EFA
:1034FE00000E436E000E446E000E466EBFEF1AF0C5
:10350E004650D8B48DEF1AF08FEF1AF0A6EF1AF0DE
:10351E00D8903A363B363C363D36D8902E362F363E
:10352E003036313644AE9EEF1AF0A0EF1AF0A1EF0E
:10353E001AF02E80D89041364236433644363250F9
:10354E003A5C33503B5834503C5835503D58D8A017
:10355E00B3EF1AF0B5EF1AF0BEEF1AF0448C3250FA
:10356E003A5E33503B5A34503C5A35503D5A462AF7
:10357E00190E4664C5EF1AF0C7EF1AF087EF1AF06E
:10358E003A503B103C103D10D8B4D0EF1AF0D2EFA9
:10359E001AF0EAEF1AF04180EAEF1AF0D8902E36C0
:1035AE002F363036313644AEDFEF1AF0E1EF1AF037
:1035BE00E2EF1AF02E80D89041364236433644362A
:1035CE003F06D8A0400630AEEFEF1AF0F1EF1AF03A
:1035DE00D5EF1AF0000E466E44AEF8EF1AF0FAEF81
:1035EE001AF01EEF1BF0FF0E4114366EFF0E421442
:1035FE00376EFF0E4314386E7F0E4414396E3650FC
:10360E00371038103910D8B40FEF1BF011EF1BF034
:10361E0015EF1BF0010E466E1EEF1BF02EA01AEFDB
:10362E001BF01CEF1BF01EEF1BF011EF1BF04650B2
:10363E00D8B424EF1BF026EF1BF04AEF1BF0010E5F
:10364E002E26000E2F223022312231A031EF1BF018
:10365E0033EF1BF04AEF1BF02EC536F52FC537F5AD
:10366E0030C538F531C539F539343932383237325B
:10367E00363236C52EF537C52FF538C530F539C576
:10368E0031F53F4A402A40BE55EF1BF0405008E14D
:10369E003F28D8A055EF1BF057EF1BF062EF1BF041
:1036AE00000E406E3F68000E2E6E000E2F6E000E46
:1036BE00306E000E316E40BE6FEF1BF0405006E1D3
:1036CE003F04D8B06DEF1BF06FEF1BF07DEF1BF0DA
:1036DE00000E406E000E3F6E000E2E6E000E2F6E10
:1036EE00000E306E000E316E000E3E6E3FC545F57B
:1036FE0045A084EF1BF086EF1BF089EF1BF0308E98
:10370E008AEF1BF0309ED8904530316E40EF1AF0A4
:10371E001200D6C557F5D7C558F5D8C559F5D9C530
:10372E005AF547C557F548C558F549C559F54AC51F
:10373E005AF5810E4B6EFF0E4C6E57C54DF558C5A2
:10374E004EF559C54FF55AC550F5180EB4EF1BF08E
:10375E00D89050324F324E324D32E82EAFEF1BF032
:10376E004D504B24556E000E4C20566E56BEC9EF72
:10377E001BF0565009E1170E555CD8A0C9EF1BF08F
:10378E00CBEF1BF0D5EF1BF047C547F548C548F505
:10379E0049C549F54AC54AF598EF1CF056BEDAEF11
:1037AE001BF0DCEF1BF04CEF1CF055C54BF5FF0E7C
:1037BE004C6EFF0E4D6E7F0E4E6E000E4F6E4B66B4
:1037CE00EBEF1BF0F3EF1BF04F344F324E324D3216
:1037DE004C324B2EE6EF1BF04CC551F54DC552F554
:1037EE004EC553F54FC554F5515057144B6E5250AC
:1037FE0058144C6E535059144D6E54505A144E6EFC
:10380E004B504C104D104E10D8A410EF1CF012EF70
:10381E001CF014EF1CF0CBEF1BF057C54BF558C541
:10382E004CF559C54DF55AC54EF5200E24EF1CF03A
:10383E00D8904E324D324C324B32E82E1FEF1CF0E8
:10384E004B504C104D104E10D8B430EF1CF032EFE0
:10385E001CF03AEF1CF0515057265250582253503C
:10386E00592254505A22511C4B6E521C4C6E531CF2
:10387E004D6E541C4E6E4B5057164C5058164D50A4
:10388E0059164E505A1690EF1CF057C54BF558C5A9
:10389E004CF559C54DF55AC54EF5200E5CEF1CF092
:1038AE00D8904E324D324C324B32E82E57EF1CF040
:1038BE004B504C104D104E10D8A468EF1CF06AEF10
:1038CE001CF074EF1CF0000E576E000E586E000EBA
:1038DE00596E000E5A6E90EF1CF0D89057344B6E06
:1038EE0058344C6E59344D6E5A344E6E4B504C10FB
:1038FE004D104E10D8B486EF1CF088EF1CF090EFF0
:10390E001CF0000E576E000E586E800E596EBF0ED4
:10391E005A6E57C547F558C548F559C549F55AC5A4
:10392E004AF512000F6E0F50D8B4A0EF1CF0A2EFA4
:10393E001CF0C4EF1CF00ABEA9EF1CF0A7EF1CF0A0
:10394E00C4EF1CF007C50BF508C50CF509C50DF540
:10395E000AC50EF50B1E0C1E0D1E0E1E0B2A000E9A
:10396E000C220D220E220BC511F50CC512F50DC53C
:10397E0013F50EC514F5CCEF1CF007C511F508C5EF
:10398E0012F509C513F50AC514F5075008100910EC
:10399E000A10D8A4D5EF1CF0D7EF1CF0E1EF1CF005
:1039AE00000E076E000E086E000E096E000E0A6EF7
:1039BE0072EF1DF0960E106EEBEF1CF0102AD890E1
:1039CE001432133212321132000E11140B6E000E1D
:1039DE0012140C6E000E13140D6EFE0E14140E6ED9
:1039EE000B500C100D100E10D8A400EF1DF002EFAE
:1039FE001DF0E5EF1CF010EF1DF0102A010E112640
:103A0E00000E122213221422D890143213321232C4
:103A1E001132000E11140B6E000E12140C6E000EED
:103A2E0013140D6EFF0E14140E6E0B500C100D10A1
:103A3E000E10D8A425EF1DF027EF1DF004EF1DF09A
:103A4E002FEF1DF01006D89011361236133614369D
:103A5E0013BE34EF1DF036EF1DF03EEF1DF0020EDB
:103A6E0010603CEF1DF03EEF1DF029EF1DF010B081
:103A7E0043EF1DF045EF1DF046EF1DF0139ED8905D
:103A8E00103210C50BF50C6A0D6A0E6A0BC50EF5D9
:103A9E000D6A0C6A0B6A0B5011120C5012120D505B
:103AAE0013120E5014120F50D8B460EF1DF062EFC7
:103ABE001DF06AEF1DF00ABE69EF1DF067EF1DF0F5
:103ACE006AEF1DF0148E11C507F512C508F513C562
:103ADE0009F514C50AF51200000E186E000E176EC9
:103AEE00000E116E000E106E7FEF1DF00A4A0B2AAB
:103AFE00010E166E610028F4F6F461002CF4F7F452
:103B0E00F86A0800F550200AD8B490EF1DF092EF35
:103B1E001DF0B2EF1DF0F70E0C6EFF0E0D6E610074
:103B2E0028F4F6F461002CF4F7F4F86A0800F55066
:103B3E000E6E0F6A0C500E260D500F220F5009E11B
:103B4E00050E0E5CD8A0AEEF1DF0B0EF1DF0B2EF7B
:103B5E001DF0000E166E16C512F5136A12501310D4
:103B6E00D8A4BCEF1DF0BEEF1DF07DEF1DF0C8EF29
:103B7E001DF0000E116E010E106E0A4A0B2A03EF95
:103B8E001EF0610028F4F6F461002CF4F7F4F86AE4
:103B9E000800F5500C6E0D6A0D50000AD8B4DAEF1D
:103BAE001DF003EF1EF00C502B0AD8B4C4EF1DF01D
:103BBE00060AD8B4C0EF1DF003EF1EF017C503F5CB
:103BCE0018C504F5000E066E0A0E056E1CEC27F0E5
:103BDE00610028F4F6F461002CF4F7F4F86A08009A
:103BEE00F550035E000E045A300E0324176E000EBD
:103BFE000420186EC4EF1DF0D00E0C6EFF0E0D6E6D
:103C0E00610028F4F6F461002CF4F7F4F86A080069
:103C1E00F5500E6E0F6A0C500E260D500F220F50DF
:103C2E000AE10A0E0E5CD8A01FEF1EF022EF1EF066
:103C3E00010E23EF1EF0000E146E156A14501510AF
:103C4E00D8A42CEF1EF02EEF1EF0E5EF1DF0105055
:103C5E001110D8A435EF1EF037EF1EF045EF1EF011
:103C6E0017C50CF518C50DF50C1E0D1E0C4A0D2AA8
:103C7E000CC50AF50DC50BF549EF1EF017C50AF573
:103C8E0018C50BF5120021EE72F211EE13F1060EAD
:103C9E00DBC4E3F4E806FCE210C51EF511C51FF502
:103CAE001E501F10D8A45EEF1EF060EF1EF064EFE2
:103CBE001EF0130E1E6E050E1F6E1EC503F51FC5DC
:103CCE0004F533EC25F003C522F504C523F5E2C552
:103CDE0020F5E3C521F521BE77EF1EF079EF1EF03A
:103CEE008EEF1EF02250205C2150800A126E23505F
:103CFE00800A1258D8A086EF1EF088EF1EF08AEFC9
:103D0E001EF08EEF1EF020C522F521C523F522C52B
:103D1E0020F523C521F5E0C51CF5E1C51DF505010E
:103D2E00E4B19CEF1EF09EEF1EF0BBEF1EF0ACEF69
:103D3E001EF0000E066E200E056E0EC507F50FC5A1
:103D4E0008F5A1EC23F0224A232A1C50225C2350B2
:103D5E00800A126E1D50800A1258D8A0B9EF1EF0BC
:103D6E00BBEF1EF0A0EF1EF0000E1B6E000E1A6EC3
:103D7E00E2EF1EF0610078F4F6F461007CF4F7F4E3
:103D8E00000EF86E150EF76403D00800F55005D03E
:103D9E00F6C4E9F4F7C4EAF4EF50126E1250056E51
:103DAE00066A0EC507F50FC508F5A1EC23F01E4AED
:103DBE001F2A1A4A1B2A20501A5C1B50800A126EA8
:103DCE002150800A1258D8A0EFEF1EF0F1EF1EF02E
:103DDE00C1EF1EF00501E4A1F7EF1EF0F9EF1EF0A2
:103DEE0016EF1FF007EF1FF0000E066E200E056E89
:103DFE000EC507F50FC508F5A1EC23F0224A232ABC
:103E0E001C50225C2350800A126E1D50800A1258DC
:103E1E00D8A014EF1FF016EF1FF0FBEF1EF022C517
:103E2E000EF523C50FF5120031EC27F0120E03012B
:103E3E00EC6F070E0001A413A6513F0B8009A66F6D
:103E4E00000E0501FC6F000EFB6F0A0E036E500E86
:103E5E00046EFCEC27F0CE0E036E480E046EE3ECFF
:103E6E0027F0D68E0501FB51D8B440EF1FF042EF7C
:103E7E001FF05AEF1FF0000EFB6F5B0EC66F160E93
:103E8E00C76F16EC26F003C5C8F504C5C9F546EC98
:103E9E0027F0000E046E000E036E01EC28F009EC04
:103EAE0028F0C8EF1FF0FC51D8B460EF1FF062EF9E
:103EBE001FF0C8EF1FF0000EFC6F330E196E330E9D
:103ECE001A6E530E1B6E400E1C6EB0EC27F003C51F
:103EDE0007F504C508F5096A0A6A000E99EC1CF08C
:103EEE0007C515F508C516F509C517F50AC518F560
:103EFE009CEC17F015C52EF516C52FF517C530F528
:103F0E0018C531F5000E326E000E336E800E346E13
:103F1E00450E356EC3EC19F02EC583F62FC584F60B
:103F2E0030C585F631C586F6C0B2A0EF1FF0A3EFFF
:103F3E001FF0010EA4EF1FF0000EFF0A5B6E5B4632
:103F4E00C0505B18FD0B5B18C06E480E0501C66FA6
:103F5E00160EC76F16EC26F003C5C8F504C5C9F5D5
:103F6E0046EC27F0330E0501C66F160EC76F83C6DB
:103F7E00C8F584C6C9F585C6CAF586C6CBF546EC26
:103F8E0027F0A5EC27F00009D8B4D0EF1FF0D2EF40
:103F9E001FF0C8EF1FF0030000F039EF1FF00DEF18
:103FAE0000F0053406340C6E0C50D8A4E1EF1FF06F
:103FBE00E3EF1FF0EDEF1FF0000E036E000E046E28
:103FCE00000E056E000E066E5AEF20F003C507F5C3
:103FDE0004C508F505C509F506C50AF5200EFDEF61
:103FEE001FF0D8900A32093208320732E82EF8EF65
:103FFE001FF007500B6E058EFF0E0316FF0E0416F4
:10400E00FF0E0516000E0616960E0C5E0CBE14EF75
:10401E0020F012EF20F02AEF20F00C50800A970FBC
:10402E00D8B01CEF20F01EEF20F020EF20F0E3EFD1
:10403E001FF0D89006320532043203320C3E20EFC8
:10404E0020F042EF20F01F0E0C6430EF20F032EF24
:10405E0020F03AEF20F0E3EF1FF0D890033604364D
:10406E00053606360C060C50D8A440EF20F042EF71
:10407E0020F034EF20F00B50D8B448EF20F04AEF88
:10408E0020F052EF20F0061E051E041E036C000EDB
:10409E0004220522062203C503F504C504F505C551
:1040AE0005F506C506F51200000E2E14366E000E2E
:1040BE002F14376E800E3014386E7F0E3114396E19
:1040CE003650371038103910D8A470EF20F072EF38
:1040DE0020F07AEF20F0000E2E6E000E2F6E000EE6
:1040EE00306E000E316E000E3214366E000E33142A
:1040FE00376E800E3414386E7F0E3514396E36508E
:10410E00371038103910D8A48FEF20F091EF20F02F
:10411E0099EF20F0000E326E000E336E000E346EEC
:10412E00000E356E31AE9EEF20F0A0EF20F0A9EF1D
:10413E0020F02E6C2F1ED8B02F2A301ED8B0302A69
:10414E00800E315635AEAEEF20F0B0EF20F0B9EF65
:10415E0020F0326C331ED8B0332A341ED8B0342A35
:10416E00800E3556000E2E1A000E2F1A000E301A23
:10417E00800E311A000E321A000E331A000E341A47
:10418E00800E351A32502E5C33502F583450305822
:10419E0035503158D8B0D6EF20F0D8EF20F0DBEF05
:1041AE0020F0D890DCEF20F0D8801200DAC50DF5A3
:1041BE00DBC50EF5DCC50FF5DDC510F503C50DF538
:1041CE0004C50EF505C50FF506C510F50DC507F5A9
:1041DE000EC508F50FC509F510C50AF5180EFDEF49
:1041EE0020F0D8900A32093208320732E82EF8EF62
:1041FE0020F007500B6E0C6A0B500C10D8A40AEF6F
:10420E0021F00CEF21F02CEF21F0D8900D34076E39
:10421E000E34086E0F34096E10340A6E07500810F3
:10422E0009100A10D8A41EEF21F020EF21F026EF7E
:10423E0021F0000E046E020E036E5BEF21F0000EF5
:10424E00046E030E036E5BEF21F00B280C10D8A446
:10425E0033EF21F035EF21F057EF21F00DC507F5C3
:10426E000EC508F50FC509F510C50AF5090ED8904B
:10427E000736083609360A36E82E3EEF21F007508B
:10428E00081009100A10D8B44FEF21F052EF21F0A8
:10429E00010E53EF21F0000E036E046A5BEF21F066
:1042AE00000E046E040E036E120003C50AF504C55B
:1042BE000BF505C50CF506C50DF50706D8A00806C5
:1042CE00072806E10828D8A46FEF21F071EF21F03E
:1042DE007EEF21F0000E046E000E036ED5EF21F07E
:1042EE000A4A0B2A0C4A0D2A0706D8A008066100B6
:1042FE0028F4D9F461002CF4DAF4DF50D8B48AEF44
:10430E0021F08CEF21F0BFEF21F0610030F4F6F4D4
:10431E00610034F4F7F4F86A0800F5500009D8B4D7
:10432E009BEF21F09DEF21F0BFEF21F00750081019
:10433E00D8B4A4EF21F0A6EF21F0BFEF21F0610079
:10434E0028F4D9F461002CF4DAF4DF50096E610020
:10435E0030F4F6F4610034F4F7F4F86A0800F5501E
:10436E000918D8B4BDEF21F0BFEF21F077EF21F09F
:10437E00610028F4D9F461002CF4DAF4DF50096EF0
:10438E00610030F4F6F4610034F4F7F4F86A0800D2
:10439E00F550095C036E046AD8A0040612000501EC
:1043AE00E4A1DCEF21F0DEEF21F0E8EF21F017C5FC
:1043BE000EF518C50FF515C510F516C511F5F4EC6B
:1043CE0025F01ABEEDEF21F0EFEF21F0F5EF21F021
:1043DE0019C51EF51AC51FF5F9EF21F0000E1F6E57
:1043EE00000E1E6E000E1D6E000E1C6E0BEF22F0E8
:1043FE00000E066E200E056E15C507F516C508F5DE
:10440E00A1EC23F01C4A1D2A1E501C5C1D50800A74
:10441E001B6E1F50800A1B58D8A018EF22F01AEFFF
:10442E0022F0FFEF21F00501E4B120EF22F022EFA0
:10443E0022F02CEF22F017C50EF518C50FF515C595
:10444E0010F516C511F5F4EC25F017C503F518C5D2
:10445E0004F533EC25F01E500324156E1F50042076
:10446E00166E1200000E086E06BE42EF22F040EFEE
:10447E0022F048EF22F0056C061ED8B0062A010E77
:10448E00086E04BE4FEF22F04DEF22F055EF22F0F2
:10449E00036C041ED8B0042A010E081A000E0A6E10
:1044AE00000E096E05500610D8B460EF22F062EFD0
:1044BE0022F08AEF22F0010E076E6AEF22F0D890FA
:1044CE0005360636072A06AE6FEF22F071EF22F0A0
:1044DE0066EF22F0D89009360A360550035C065076
:1044EE000458D8A07DEF22F07FEF22F084EF22F067
:1044FE000550035E0650045A0980D89006320532E4
:10450E00072E71EF22F00850D8B490EF22F092EF00
:10451E0022F096EF22F0096C0A1ED8B00A2A09C5BD
:10452E0003F50AC504F51200AC90000E036E000EE2
:10453E00046ECAEC27F0AC92000E036E000E046EF1
:10454E00C5EC27F0AC94000E036E000E046ED4EC96
:10455E0027F0AC96000E036E000E046EC0EC27F032
:10456E00000E0201A16F000EA26F000EA36F000ECF
:10457E00A46F000EA56F000EA66F000EA76F000EA3
:10458E00A86F000EA96F000EAA6FA00EAB6F800E63
:10459E00AC6F000EAD6F190EAE6F000EAF6F000E4A
:1045AE00B06F000EB16F000EB26F000EB36F000E43
:1045BE00036E000E046ED9EC27F0000E036E000E93
:1045CE00046ECFEC27F0000E036E000E046EDEECD0
:1045DE0027F0000E0501E66F1200000E086E04BEF5
:1045EE00FDEF22F0FBEF22F003EF23F0036C041E2D
:1045FE00D8B0042A010E086E06BE0AEF23F008EFAB
:10460E0023F00EEF23F0056C061ED8B0062A0550D7
:10461E000610D8B415EF23F017EF23F03BEF23F07D
:10462E00010E076E1FEF23F0D89005360636072AC7
:10463E0006AE24EF23F026EF23F01BEF23F00550F8
:10464E00035C06500458D8A02FEF23F031EF23F06F
:10465E0035EF23F00550035E0650045AD89006320B
:10466E000532072E26EF23F00850D8B441EF23F081
:10467E0043EF23F047EF23F0036C041ED8B0042A57
:10468E0003C503F504C504F51200000E03140B6EEA
:10469E00000E04140C6E800E05140D6E7F0E0614A3
:1046AE000E6E0B500C100D100E10D8A461EF23F0EF
:1046BE0063EF23F06BEF23F0000E036E000E046E1B
:1046CE00000E056E000E066E000E07140B6E000E29
:1046DE0008140C6E800E09140D6E7F0E0A140E6EE9
:1046EE000B500C100D100E10D8A480EF23F082EF9B
:1046FE0023F08AEF23F0000E076E000E086E000EF8
:10470E00096E000E0A6E075003180FE108500418C8
:10471E000CE10950051809E10A500618D8B49AEFB1
:10472E0023F09CEF23F09FEF23F0D890A0EF23F01F
:10473E00D880120007500810D8B4A8EF23F0AAEFC3
:10474E0023F0B3EF23F007500810D8A4B1EF23F0F5
:10475E00B3EF23F0B8EF23F00550BBEC27F0EBEFEF
:10476E0023F020EE04F00750D9260850DA22DE504E
:10477E00DE10D8B4C5EF23F0C7EF23F0E2EF23F03D
:10478E0020EE04F00750D9260850DA2210EE02F07F
:10479E000750E1260850E222DE50E65CE650800A21
:1047AE000D6EDE50800A0D58D8B0E0EF23F0E2EF28
:1047BE0023F0EBEF23F020EE02F00750D92608503D
:1047CE00DA22DE2A000EDD221200000EBE6E000E70
:1047DE00BF6E000EC06E3F0EC66E700EC76EFD0E23
:1047EE00C86E370E0401006F500E086FFC0E106F6E
:1047FE00000E016F000E096F010E116F000E026F99
:10480E00000E0A6F000E126F370E036FF00E0B6F55
:10481E0013693F0E046FF00E0C6F1469100E020137
:10482E00616F0D0E726F100E106F000E0401056F8A
:10483E00000E066F000E076F000E0D6F000E0E6F4E
:10484E00000E0F6F000E156F000E166F000E176F15
:10485E001200000E0301D96F000EDA6F000EDB6F2F
:10486E00000EDC6F000EDF6F000EE06F000EE56FC6
:10487E00000EE76F000EEC6F060EEE6F000EEF6F80
:10488E00000EF06F000EF16F000EF26F000EF46F5F
:10489E00100EF56F000EF66F000EF76F000EF86F2C
:1048AE00020EF96F000EFA6F940EF36FB494220E8F
:1048BE00036E500E046EFCEC27F0A984B590120026
:1048CE00010E0501FB6F0CEC28F00001A3A772EF9F
:1048DE0024F074EF24F07CEF24F0A487A5518F0B05
:1048EE001009A56FA3979BEF24F0A439070B070AB5
:1048FE00D8A484EF24F086EF24F08EEF24F08F0EF0
:10490E00A417A4978F0EA517A3879BEF24F0010E73
:10491E00016EA439070B026E01500226023AA45111
:10492E0002188F0B0218A46F1200C0C5C4F5C1C5C2
:10493E00C5F5000E0501DF6F000EDE6FBAEF24F035
:10494E00BEC5A4F5BFC5A5F5C40EA66F050EA76F0F
:10495E00C2C5A8F5C3C5A9F5A4EC11F00501A45173
:10496E00DE27A551DF23610010F7F6F4610014F77E
:10497E00F7F4F86A0800F5500009D8A4C9EF24F03E
:10498E00CBEF24F0A7EF24F0DEC5BEF5DFC5BFF5F3
:10499E00120005C509F506C50AF503C50BF504C5D4
:1049AE000CF50950076E0A50086E094A0A2A610072
:1049BE001CF4F6F4610020F4F7F4000EF86E6100BA
:1049CE002CF4D9F4610030F4DAF40B4A0C2A150EEB
:1049DE00F76403D00800F55005D0F6C4E9F4F7C427
:1049EE00EAF4EF50DF6EDF50D8A400EF25F002EFAF
:1049FE0025F0D8EF24F01200BF0E0B6EFF0E0C6EDA
:104A0E0009C50DF50AC50EF50B500D260C500E22DC
:104A1E000E500AE11A0E0D5CD8A018EF25F01BEF10
:104A2E0025F0010E1CEF25F0000E0F6E106A0F50D0
:104A3E001010D8B425EF25F027EF25F02EEF25F036
:104A4E00200E0910096E0A500A6E32EF25F009C5C4
:104A5E0009F50AC50AF5120003C505F504C506F5E4
:104A6E003BEF25F0034A042A61000CF4F6F46100D2
:104A7E0010F4F7F4000EF86E150EF76403D008006C
:104A8E00F55005D0F6C4E9F4F7C4EAF4EF50000986
:104A9E00D8A454EF25F056EF25F039EF25F0055048
:104AAE00035C036E06500458046E1200010E096E6C
:104ABE00200E03180410D8B467EF25F069EF25F027
:104ACE0082EF25F0F70E056EFF0E066E03C507F595
:104ADE0004C508F50550072606500822085009E1BE
:104AEE00050E075CD8A07EEF25F080EF25F082EF53
:104AFE0025F0000E096E09C503F5046A1200180EA2
:104B0E00F66E4F0EF76E000EF86E01EE60F210EEBE
:104B1E0019F00900F5C4EEF4E550E150FAE101EEAA
:104B2E0000F2600EEE6AE806FDE101EECEF11D0E1A
:104B3E00EE6AE806FDE15D6A5C6A0401080E5D6FCF
:104B4E00000E5E6F000E5F6F00011BEF1FF0000E78
:104B5E00321A000E331A000E341A800E351A2EC574
:104B6E0003F52FC504F530C505F531C506F532C57B
:104B7E0007F533C508F534C509F535C50AF53CEC1E
:104B8E0015F003C52EF504C52FF505C530F506C580
:104B9E0031F51200A9A4D6EF25F0D8EF25F0E3EFFA
:104BAE0025F0B4A4DDEF25F0DFEF25F0E3EF25F0DF
:104BBE00EEEC26F0F3EF25F0ABA6E8EF25F0EAEFEA
:104BCE0025F0F3EF25F0B6A6EFEF25F0F1EF25F087
:104BDE00F3EF25F0D6EC26F01100000E146E000E49
:104BEE00136E05EF26F012C505F5066A10C507F51A
:104BFE0011C508F5A1EC23F0134A142A13500E2404
:104C0E00D96E14500F20DA6EDF50126E1250D8A4E7
:104C1E0013EF26F015EF26F0FAEF25F01200000E36
:104C2E00066E0001A3B71EEF26F020EF26F025EF4B
:104C3E0026F0A439070B056E0528066E0650020DE8
:104C4E00600EF324D96E060EF420DA6E610078F34E
:104C5E0003F5610074F304F51200BF0E056EFF0E2E
:104C6E00066E03C507F504C508F505500726065060
:104C7E00082208500AE11A0E075CD8A049EF26F068
:104C8E004CEF26F0010E4DEF26F0000E036E046A77
:104C9E0012000350041005100610D8B459EF26F078
:104CAE005BEF26F063EF26F0000E031A000E041AD7
:104CBE00000E051A800E061A03C503F504C504F589
:104CCE0005C505F506C506F51200D00E056EFF0EDC
:104CDE00066E03C507F504C508F5055007260650F0
:104CEE00082208500AE10A0E075CD8A081EF26F0D0
:104CFE0084EF26F0010E85EF26F0000E036E046A97
:104D0E001200D69AB490D680000E036E000E046E7A
:104D1E00F7EC27F0B990D682000E036E000E046EEB
:104D2E00F2EC27F0BD90D684000E036E000E046EDA
:104D3E00EDEC27F01200010E0001D56F020ED76FB9
:104D4E00220ED86F060ED96F000EDA6F000EDB6FD3
:104D5E00080EDC6F110EDD6F000EDE6F000EDF6FC2
:104D6E00000ED46F840ED66F1200000E0001D56FA8
:104D7E00000ED76F060ED86F000ED96F000EDA6FC9
:104D8E00000EDB6F020EDC6F080EDD6F000EDE6FA5
:104D9E00000EDF6F000ED46F840ED66F1200B69623
:104DAE000501F151F211D8B4DFEF26F0E1EF26F054
:104DBE00EDEF26F002D8EDEF26F00500FA6EF15178
:104DCE00FD6EF251FE6EFF6AFA5012001200B4949C
:104DDE000501F951FA11D8B4F7EF26F0F9EF26F0E4
:104DEE0005EF27F002D805EF27F00500FA6EF9510E
:104DFE00FD6EFA51FE6EFF6AFA5012001200040E9A
:104E0E000301206F110E1F6F0F0E216F1D69000E13
:104E1E001C6F1E0E036E500E046EE3EC27F0B6965A
:104E2E00AB86800E03011E6F120003500502610057
:104E3E00CCF307F56100D0F308F503500602F350EA
:104E4E00082604500502F350082607C503F508C5C9
:104E5E0004F512006CEC27F0ECEC23F030EC24F0AF
:104E6E00BCEC26F0A2EC26F07EEC27F05AEC27F0F4
:104E7E0006EC27F09BEC22F088EC26F01200C80E10
:104E8E000501CC6F050ECD6F000EBE6F000EBF6F0D
:104E9E00C6C5C0F5C7C5C1F5CC0EC26F050EC36F32
:104EAE009CEC24F01200780E0301196F000E186F9F
:104EBE00980E1B6F200E036E500E046EE8EC27F05A
:104ECE00B69E800E03011A6F1200620E0001AD6FC6
:104EDE00700EAE6F000EAF6F000EB36F020EB16F9D
:104EEE00000EB26F000EB06F000EAC6F1200000E0F
:104EFE000001A46F020EA56F020EA66F000EA76F23
:104F0E00000EA96FA80EA36F1200961676167116D4
:104F1E006C1698167B1674169A169316286E756C68
:034F2E006C2900EB
:104F3200036EB7A29FEF27F0A1EF27F09AEF27F0B9
:104F420061000CF4A3F212000201B2BFABEF27F032
:104F5200AEEF27F0010EAFEF27F0000E12000301B3
:104F6200EB51066E056AEA510524036E000E062017
:104F7200046E1200046E045099EC27F0120003C56F
:104F82007BF604C57CF6120003C57FF604C580F6E5
:104F9200120003C581F604C582F6120003C5EDF5C1
:104FA20004C5EEF5120003C57DF604C57EF61200B7
:104FB20003C5EFF504C5F0F5120003C5EBF504C512
:104FC200ECF5120003C5F1F504C5F2F5120003C5B4
:104FD20079F604C57AF6120003C5F3F504C5F4F5B3
:104FE200120003C5F5F504C5F6F5120003C5F7F581
:104FF20004C5F8F5120003C5F9F504C5FAF5120067
:1050020061000CF418F31200010E0501FC6F12008E
:1050120003011A8F120003011A9F120012001200DC
:0250220012007A
:020000040020DA
:10000000FF0FFF0FFF0FFF0FFF0FFF0FFF0FFF0F80
:10001000FF0FFF0FFF0FFF0FFF0FFF0FFF0FFF0F70
:020000040030CA
:0A000000ECFFF7FF9FFFFFFFFFFF7B
:00000001FF
