:040000000DEF00F010
:04000800A3EF11F061
:06001800FF00C6EF11F02D
:1016000000841F0000F426000000007E277427607D
:101610002700000000000000000C27F82500000053
:10162000000000882700007626D427DA27C42792F6
:101630002700004D6561737572656D656E743A20A3
:10164000307825580A0D0A0D0043757272656E7464
:10165000204761696E3A2025730A0D004E65772098
:101660004761696E3A2025730A0D0A0D00312E3349
:101670003300312E313400312E303700322E3637E0
:0B16800000313600310032003800005D
:10168C0005017DBF4CEF0BF04EEF0BF04FEF0BF065
:10169C007E937DBF5CEF0BF07D5106E17C05D8B0ED
:1016AC005AEF0BF05CEF0BF062EF0BF0000E386EA4
:1016BC00010E376E66EF0BF07CC537F57DC538F53E
:1016CC007AC539F57BC53AF57EA96FEF0BF071EF52
:1016DC000BF075EF0BF0FE0E3926FF0E3A2222C5E9
:1016EC003BF523C53CF524C53DF525C53EF526C582
:1016FC003FF527C540F528C541F529C542F5000E33
:10170C00446E1F0E436E000EA46F41EF0CF04306A7
:10171C00D8A044060F0E3B14456E466A46BEA0EF99
:10172C000BF0465009E10A0E455CD8A0A0EF0BF077
:10173C00A2EF0BF0AAEF0BF0570E4524456E000EEE
:10174C004620466EB0EF0BF0300E4524456E000E71
:10175C004620466EBF0E2B6EFF0E2C6E2A502D6E41
:10176C002E6A2B502D262C502E222E500AE11A0EAA
:10177C002D5CD8A0C4EF0BF0C7EF0BF0010EC8EF37
:10178C000BF0000E336E346A33503410D8B4D1EFF2
:10179C000BF0D3EF0BF003EF0CF09F0E2B6EFF0E44
:1017AC002C6E200E45102D6E000E46102E6E2B50FA
:1017BC002D262C502E222E500AE11A0E2D5CD8A06C
:1017CC00EAEF0BF0EDEF0BF0010EEEEF0BF0000E6D
:1017DC00356E366A35503610D8B4F7EF0BF0F9EF9A
:1017EC000BF003EF0CF045C509F546C50AF54AECBC
:1017FC0011F009C545F50AC546F5850E4324D96E89
:10180C00050E4420DA6E610014F5DFF43706D8A01B
:10181C0038063906D8A03A063BC52BF53CC52CF545
:10182C003DC52DF53EC52EF53FC52FF540C530F510
:10183C0041C531F542C532F5050E2EEF0CF0D890AE
:10184C003232313230322F322E322D322C322B3288
:10185C00E82E25EF0CF02BC53BF52CC53CF52DC522
:10186C003DF52EC53EF52FC53FF530C540F531C5CC
:10187C0041F532C542F544BE4DEF0CF0445009E140
:10188C00020E435CD8A04DEF0CF04FEF0CF080EF44
:10189C000CF03B503C103D103E103F1040104110DE
:1018AC004210D8A45CEF0CF05EEF0CF08DEF0BF057
:1018BC0038BE6BEF0CF0385006E13704D8B069EF46
:1018CC000CF06BEF0CF08DEF0BF03ABE76EF0CF0EA
:1018DC003A5008E13904D8A076EF0CF078EF0CF010
:1018EC0080EF0CF005017EB37EEF0CF080EF0CF076
:1018FC008DEF0BF005017EA986EF0CF088EF0CF054
:10190C009FEF0CF04306D8A04406850E4324D96EF5
:10191C00050E4420DA6E6100A8F4DFF44306D8A06B
:10192C004406850E4324D96E050E4420DA6E300E23
:10193C00DF6E20C515F521C516F5850E4324176EEF
:10194C00050E4420186E39C519F53AC51AF55FEC29
:10195C000FF015C520F516C521F51200610024F510
:10196C00D9F4610028F5DAF4DEC4F6F4DDC4F7F43A
:10197C00F86A0800F550250AD8A4C7EF0CF0C9EF97
:10198C000CF0EAEF0DF0610024F5D9F4610028F5B4
:10199C00DAF4DE2A000EDD22000E05017B6F000E4C
:1019AC007A6F7AC57EF57BC57FF57C697D696100B0
:1019BC0024F5D9F4610028F5DAF4DEC4F6F4DDC4BC
:1019CC00F7F4F86A0800F550730AD8A4F0EF0CF09D
:1019DC00F2EF0CF027EF0DF0610024F5D9F4610063
:1019EC0028F5DAF4DE2A000EDD2261002CF5D9F49C
:1019FC00610030F5DAF461007CF34DF5020EDE2661
:101A0C0061007CF34EF5000EDD22610034F5D9F453
:101A1C00610038F5DAF4610078F359F5610074F37C
:101A2C005AF547C50EF548C50FF559C510F55AC5F9
:101A3C0011F50BEC0EF00EC547F50FC548F50AEF86
:101A4C000EF0610024F5D9F4610028F5DAF4DEC457
:101A5C00F6F4DDC4F7F4F86A0800F550780AD8B447
:101A6C003AEF0DF03CEF0DF051EF0DF0610024F565
:101A7C00D9F4610028F5DAF4DEC4F6F4DDC4F7F429
:101A8C00F86A0800F550580AD8A44FEF0DF051EF42
:101A9C000DF0ADEF0DF0610024F5D9F4610028F5DF
:101AAC00DAF4DEC4F6F4DDC4F7F4F86A0800610079
:101ABC00D4F35BF5610024F5D9F4610028F5DAF470
:101ACC00DE2A000EDD2261002CF5D9F4610030F520
:101ADC00DAF461007CF34DF5020EDE2661007CF336
:101AEC004EF5000EDD22610034F5D9F4610038F5B5
:101AFC00DAF4610078F34FF5610074F350F54FC5DB
:101B0C0051F550C552F5536A546A556A566A576A6C
:101B1C00586A47C520F548C521F551C522F552C56F
:101B2C0023F553C524F554C525F555C526F556C5DD
:101B3C0027F557C528F558C529F55BC52AF546EC98
:101B4C000BF020C547F521C548F50AEF0EF06100F2
:101B5C0024F5D9F4610028F5DAF4DEC4F6F4DDC41A
:101B6C00F7F4F86A0800F550250AD8A4C0EF0DF078
:101B7C00C2EF0DF0DBEF0DF0610024F5D9F461003C
:101B8C0028F5DAF4DE2A000EDD22000E066E250E94
:101B9C00056E47C507F548C508F51BEC10F0000E9F
:101BAC00486E010E476E0AEF0EF0610024F5D9F471
:101BBC00610028F5DAF4DE2A000EDD22000E486EF4
:101BCC00000E476E0AEF0EF0610024F5D9F46100A7
:101BDC0028F5DAF4DEC4F6F4DDC4F7F4F86A08008C
:101BEC00F550056E066A47C507F548C508F51BECA8
:101BFC0010F0610024F5D9F4610028F5DAF4DE2A3E
:101C0C00000EDD22D5EF0DF0120021EED3F111EE16
:101C1C0013F1060EDBC4E3F4E806FCE210C51EF576
:101C2C0011C51FF51E501F10D8A41FEF0EF021EF89
:101C3C000EF025EF0EF0130E1E6E050E1F6E1EC558
:101C4C0003F51FC504F579EC11F003C522F504C5A5
:101C5C0023F57CC520F57DC521F521BE38EF0EF0AE
:101C6C003AEF0EF04FEF0EF02250205C2150800A1C
:101C7C00126E2350800A1258D8A047EF0EF049EF8D
:101C8C000EF04BEF0EF04FEF0EF020C522F521C5F4
:101C9C0023F522C520F523C521F57AC51CF57BC596
:101CAC001DF505017EB15DEF0EF05FEF0EF07CEFE0
:101CBC000EF06DEF0EF0000E066E200E056E0EC5CA
:101CCC0007F50FC508F51BEC10F0224A232A1C500F
:101CDC00225C2350800A126E1D50800A1258D8A024
:101CEC007AEF0EF07CEF0EF061EF0EF0000E1B6E33
:101CFC00000E1A6EA3EF0EF0610078F4F6F461009A
:101D0C007CF4F7F4000EF86E150EF76403D008009F
:101D1C00F55005D0F6C4E9F4F7C4EAF4EF50126EAE
:101D2C001250056E066A0EC507F50FC508F51BECBB
:101D3C0010F01E4A1F2A1A4A1B2A20501A5C1B50EC
:101D4C00800A126E2150800A1258D8A0B0EF0EF003
:101D5C00B2EF0EF082EF0EF005017EA1B8EF0EF09F
:101D6C00BAEF0EF0D7EF0EF0C8EF0EF0000E066EC5
:101D7C00200E056E0EC507F50FC508F51BEC10F00F
:101D8C00224A232A1C50225C2350800A126E1D50BA
:101D9C00800A1258D8A0D5EF0EF0D7EF0EF0BCEF9A
:101DAC000EF022C50EF523C50FF5120012EC13F040
:101DBC00120E0301EC6F070E0001A413A6513F0B8A
:101DCC008009A66F000E0501C06F000EBF6FCC0E10
:101DDC00036E270E046EDDEC13F0C20E036E210EA3
:101DEC00046EC4EC13F0D68E0501C051D8B401EFCB
:101DFC000FF003EF0FF031EF0FF0000EC06FC0B219
:101E0C000AEF0FF00DEF0FF0010E0EEF0FF0000EBA
:101E1C00FF0AE86FE847C050E819FD0BE819C06EDF
:101E2C00490EE26F160EE36F28EC12F003C5E4F5D1
:101E3C0004C5E5F527EC13F0330E0501E26F160E21
:101E4C00E36F91EC13F003C5E4F504C5E5F527EC5D
:101E5C0013F04FEF0FF0BF51D8B437EF0FF039EF4D
:101E6C000FF04FEF0FF0000EBF6F5C0EE26F160E0F
:101E7C00E36F28EC12F003C5E4F504C5E5F527EC97
:101E8C0013F0000E046E000E036EE2EC13F0EAEC9D
:101E9C0013F086EC13F00009D8B457EF0FF059EF9C
:101EAC000FF04FEF0FF0030000F0FAEF0EF00DEF14
:101EBC0000F005017EA165EF0FF067EF0FF071EFF9
:101ECC000FF017C50EF518C50FF515C510F516C58D
:101EDC0011F5E8EC11F01ABE76EF0FF078EF0FF079
:101EEC007EEF0FF019C51EF51AC51FF582EF0FF026
:101EFC00000E1F6E000E1E6E000E1D6E000E1C6E70
:101F0C0094EF0FF0000E066E200E056E15C507F54A
:101F1C0016C508F51BEC10F01C4A1D2A1E501C5C43
:101F2C001D50800A1B6E1F50800A1B58D8A0A1EFB1
:101F3C000FF0A3EF0FF088EF0FF005017EB1A9EFC2
:101F4C000FF0ABEF0FF0B5EF0FF017C50EF518C58E
:101F5C000FF515C510F516C511F5E8EC11F017C500
:101F6C0003F518C504F579EC11F01E500324156E19
:101F7C001F500420166E1200AC90000E036E000E63
:101F8C00046EABEC13F0AC92000E036E000E046EFC
:101F9C00A6EC13F0AC94000E036E000E046EB5ECC0
:101FAC0013F0AC96000E036E000E046EA1EC13F051
:101FBC00000E0201A16F000EA26F000EA36F000EA7
:101FCC00A46F000EA56F000EA66F000EA76F000E7B
:101FDC00A86F000EA96F000EAA6FA00EAB6F800E3B
:101FEC00AC6F000EAD6F190EAE6F000EAF6F000E22
:101FFC00B06F000EB16F000EB26F000EB36F000E1B
:10200C00036E000E046EBAEC13F0000E036E000E9D
:10201C00046EB0EC13F0000E036E000E046EBFECF9
:10202C0013F0000E0501806F120007500810D8B491
:10203C0022EF10F024EF10F02DEF10F007500810E5
:10204C00D8A42BEF10F02DEF10F032EF10F005505C
:10205C009CEC13F065EF10F020EE04F00750D9263D
:10206C000850DA22DE50DE10D8B43FEF10F041EF0A
:10207C0010F05CEF10F020EE04F00750D926085059
:10208C00DA2210EE02F00750E1260850E222DE5070
:10209C00E65CE650800A0D6EDE50800A0D58D8B012
:1020AC005AEF10F05CEF10F065EF10F020EE02F03C
:1020BC000750D9260850DA22DE2A000EDD22120043
:1020CC00000EBE6E000EBF6E000EC06E3F0EC66ED2
:1020DC00700EC76EFD0EC86E370E0401006F500EE9
:1020EC00086FFC0E106F000E016F000E096F010ED1
:1020FC00116F000E026F000E0A6F000E126F370E7A
:10210C00036FF00E0B6F13693F0E046FF00E0C6F24
:10211C001469100E0201616F0D0E726F100E106FAC
:10212C00000E0401056F000E066F000E076F000E07
:10213C000D6F000E0E6F000E0F6F000E156F000E60
:10214C00166F000E176F1200000E0301D96F000EF0
:10215C00DA6F000EDB6F000EDC6F000EDF6F000E0F
:10216C00E06F000EE56F000EE76F000EEC6F060ED1
:10217C00EE6F000EEF6F000EF06F000EF16F000EA1
:10218C00F26F000EF46F100EF56F000EF66F000E6E
:10219C00F76F000EF86F020EF96F000EFA6F940EC7
:1021AC00F36FB494E40E036E270E046EDDEC13F0A3
:1021BC00A984B5901200010E0501BF6FEDEC13F070
:1021CC000001A3A7ECEF10F0EEEF10F0F6EF10F01B
:1021DC00A487A5518F0B1009A56FA39715EF11F0CC
:1021EC00A439070B070AD8A4FEEF10F000EF11F08A
:1021FC0008EF11F08F0EA417A4978F0EA517A387C5
:10220C0015EF11F0010E016EA439070B026E01508F
:10221C000226023AA45102188F0B0218A46F120066
:10222C00DCC5E0F5DDC5E1F5000E0501796F000EAA
:10223C00786F34EF11F0DAC547F5DBC548F5E00EE1
:10224C00496E050E4A6EDEC54BF5DFC54CF5B4EC98
:10225C000CF047500501782748507923610080F72E
:10226C00F6F4610084F7F7F4F86A0800F5500009F9
:10227C00D8A443EF11F045EF11F021EF11F078C520
:10228C00DAF579C5DBF512009F0E0B6EFF0E0C6EA6
:10229C0009C50DF50AC50EF50B500D260C500E2276
:1022AC000E500AE11A0E0D5CD8A05FEF11F062EF30
:1022BC0011F0010E63EF11F0000E0F6E106A0F504B
:1022CC001010D8B46CEF11F06EEF11F074EF11F038
:1022DC005F0E0914096E0A6A78EF11F009C509F549
:1022EC000AC50AF5120003C505F504C506F581EF0C
:1022FC0011F0034A042A61000CF4F6F4610010F4A6
:10230C00F7F4000EF86E150EF76403D00800F550C4
:10231C0005D0F6C4E9F4F7C4EAF4EF500009D8A4E8
:10232C009AEF11F09CEF11F07FEF11F00550035C68
:10233C00036E06500458046E1200A9A4A8EF11F005
:10234C00AAEF11F0B5EF11F0B4A4AFEF11F0B1EFAB
:10235C0011F0B5EF11F0E4EC12F0C5EF11F0ABA6F3
:10236C00BAEF11F0BCEF11F0C5EF11F0B6A6C1EF4A
:10237C0011F0C3EF11F0C5EF11F0CCEC12F011001D
:10238C00DA0EF66E260EF76E000EF86E01EEC1F147
:10239C0010EE19F00900F5C4EEF4E550E150FAE145
:1023AC0001EE60F1450EEE6AE806FDE15D6A5C6ADD
:1023BC000401080E5D6F000E5E6F000E5F6F000172
:1023CC00DCEF0EF0000E146E000E136EF9EF11F030
:1023DC0012C505F5066A10C507F511C508F51BEC05
:1023EC0010F0134A142A13500E24D96E14500F20D7
:1023FC00DA6EDF50126E1250D8A407EF12F009EF0C
:10240C0012F0EEEF11F012009F0E056EFF0E066E2D
:10241C00200E0310076E000E0410086E05500726E0
:10242C000650082208500AE11A0E075CD8A021EFCA
:10243C0012F024EF12F0010E25EF12F0000E036ED5
:10244C00046A1200000E066E0001A3B730EF12F002
:10245C0032EF12F037EF12F0A439070B056E052896
:10246C00066E0650020DC10EF324D96E050EF42033
:10247C00DA6E610078F303F5610074F304F5120071
:10248C009F0E056EFF0E066E03C507F504C508F515
:10249C00055007260650082208500AE11A0E075C60
:1024AC00D8A05BEF12F05EEF12F0010E5FEF12F0AE
:1024BC00000E036E046A1200BF0E056EFF0E066E50
:1024CC0003C507F504C508F5055007260650082274
:1024DC0008500AE11A0E075CD8A077EF12F07AEFD9
:1024EC0012F0010E7BEF12F0000E036E046A120064
:1024FC00D69AB490D680000E036E000E046ED8EC03
:10250C0013F0B990D682000E036E000E046ED3EC5D
:10251C0013F0BD90D684000E036E000E046ECEEC4C
:10252C0013F01200010E0001D56F020ED76F220EB0
:10253C00D86F060ED96F000EDA6F000EDB6F080E27
:10254C00DC6F110EDD6F000EDE6F000EDF6F000E04
:10255C00D46F840ED66F1200000E0001D56F000EE2
:10256C00D76F060ED86F000ED96F000EDA6F000E03
:10257C00DB6F020EDC6F080EDD6F000EDE6F000EDF
:10258C00DF6F000ED46F840ED66F1200B696050165
:10259C00AB51AC11D8B4D5EF12F0D7EF12F0E3EF8A
:1025AC0012F002D8E3EF12F00500FA6EAB51FD6E9B
:1025BC00AC51FE6EFF6AFA5012001200B494050181
:1025CC00BD51BE11D8B4EDEF12F0EFEF12F0FBEFEE
:1025DC0012F002D8FBEF12F00500FA6EBD51FD6E41
:1025EC00BE51FE6EFF6AFA5012001200040E030177
:1025FC00206F110E1F6F0F0E216F1D69000E1C6FC7
:10260C00E00E036E270E046EC4EC13F0B696AB8688
:10261C00800E03011E6F12004DEC13F066EC10F0EF
:10262C00AAEC10F0B2EC12F098EC12F05FEC13F094
:10263C003BEC13F0FCEC12F0C2EC0FF07EEC12F061
:10264C001200E40E0501E66F050EE76F000EDA6F5F
:10265C00000EDB6FE2C5DCF5E3C5DDF5E60EDE6FE3
:10266C00050EDF6F16EC11F01200780E0301196FD6
:10267C00000E186F980E1B6FE20E036E270E046E81
:10268C00C9EC13F0B69E800E03011A6F1200620E95
:10269C000001AD6F700EAE6F000EAF6F000EB36F1A
:1026AC00020EB16F000EB26F000EB06F000EAC6F69
:1026BC001200000E0001A46F020EA56F020EA66F91
:1026CC00000EA76F000EA96FA80EA36F1200841640
:1026DC00771672166D1686167C1675168816811668
:0726EC00286E756C6C2900DB
:1026F400036EB7A280EF13F082EF13F07BEF13F0B9
:1027040061000CF4A3F212000201B2BF8CEF13F0CB
:102714008FEF13F0010E90EF13F0000E120003017F
:10272400EB51066E056AEA510524036E000E06207D
:10273400046E1200046E04507AEC13F0120003C508
:10274400B5F504C5B6F5120003C5B9F504C5BAF567
:10275400120003C5BBF504C5BCF5120003C5A7F5FB
:1027640004C5A8F5120003C5B7F504C5B8F51200F1
:1027740003C5A9F504C5AAF5120003C5A5F504C54A
:10278400A6F5120003C5ABF504C5ACF5120003C5EC
:10279400ADF504C5AEF5120003C5AFF504C5B0F53B
:1027A400120003C5B1F504C5B2F5120003C5B3F5B3
:1027B40004C5B4F5120003C5BDF504C5BEF5120089
:1027C40061000CF418F31200010E0501C06F120031
:1027D40003011A8F120003011A9F12001200120043
:0227E4001200E1
:020000040020DA
:10000000FF0FFF0FFF0FFF0FFF0FFF0FFF0FFF0F80
:10001000FF0FFF0FFF0FFF0FFF0FFF0FFF0FFF0F70
:020000040030CA
:0A000000ECFFF7FF9FFFFFFFFFFF7B
:00000001FF
