:040000000DEF00F010
:04000800D6EF25F01A
:06001800FF0025EF24F0BB
:101600000020450000204F00000000BC4FB24F9E5C
:101610004F0000000000000000384F164E00000090
:10162000000000C64F0000BC4E1A5020500250D09F
:101630004F00004D656173757265643A2025312E47
:101640003366560A0D0A0D0043757272656E74207A
:101650004761696E3A2025730A0D004E6577204771
:1016600061696E3A2025730A0D0A0D00312E33335D
:1016700000312E313400312E303700322E36370013
:10168000494E46004E414E00696E66006E616E0026
:0D1690006C66003136003100320038000079
:10169E00000E05017B6F000E7A6F3CC58CF53DC5C3
:1016AE008DF53EC58EF53FC58FF58FBF63EF0BF001
:1016BE0061EF0BF079EF0BF0000E7B6F010E7A6F7E
:1016CE008CC503F58DC504F58EC505F58FC506F5DC
:1016DE0055EC26F003C58CF504C58DF505C58EF5C4
:1016EE0006C58FF5000E0501936F000E926FD0C5E3
:1016FE007EF5D1C57FF57A517B11D8A489EF0BF019
:10170E008BEF0BF092EF0BF0D4A590EF0BF092EF66
:10171E000BF0ACEF0BF07A517B11D8A499EF0BF0D4
:10172E009BEF0BF0A1EF0BF0000E616F2B0E606FB5
:10173E00A5EF0BF0000E616F2D0E606F60C500F609
:10174E00924B932B7E07D8A07F078CC503F58DC5D2
:10175E0004F58EC505F58FC506F5D2EC20F0030411
:10176E000410D8A4BDEF0BF0BFEF0BF016EF0CF08A
:10177E00BF0E416EFF0E426E4050436E446A4150A2
:10178E0043264250442244500AE11A0E435CD8A02C
:10179E00D3EF0BF0D6EF0BF0010ED7EF0BF0000EE0
:1017AE000501626F636B62516311D8B4E1EF0BF008
:1017BE00E3EF0BF0F1EF0BF0000E9225036E060E29
:1017CE009321046E800E056E160E066EFDEC24F04F
:1017DE00FDEF0BF0000E9225036E060E9321046EA4
:1017EE00880E056E160E066EFDEC24F00501FD0E3C
:1017FE007E27FF0E7F233AC515F53BC516F5000E65
:10180E00176E060E186E7EC519F57FC51AF5CBEC50
:10181E0021F015C53AF516C53BF5A3EF11F08CC5B1
:10182E0003F58DC504F58EC505F58FC506F5D2EC0D
:10183E0020F003500410D8A427EF0CF029EF0CF081
:10184E0080EF0CF0BF0E416EFF0E426E4050436EA5
:10185E00446A415043264250442244500AE11A0E33
:10186E00435CD8A03DEF0CF040EF0CF0010E41EFC1
:10187E000CF0000E0501646F656B64516511D8B4F0
:10188E004BEF0CF04DEF0CF05BEF0CF0000E9225D1
:10189E00036E060E9321046E840E056E160E066EF2
:1018AE00FDEC24F067EF0CF0000E9225036E060E91
:1018BE009321046E8C0E056E160E066EFDEC24F052
:1018CE000501FD0E7E27FF0E7F233AC515F53BC59C
:1018DE0016F5000E176E060E186E7EC519F57FC52D
:1018EE001AF5CBEC21F015C53AF516C53BF5A3EF6D
:1018FE0011F0000E0501946F000E956F800E966F1D
:10190E003F0E976F000E916F000E906F8CC503F512
:10191E008DC504F58EC505F58FC506F5000E076E4F
:10192E00000E086E000E096E000E0A6E41EC23F0DA
:10193E00D8B0A4EF0CF0A6EF0CF029EF0DF0C5EF28
:10194E000CF094C515F595C516F596C517F597C502
:10195E0018F5000E196E000E1A6E200E1B6E410E3B
:10196E001C6E9AEC17F015C594F516C595F517C5AE
:10197E0096F518C597F50501904B912B8CC52EF554
:10198E008DC52FF58EC530F58FC531F5000E196E4C
:10199E00000E1A6E200E1B6E410E1C6E94C515F5B0
:1019AE0095C516F596C517F597C518F59AEC17F067
:1019BE0015C532F516C533F517C534F518C535F509
:1019CE0050EC20F0D8B0EEEF0CF0F0EF0CF0A8EFEA
:1019DE000CF010EF0DF094C503F595C504F596C502
:1019EE0005F597C506F5000E076E000E086E200E63
:1019FE00096E410E0A6EC1EC19F003C594F504C5CB
:101A0E0095F505C596F506C597F505019007D8A07D
:101A1E0091078CC52EF58DC52FF58EC530F58FC56A
:101A2E0031F594C532F595C533F596C534F597C5A0
:101A3E0035F550EC20F0D8A027EF0DF029EF0DF082
:101A4E00F2EF0CF040C509F50A6A30EC25F00950AA
:101A5E000501816F81C580F5670E8119D8A43AEF13
:101A6E000DF03CEF0DF062EF0DF0D251D311D8A472
:101A7E0043EF0DF045EF0DF049EF0DF0000ED36F73
:101A8E00010ED26FD3BF56EF0DF0D35106E1D20542
:101A9E00D8B054EF0DF056EF0DF05CEF0DF0000ED8
:101AAE007D6F060E7C6F6BEF0DF0D2C57CF5D3C546
:101ABE007DF56BEF0DF0D3BF67EF0DF069EF0DF015
:101ACE0056EF0DF05CEF0DF0670E8119D8A472EF92
:101ADE000DF074EF0DF0A3EF0DF091AF82EF0DF05E
:101AEE00FC0E905DFF0E9159D8A080EF0DF082EFA5
:101AFE000DF0A1EF0DF0FF0E416EFF0E426E7CC594
:101B0E0043F57DC544F54150432642504422905141
:101B1E00435C4450800A456E9151800A4558D8A0C6
:101B2E009BEF0DF09DEF0DF0A1EF0DF0660E806FA7
:101B3E00A3EF0DF0650E806F7CC572F57DC573F554
:101B4E00670E8119D8A4AEEF0DF0B0EF0DF0C0EF17
:101B5E000DF0660E8019D8A4B7EF0DF0B9EF0DF0A9
:101B6E00C2EF0DF091BFC0EF0DF0BEEF0DF0C2EF62
:101B7E000DF0724B732B660E8019D8A4C9EF0DF0C1
:101B8E00CBEF0DF0EBEF0DF091BFD2EF0DF0D0EFEC
:101B9E000DF0DEEF0DF0000E946F000E956F800EBF
:101BAE00966F3F0E976F000E916F000E906F670E3F
:101BBE008119D8B4E5EF0DF0E7EF0DF0EBEF0DF076
:101BCE009051722791517323000E8B6F000E8A6F06
:101BDE008CC582F58DC583F58EC584F58FC585F5CB
:101BEE0094C574F595C575F596C576F597C577F5D3
:101BFE007CEF0EF082C503F583C504F584C505F5AB
:101C0E0085C506F594C507F595C508F596C509F57C
:101C1E0097C50AF5C1EC19F003C51CF504C51DF5F1
:101C2E0005C51EF506C51FF58EEC1BF01CC586F509
:101C3E001DC587F51EC588F51FC589F586C503F533
:101C4E0087C504F588C505F589C506F5CDEC1FF0E9
:101C5E0003C578F504C579F582C52EF583C52FF534
:101C6E0084C530F585C531F594C519F595C51AF5B8
:101C7E0096C51BF597C51CF586C515F587C516F5D2
:101C8E0088C517F589C518F59AEC17F015C532F504
:101C9E0016C533F517C534F518C535F5B3EC25F073
:101CAE002EC582F52FC583F530C584F531C585F572
:101CBE0094C503F595C504F596C505F597C506F5C6
:101CCE00000E076E000E086E200E096E410E0A6E93
:101CDE00C1EC19F003C594F504C595F505C596F547
:101CEE0006C597F505018A4B8B2B72518A5D8B5178
:101CFE00800A416E7351800A4158D8A089EF0EF0C8
:101D0E008BEF0EF001EF0EF094C515F595C516F597
:101D1E0096C517F597C518F5000E196E000E1A6EBA
:101D2E00A00E1B6E400E1C6E9AEC17F015C586F5B4
:101D3E0016C587F517C588F518C589F582C52EF520
:101D4E0083C52FF584C530F585C531F586C532F5C9
:101D5E0087C533F588C534F589C535F550EC20F0C7
:101D6E00D8B0BCEF0EF0BEEF0EF0C9EF0EF0000EC5
:101D7E000501866F000E876F000E886F000E896F4B
:101D8E00F2EF0EF082C503F583C504F584C505F5A3
:101D9E0085C506F586C507F587C508F588C509F515
:101DAE0089C50AF541EC23F0D8A0E0EF0EF0E2EF82
:101DBE000EF0F2EF0EF0050178B1E8EF0EF0EAEF5B
:101DCE000EF0F2EF0EF0000E866F000E876F000E13
:101DDE00886F000E896F8CC503F58DC504F58EC511
:101DEE0005F58FC506F586C507F587C508F588C5BF
:101DFE0009F589C50AF53AEC15F003C582F504C557
:101E0E0083F505C584F506C585F582C52EF583C512
:101E1E002FF584C530F585C531F5000E196E000E0F
:101E2E001A6E200E1B6E410E1C6E74C515F575C50F
:101E3E0016F576C517F577C518F59AEC17F015C592
:101E4E0032F516C533F517C534F518C535F550EC12
:101E5E0020F0D8A035EF0FF037EF0FF060EF0FF056
:101E6E000501904B912B74C515F575C516F576C504
:101E7E0017F577C518F5000E196E000E1A6E200EA6
:101E8E001B6E410E1C6E9AEC17F015C574F516C537
:101E9E0075F517C576F518C577F5660E0501801927
:101EAE00D8A45CEF0FF05EEF0FF060EF0FF0724B07
:101EBE00732B74C594F575C595F576C596F577C5EE
:101ECE0097F5650E05018019D8B470EF0FF072EF1B
:101EDE000FF078EF0FF090C570F591C571F57CEFAE
:101EEE000FF0000E716F000E706F000E6F6F000E10
:101EFE006E6F000E6D6F000E6C6F000E8B6F000E0E
:101F0E008A6F77EF10F082C503F583C504F584C59B
:101F1E0005F585C506F594C507F595C508F596C56D
:101F2E0009F597C50AF5C1EC19F003C51CF504C5F2
:101F3E001DF505C51EF506C51FF58EEC1BF01CC55F
:101F4E0086F51DC587F51EC588F51FC589F586C59D
:101F5E0003F587C504F588C505F589C506F5CDECED
:101F6E001FF003C578F504C579F50501D4B9C2EFA4
:101F7E000FF0C4EF0FF0E1EF0FF078517911D8A404
:101F8E00CBEF0FF0CDEF0FF0E1EF0FF0670E8119F1
:101F9E00D8A4D4EF0FF0D6EF0FF0E1EF0FF071BF32
:101FAE00DDEF0FF0DBEF0FF0E1EF0FF06C4B6D2B71
:101FBE002BEF10F06E516F11D8A4E8EF0FF0EAEF8F
:101FCE000FF014EF10F071BFF1EF0FF0EFEF0FF015
:101FDE0014EF10F0000E9225D96E060E9321DA6ED4
:101FEE002E0EDF6E924B932B7E07D8A07F07000E2E
:101FFE006F6F010E6E6F14EF10F0000E9225D96EFA
:10200E00060E9321DA6E300EDF6E924B932B7E0707
:10201E00D8A07F076C07D8A06D076C516D11D8A49E
:10202E001BEF10F01DEF10F004EF10F0000E9225D4
:10203E00D96E060E9321DA6E7851300FDF6E924B09
:10204E00932B7E07D8A07F0782C52EF583C52FF56B
:10205E0084C530F585C531F594C519F595C51AF5C4
:10206E0096C51BF597C51CF586C515F587C516F5DE
:10207E0088C517F589C518F59AEC17F015C532F510
:10208E0016C533F517C534F518C535F5B3EC25F07F
:10209E002EC582F52FC583F530C584F531C585F57E
:1020AE0094C503F595C504F596C505F597C506F5D2
:1020BE00000E076E000E086E200E096E410E0A6E9F
:1020CE00C1EC19F003C594F504C595F505C596F553
:1020DE0006C597F505017007D8A071078A4B8B2BA3
:1020EE0072518A5D8B51800A416E7351800A41583C
:1020FE00D8B084EF10F086EF10F094EF10F093BF8D
:10210E0092EF10F0935109E14B0E925DD8A092EF31
:10211E0010F094EF10F08AEF0FF06E516F11D8A4FB
:10212E009BEF10F09DEF10F0AEEF10F0D4A9A2EFE0
:10213E0010F0A4EF10F0AEEF10F0000E9225D96E55
:10214E00060E9321DA6E2E0EDF6E924B932B000E3F
:10215E009225D96E060E9321DA6E000EDF6E650E95
:10216E008019D8A4BDEF10F0BFEF10F091EF11F071
:10217E00000E8B6F4F0E8A6F000E8A25D96E060EDB
:10218E008B21DA6E000EDF6E000E7B6F000E7A6F03
:10219E0091BFD6EF10F0D4EF10F0DEEF10F0000E7E
:1021AE007B6F010E7A6F906D911FD8B0912B000E40
:1021BE007D6F020E7C6F0FEF11F08A07D8A08B0790
:1021CE00000E8A25D96E060E8B21DA6E90C503F5A8
:1021DE0091C504F5000E066E0A0E056EE9EC22F0AE
:1021EE000350300FDF6E90C503F591C504F5000E58
:1021FE00066E0A0E056E2EEC22F003C590F504C590
:10220E0091F505017C07D8A07D077E07D8A07F0732
:10221E0090519111D8A416EF11F018EF11F0E4EFD0
:10222E0010F07DBF25EF11F07D5106E17C05D8B091
:10223E0023EF11F025EF11F0E4EF10F08A07D8A08C
:10224E008B077A517B11D8A42FEF11F031EF11F0DB
:10225E0037EF11F0000E676F2B0E666F3BEF11F02C
:10226E00000E676F2D0E666F000E8A25D96E060E54
:10227E008B21DA6E610098F5DFF47E07D8A07F0718
:10228E008A07D8A08B07BF0E416EFF0E426E4050DC
:10229E00436E446A415043264250442244500AE160
:1022AE001A0E435CD8A05EEF11F061EF11F0010E33
:1022BE0062EF11F0000E6A6F6B6B6A516B11D8A44E
:1022CE006BEF11F06DEF11F073EF11F0000E696FFF
:1022DE00650E686F77EF11F0000E696F450E686F2F
:1022EE00000E8A25D96E060E8B21DA6E6100A0F5DE
:1022FE00DFF47E07D8A07F07000E9225036E060E30
:10230E009321046E000E8A25056E060E8B21066E35
:10231E00FDEC24F03AC515F53BC516F5000E176E0B
:10232E00060E186E7EC519F57FC51AF5CBEC21F099
:10233E0015C53AF516C53BF51200610020F5D9F426
:10234E00610024F5DAF4DEC4F6F4DDC4F7F4F86ABD
:10235E000800F550250AD8A4B7EF11F0B9EF11F027
:10236E0019EF15F0610020F5D9F4610024F5DAF4C7
:10237E00DE2A000EDD22000E0501D16F000ED06F99
:10238E00D0C5D4F5D1C5D5F5D269D369610020F594
:10239E00D9F4610024F5DAF4DEC4F6F4DDC4F7F402
:1023AE00F86A0800F5502A0AD8A4E0EF11F0E2EF1F
:1023BE0011F015EF12F0610020F5D9F4610024F54B
:1023CE00DAF4DE2A000EDD22610028F5D9F4610070
:1023DE002CF5DAF461007CF34CF5020EDE2661007A
:1023EE007CF34DF5000EDD22610030F5D9F461006D
:1023FE0034F5DAF4610078F3D0F5610074F3D1F5B9
:10240E00D1BF0EEF12F00CEF12F062EF12F0D4818A
:10241E00D06DD11FD8B0D12B62EF12F0610020F534
:10242E00D9F4610024F5DAF4610078F30AF561005D
:10243E0074F30BF571EC1DF00AC5D0F50BC5D1F593
:10244E0032EF12F0610020F5D9F4610024F5DAF4D0
:10245E00DE2A000EDD22D00E4C6EFF0E4D6E610098
:10246E0020F5D9F4610024F5DAF4DEC4F6F4DDC407
:10247E00F7F4F86A0800F5504E6E4F6A4C504E262F
:10248E004D504F224F500AE10A0E4E5CD8A052EF2B
:10249E0012F055EF12F0010E56EF12F0000E05017C
:1024AE009A6F9B6B9A519B11D8A460EF12F062EF5A
:1024BE0012F029EF12F0610020F5D9F4610024F535
:1024CE00DAF4DEC4F6F4DDC4F7F4F86A0800F55069
:1024DE002E0AD8A475EF12F077EF12F00DEF13F06D
:1024EE00000ED36F000ED26F610020F5D9F461009B
:1024FE0024F5DAF4DE2A000EDD22610020F5D9F48F
:10250E00610024F5DAF4DEC4F6F4DDC4F7F4F86AFB
:10251E000800F5502A0AD8A497EF12F099EF12F09E
:10252E00C0EF12F0610020F5D9F4610024F5DAF461
:10253E00DE2A000EDD22610028F5D9F461002CF5AB
:10254E00DAF461007CF34CF5020EDE2661007CF3BA
:10255E004DF5000EDD22610030F5D9F4610034F541
:10256E00DAF4610078F3D2F5610074F3D3F50DEF70
:10257E0013F0610020F5D9F4610024F5DAF461005E
:10258E0078F30AF5610074F30BF571EC1DF00AC5D2
:10259E00D2F50BC5D3F5DDEF12F0610020F5D9F4BD
:1025AE00610024F5DAF4DE2A000EDD22D00E4C6E28
:1025BE00FF0E4D6E610020F5D9F4610024F5DAF4BA
:1025CE00DEC4F6F4DDC4F7F4F86A0800F5504E6E7A
:1025DE004F6A4C504E264D504F224F500AE10A0E74
:1025EE004E5CD8A0FDEF12F000EF13F0010E01EFDC
:1025FE0013F0000E05019C6F9D6B9C519D11D8A48C
:10260E000BEF13F00DEF13F0D4EF12F0610020F585
:10261E00D9F4610024F5DAF4DEC4F6F4DDC4F7F47F
:10262E00F86A0800F550096E0A6A30EC25F0095078
:10263E000501A46FA451D8B427EF13F029EF13F0BE
:10264E0071EF13F0610020F5D9F4610024F5DAF48E
:10265E00610078F34CF5610074F34DF5010E4C26D4
:10266E00000E4D22610030F5F6F4610034F5F7F4FA
:10267E00F86A0800F550096E0A6A30EC25F0095028
:10268E000501A56FA551D8B44FEF13F051EF13F01C
:10269E0071EF13F0610020F5D9F4610024F5DAF43E
:1026AE00610078F34CF5610074F34DF5020E4C2683
:1026BE00000E4D22610030F5F6F4610034F5F7F4AA
:1026CE00F86A0800F550096E0A6A30EC25F00950D8
:1026DE000501A66F660EA419D8A478EF13F07AEF51
:1026EE0013F0CAEF13F0610020F5D9F4610024F560
:1026FE00DAF4DEC4F6F4DDC4F7F4F86A080061001B
:10270E00D4F3A7F5610020F5D9F4610024F5DAF4CD
:10271E00DE2A000EDD22610028F5D9F461002CF5C9
:10272E00DAF461007CF34CF5040EDE2661007CF3D6
:10273E004DF5000EDD22610030F5D9F4610034F55F
:10274E00DAF4610078F3A0F5610078F3A1F5610089
:10275E0078F3A2F5610078F3A3F546C53AF547C5BF
:10276E003BF5A0C53CF5A1C53DF5A2C53EF5A3C5FB
:10277E003FF5A7C540F54FEC0BF03AC546F53BC506
:10278E0047F539EF15F0A40E036E050E046E900E8C
:10279E00056E160E066E000E086E020E076E51ECDA
:1027AE0021F003500410D8A4DFEF13F0E1EF13F083
:1027BE0092EF14F0610020F5D9F4610024F5DAF4FB
:1027CE00610078F34CF5610074F34DF5010E4C2663
:1027DE00000E4D22610030F5F6F4610034F5F7F489
:1027EE00F86A08006100D4F3A7F5BF0E4C6EFF0E19
:1027FE004D6E610020F5D9F4610024F5DAF4DEC4E3
:10280E00F6F4DDC4F7F4F86A0800F5504E6E4F6A20
:10281E004C504E264D504F224F500AE11A0E4E5C30
:10282E00D8A01CEF14F01FEF14F0010E20EF14F0DF
:10283E00000E05019E6F9F6B9E519F11D8B42AEF1B
:10284E0014F02CEF14F050EF14F0610028F5D9F4C9
:10285E0061002CF5DAF461007CF34CF5040EDE26F3
:10286E0061007CF34DF5000EDD22610030F5D9F4E8
:10287E00610034F5DAF4610078F3A0F5610078F3C5
:10288E00A1F5610078F3A2F5610078F3A3F572EF7C
:10289E0014F0610028F5D9F461002CF5DAF461002A
:1028AE007CF34CF5040EDE2661007CF34DF5000E34
:1028BE00DD22610030F5D9F4610034F5DAF46100FF
:1028CE0078F3A0F5610078F3A1F5610078F3A2F535
:1028DE00610078F3A3F5020E610020F5D9F46100D2
:1028EE0024F5DAF4DE26000EDD2246C53AF547C59C
:1028FE003BF5A0C53CF5A1C53DF5A2C53EF5A3C56A
:10290E003FF5A7C540F54FEC0BF03AC546F53BC574
:10291E0047F539EF15F0610020F5D9F4610024F583
:10292E00DAF4DEC4F6F4DDC4F7F4F86A0800F55004
:10293E00730AD8A4A5EF14F0A7EF14F0DCEF14F08F
:10294E00610020F5D9F4610024F5DAF4DE2A000ED8
:10295E00DD22610028F5D9F461002CF5DAF461006E
:10296E007CF34CF5020EDE2661007CF34DF5000E75
:10297E00DD22610030F5D9F4610034F5DAF461003E
:10298E0078F398F5610074F399F546C50EF547C5D1
:10299E000FF598C510F599C511F548EC1EF00EC54A
:1029AE0046F50FC547F539EF15F0610020F5D9F45E
:1029BE00610024F5DAF4DEC4F6F4DDC4F7F4F86A47
:1029CE000800F550250AD8A4EFEF14F0F1EF14F03B
:1029DE000AEF15F0610020F5D9F4610024F5DAF460
:1029EE00DE2A000EDD22000E066E250E056E46C591
:1029FE0007F547C508F596EC23F0000E476E010E5D
:102A0E00466E39EF15F0610020F5D9F4610024F51A
:102A1E00DAF4DE2A000EDD22000E476E000E466E40
:102A2E0039EF15F0610020F5D9F4610024F5DAF4E0
:102A3E00DEC4F6F4DDC4F7F4F86A0800F550056E4E
:102A4E00066A46C507F547C508F596EC23F0610002
:102A5E0020F5D9F4610024F5DAF4DE2A000EDD2229
:102A6E0004EF15F012000650800B0F6E0650062470
:102A7E00116E05AE45EF15F047EF15F048EF15F066
:102A8E0011801150D8B44EEF15F050EF15F065EFE0
:102A9E0015F01128D8A456EF15F058EF15F060EF89
:102AAE0015F0000E036E000E046E000E056E000E85
:102ABE00066E058E000E066E6DEF15F0000E036E9F
:102ACE00000E046E000E056E000E066E0A50800B90
:102ADE00106E0F501018D8B477EF15F079EF15F07F
:102AEE007AEF15F00F8C0A500A24106E09AE82EFA1
:102AFE0015F084EF15F085EF15F010801050D8B456
:102B0E008BEF15F08DEF15F0A2EF15F01028D8A46D
:102B1E0093EF15F095EF15F09DEF15F0000E076E83
:102B2E00000E086E000E096E000E0A6E098E000E63
:102B3E000A6EAAEF15F0000E076E000E086E000E5C
:102B4E00096E000E0A6E1150105CD8B0B1EF15F080
:102B5E00B3EF15F0DAEF15F00FACB8EF15F0BAEFE2
:102B6E0015F0BCEF15F0800E0F1A11C512F510C539
:102B7E0011F512C510F503C512F507C503F512C5FB
:102B8E0007F504C512F508C504F512C508F505C507
:102B9E0012F509C505F512C509F506C512F50AC5E2
:102BAE0006F512C50AF5000E126E115010C50BF582
:102BBE000C6A0B5E000E0C5A0CBEEFEF15F00C50AB
:102BCE0009E11A0E0B5CD8A0EFEF15F0F1EF15F03E
:102BDE0028EF16F00350041005100610D8A4FAEFD3
:102BEE0015F0FDEF15F0010EFEEF15F0000E126E52
:102BFE00000E036E000E046E000E056E000E066EC5
:102C0E0010C511F531EF16F012A010EF16F012EFFD
:102C1E0016F018EF16F0D89012300109126E1AEF56
:102C2E0016F0D890123203A01FEF16F021EF16F017
:102C3E0022EF16F0128E06340632053204320332BB
:102C4E00112A1050115CD8A02FEF16F031EF16F0AC
:102C5E000BEF16F00FBC36EF16F038EF16F078EFDC
:102C6E0016F01150D8A43EEF16F040EF16F04AEFD2
:102C7E0016F0000E036E000E046E000E056E000EB2
:102C8E00066E99EF17F007500326085004220950DC
:102C9E0005220A50062206A057EF16F059EF16F03D
:102CAE0005EF17F012A05EEF16F060EF16F066EF6C
:102CBE0016F0D89012300109126E68EF16F0D89007
:102CCE00123203A06DEF16F06FEF16F070EF16F0E4
:102CDE00128E06340632053204320332112A05EF03
:102CEE0017F00750035C0850045809500558065059
:102CFE00800A0B6E0A50800A0B58D8B089EF16F076
:102D0E008BEF16F0B6EF16F00350075C0B6E045007
:102D1E0008580C6E055009580D6E06500A580E6E66
:102D2E00FF0E0B24036EFF0E0C20046EFF0E0D2003
:102D3E00056EFF0E0E20066E800E0F1A126C1250CC
:102D4E00D8A4ACEF16F0AEEF16F0BEEF16F0010EF3
:102D5E000326000E042205220622BEEF16F00750AF
:102D6E00035E0850045A0950055A0A50065A035079
:102D7E00041005100610D8A4C7EF16F0C9EF16F010
:102D8E00FEEF16F01250D8A4CFEF16F0D1EF16F0DA
:102D9E00FEEF16F0000E036E000E046E000E056EB2
:102DAE00000E066E99EF17F0D890033604360536EE
:102DBE00063612AEE5EF16F0E7EF16F0E8EF16F076
:102DCE00038012A0EDEF16F0EFEF16F0F3EF16F012
:102DDE00D8801236F5EF16F0D89012361150D8B4BE
:102DEE00FBEF16F0FDEF16F0FEEF16F0110605AE36
:102DFE0003EF17F005EF17F0DBEF16F0000E106E75
:102E0E0012AE0CEF17F00EEF17F026EF17F012C5FB
:102E1E000BF57F0E0B16D8B417EF17F019EF17F04E
:102E2E001DEF17F0010E106E26EF17F003A022EF24
:102E3E0017F024EF17F026EF17F019EF17F01050D8
:102E4E00D8B42CEF17F02EEF17F059EF17F0010E44
:102E5E000326000E04220522062206A039EF17F0E3
:102E6E003BEF17F059EF17F003C50BF504C50CF542
:102E7E0005C50DF506C50EF50E340E320D320C32AB
:102E8E000B320BC503F50CC504F50DC505F50EC5C6
:102E9E0006F51128D8B456EF17F058EF17F059EF82
:102EAE0017F0112A1128D8B45FEF17F061EF17F061
:102EBE0069EF17F01150D8A467EF17F069EF17F00C
:102ECE007BEF17F0000E036E000E046E000E056E03
:102EDE00000E066E1150D8A477EF17F079EF17F0A9
:102EEE007BEF17F0000E0F6E11A080EF17F082EF40
:102EFE0017F085EF17F0058E86EF17F0059ED89028
:102F0E001130066E0FAE8EEF17F090EF17F091EFB7
:102F1E0017F0068E03C503F504C504F505C505F5C2
:102F2E0006C506F512001850800B216E1850182495
:102F3E00276E17AEA5EF17F0A7EF17F0A8EF17F053
:102F4E0027802750D8B4AEEF17F0B0EF17F0C3EFCD
:102F5E0017F02728D8A4B6EF17F0B8EF17F0C0EF88
:102F6E0017F0000E156E000E166E000E176E000E88
:102F7E00186E178ECBEF17F0000E156E000E166E34
:102F8E00000E176E000E186E1C50800B211A1C506E
:102F9E001C24226E1BAED6EF17F0D8EF17F0D9EF28
:102FAE0017F022802250D8B4DFEF17F0E1EF17F0C0
:102FBE00F4EF17F02228D8A4E7EF17F0E9EF17F097
:102FCE00F1EF17F0000E196E000E1A6E000E1B6E4A
:102FDE00000E1C6E1B8EFCEF17F0000E196E000E0D
:102FEE001A6E000E1B6E000E1C6E2250D8B402EF2D
:102FFE0018F004EF18F00CEF18F02750D8A40AEFD1
:10300E0018F00CEF18F016EF18F0000E156E000EFB
:10301E00166E000E176E000E186EC0EF19F01B50D4
:10302E0015026100CCF32CF56100D0F32DF52C5078
:10303E00236E246A256A266A2D50286E296A2A6A0A
:10304E002B6A1A5016026100CCF32CF56100D0F3F6
:10305E002DF52C502326000E2422252226222D501B
:10306E002826000E29222A222B221950170261002F
:10307E00CCF32CF56100D0F32DF52C502326000E49
:10308E002422252226222D502826000E29222A22ED
:10309E002B2225C526F524C525F523C524F5236A3F
:1030AE00195016026100CCF32CF56100D0F32DF50A
:1030BE002C5023262D502422000E2522000E2622CF
:1030CE001A5015026100CCF32CF56100D0F32DF5EA
:1030DE002C5023262D502422000E2522000E2622AF
:1030EE0025C526F524C525F523C524F5236A1950D3
:1030FE0015026100CCF32CF56100D0F32DF52C50A8
:10310E0023262D502422000E2522000E26221B508F
:10311E0016026100CCF32CF56100D0F32DF52C5086
:10312E0028262D502922000E2A22000E2B221A505C
:10313E0017026100CCF32CF56100D0F32DF52C5065
:10314E0028262D502922000E2A22000E2B221B503B
:10315E0017026100CCF32CF56100D0F32DF52C5045
:10316E001D6E2D501E6E1F6A206A1FC520F51EC5CE
:10317E001FF51DC51EF51D6A1D5028261E5029223D
:10318E001F502A2220502B2223C51DF524C51EF5C3
:10319E0025C51FF526C520F5190EDBEF18F0D890C2
:1031AE0020321F321E321D32E82ED6EF18F01D507F
:1031BE0028261E5029221F502A2220502B2225C598
:1031CE0026F524C525F523C524F5236A225027C5E7
:1031DE001DF51E6A1D26000E1E22820E1D242C6E4B
:1031EE00FF0E1E202D6E11EF19F0D89028362936BD
:1031FE002A362B3626AE06EF19F008EF19F009EF36
:10320E0019F02880D89023362436253626362C06FB
:10321E00D8A02D062AAE16EF19F018EF19F0FCEF14
:10322E0018F0000E226E26AE1FEF19F021EF19F0E6
:10323E0045EF19F0FF0E23141D6EFF0E24141E6EA3
:10324E00FF0E25141F6E7F0E2614206E1D501E10AD
:10325E001F102010D8B436EF19F038EF19F03CEFEC
:10326E0019F0010E226E45EF19F028A041EF19F06A
:10327E0043EF19F045EF19F038EF19F02250D8B49A
:10328E004BEF19F04DEF19F071EF19F0010E2826E2
:10329E00000E29222A222B222BA058EF19F05AEFCA
:1032AE0019F071EF19F028C51DF529C51EF52AC5AF
:1032BE001FF52BC520F5203420321F321E321D3251
:1032CE001DC528F51EC529F51FC52AF520C52BF5E8
:1032DE002C4A2D2A2DBE7CEF19F02D5008E12C28FA
:1032EE00D8A07CEF19F07EEF19F088EF19F0000EE0
:1032FE00286E000E296E800E2A6E7F0E2B6EB6EF94
:10330E0019F02DBE95EF19F02D5006E12C04D8B012
:10331E0093EF19F095EF19F0A1EF19F0000E286E4A
:10332E00000E296E000E2A6E000E2B6E000E216E00
:10333E00B6EF19F02CC527F5FF0E2816FF0E29162D
:10334E007F0E2A16000E2B1627A0B0EF19F0B2EF43
:10335E0019F0B3EF19F02A8ED89027302B6E21502A
:10336E002B1228C515F529C516F52AC517F52BC537
:10337E0018F512000650800B136E065006241A6EB6
:10338E0005AECCEF19F0CEEF19F0CFEF19F01A8091
:10339E001A50D8B4D5EF19F0D7EF19F0ECEF19F0A9
:1033AE001A28D8A4DDEF19F0DFEF19F0E7EF19F0C6
:1033BE00000E036E000E046E000E056E000E066EFD
:1033CE00058E000E066EF4EF19F0000E036E000E61
:1033DE00046E000E056E000E066E0A50800B131A58
:1033EE000A500A241B6E09AEFFEF19F001EF1AF016
:1033FE0002EF1AF01B801B50D8B408EF1AF00AEF38
:10340E001AF01FEF1AF01B28D8A410EF1AF012EFC3
:10341E001AF01AEF1AF0000E076E000E086E000E6C
:10342E00096E000E0A6E098E000E0A6E27EF1AF054
:10343E00000E076E000E086E000E096E000E0A6E6C
:10344E000750081009100A10D8A430EF1AF032EF06
:10345E001AF04AEF1AF0000E036E000E046E000E04
:10346E00056E000E066E800E05127F0E06121350AC
:10347E00061203C503F504C504F505C505F506C515
:10348E0006F58DEF1BF01A50D8A450EF1AF052EF3C
:10349E001AF05CEF1AF0000E036E000E046E000EB2
:1034AE00056E000E066E8DEF1BF01B501AC50BF548
:1034BE000C6A0B5E000E0C5A7F0E0B24146E000E5F
:1034CE000C20156E03C50FF504C510F505C511F5D5
:1034DE0006C512F5000E036E000E046E000E056E8C
:1034EE00000E066E000E166E000E176E000E186E93
:1034FE00000E196E000E1B6EBDEF1AF01B50D8B4E5
:10350E008BEF1AF08DEF1AF0A4EF1AF0D8900F3659
:10351E00103611361236D890033604360536063676
:10352E0019AE9CEF1AF09EEF1AF09FEF1AF003807F
:10353E00D890163617361836193607500F5C0850C5
:10354E001058095011580A501258D8A0B1EF1AF05D
:10355E00B3EF1AF0BCEF1AF0198C07500F5E08503B
:10356E00105A0950115A0A50125A1B2A190E1B646E
:10357E00C3EF1AF0C5EF1AF085EF1AF00F501010C6
:10358E0011101210D8B4CEEF1AF0D0EF1AF0E8EFF7
:10359E001AF01680E8EF1AF0D89003360436053686
:1035AE00063619AEDDEF1AF0DFEF1AF0E0EF1AF083
:1035BE000380D89016361736183619361406D8A04A
:1035CE00150605AEEDEF1AF0EFEF1AF0D3EF1AF085
:1035DE00000E1B6E19AEF6EF1AF0F8EF1AF01CEF94
:1035EE001BF0FF0E16140B6EFF0E17140C6EFF0E53
:1035FE0018140D6E7F0E19140E6E0B500C100D104C
:10360E000E10D8B40DEF1BF00FEF1BF013EF1BF0E5
:10361E00010E1B6E1CEF1BF003A018EF1BF01AEF30
:10362E001BF01CEF1BF00FEF1BF01B50D8B422EF5A
:10363E001BF024EF1BF048EF1BF0010E0326000ECB
:10364E0004220522062206A02FEF1BF031EF1BF0FD
:10365E0048EF1BF003C50BF504C50CF505C50DF5BC
:10366E0006C50EF50E340E320D320C320B320BC572
:10367E0003F50CC504F50DC505F50EC506F5144A82
:10368E00152A15BE53EF1BF0155008E11428D8A0CB
:10369E0053EF1BF055EF1BF060EF1BF0000E156E95
:1036AE001468000E036E000E046E000E056E000E02
:1036BE00066E15BE6DEF1BF0155006E11404D8B062
:1036CE006BEF1BF06DEF1BF07BEF1BF0000E156E1A
:1036DE00000E146E000E036E000E046E000E056ECC
:1036EE00000E066E000E136E14C51AF51AA082EFA8
:1036FE001BF084EF1BF087EF1BF0058E88EF1BF09D
:10370E00059ED8901A30066E3EEF1AF01200C6C50E
:10371E002CF5C7C52DF5C8C52EF5C9C52FF51CC589
:10372E002CF51DC52DF51EC52EF51FC52FF5810EC9
:10373E00206EFF0E216E2CC522F52DC523F52EC54C
:10374E0024F52FC525F5180EB2EF1BF0D8902532B3
:10375E00243223322232E82EADEF1BF022502024E9
:10376E002A6E000E21202B6E2BBEC7EF1BF02B50A6
:10377E0009E1170E2A5CD8A0C7EF1BF0C9EF1BF0AA
:10378E00D3EF1BF01CC51CF51DC51DF51EC51EF582
:10379E001FC51FF596EF1CF02BBED8EF1BF0DAEF0E
:1037AE001BF04AEF1CF02AC520F5FF0E216EFF0E0E
:1037BE00226E7F0E236E000E246E2066E9EF1BF044
:1037CE00F1EF1BF024342432233222322132202E08
:1037DE00E4EF1BF021C526F522C527F523C528F5F4
:1037EE0024C529F526502C14206E27502D14216E39
:1037FE0028502E14226E29502F14236E2050211083
:10380E0022102310D8A40EEF1CF010EF1CF012EFB4
:10381E001CF0C9EF1BF02CC520F52DC521F52EC5CA
:10382E0022F52FC523F5200E22EF1CF0D89023325F
:10383E00223221322032E82E1DEF1CF020502110B2
:10384E0022102310D8B42EEF1CF030EF1CF038EFFE
:10385E001CF026502C2627502D2228502E2229507F
:10386E002F22261C206E271C216E281C226E291C3E
:10387E00236E20502C1621502D1622502E1623501A
:10388E002F168EEF1CF02CC520F52DC521F52EC55B
:10389E0022F52FC523F5200E5AEF1CF0D8902332B7
:1038AE00223221322032E82E55EF1CF0205021100A
:1038BE0022102310D8A466EF1CF068EF1CF072EFF4
:1038CE001CF0000E2C6E000E2D6E000E2E6E000ED5
:1038DE002F6E8EEF1CF0D8902C34206E2D34216E6E
:1038EE002E34226E2F34236E2050211022102310DE
:1038FE00D8B484EF1CF086EF1CF08EEF1CF0000E97
:10390E002C6E000E2D6E800E2E6EBF0E2F6E2CC5E1
:10391E001CF52DC51DF52EC51EF52FC51FF5120064
:10392E000F6E0F50D8B49EEF1CF0A0EF1CF0C2EF3C
:10393E001CF00ABEA7EF1CF0A5EF1CF0C2EF1CF0A6
:10394E0007C50BF508C50CF509C50DF50AC50EF52D
:10395E000B1E0C1E0D1E0E1E0B2A000E0C220D220F
:10396E000E220BC511F50CC512F50DC513F50EC5BE
:10397E0014F5CAEF1CF007C511F508C512F509C5F7
:10398E0013F50AC514F50750081009100A10D8A42B
:10399E00D3EF1CF0D5EF1CF0DFEF1CF0000E076E1E
:1039AE00000E086E000E096E000E0A6E70EF1DF00E
:1039BE00960E106EE9EF1CF0102AD89014321332C6
:1039CE0012321132000E11140B6E000E12140C6E08
:1039DE00000E13140D6EFE0E14140E6E0B500C1002
:1039EE000D100E10D8A4FEEF1CF000EF1DF0E3EF4B
:1039FE001CF00EEF1DF0102A010E1126000E1222E1
:103A0E0013221422D8901432133212321132000EB5
:103A1E0011140B6E000E12140C6E000E13140D6E9C
:103A2E00FF0E14140E6E0B500C100D100E10D8A4A9
:103A3E0023EF1DF025EF1DF002EF1DF02DEF1DF011
:103A4E001006D890113612361336143613BE32EFD6
:103A5E001DF034EF1DF03CEF1DF0020E10603AEF3A
:103A6E001DF03CEF1DF027EF1DF010B041EF1DF0E3
:103A7E0043EF1DF044EF1DF0139ED890103210C589
:103A8E000BF50C6A0D6A0E6A0BC50EF50D6A0C6A03
:103A9E000B6A0B5011120C5012120D5013120E50C5
:103AAE0014120F50D8B45EEF1DF060EF1DF068EFEA
:103ABE001DF00ABE67EF1DF065EF1DF068EF1DF0FB
:103ACE00148E11C507F512C508F513C509F514C5F1
:103ADE000AF51200000E186E000E176E000E116E13
:103AEE00000E106E7DEF1DF00A4A0B2A010E166EA7
:103AFE00610028F4F6F461002CF4F7F4F86A08007B
:103B0E00F550200AD8B48EEF1DF090EF1DF0B0EFF7
:103B1E001DF0F70E0C6EFF0E0D6E610028F4F6F41C
:103B2E0061002CF4F7F4F86A0800F5500E6E0F6A77
:103B3E000C500E260D500F220F5009E1050E0E5C93
:103B4E00D8A0ACEF1DF0AEEF1DF0B0EF1DF0000EE3
:103B5E00166E16C512F5136A12501310D8A4BAEFCA
:103B6E001DF0BCEF1DF07BEF1DF0C6EF1DF0000E3B
:103B7E00116E010E106E0A4A0B2A01EF1EF0610043
:103B8E0028F4F6F461002CF4F7F4F86A0800F55006
:103B9E000C6E0D6A0D50000AD8B4D8EF1DF001EF6F
:103BAE001EF00C502B0AD8B4C2EF1DF0060AD8B482
:103BBE00BEEF1DF001EF1EF017C503F518C504F595
:103BCE00000E066E0A0E056E21EC27F0610028F439
:103BDE00F6F461002CF4F7F4F86A0800F550035E71
:103BEE00000E045A300E0324176E000E0420186EB9
:103BFE00C2EF1DF0D00E0C6EFF0E0D6E610028F49C
:103C0E00F6F461002CF4F7F4F86A0800F5500E6E25
:103C1E000F6A0C500E260D500F220F500AE10A0E9D
:103C2E000E5CD8A01DEF1EF020EF1EF0010E21EF4E
:103C3E001EF0000E146E156A14501510D8A42AEF3B
:103C4E001EF02CEF1EF0E3EF1DF010501110D8A453
:103C5E0033EF1EF035EF1EF043EF1EF017C50CF5D7
:103C6E0018C50DF50C1E0D1E0C4A0D2A0CC50AF5B5
:103C7E000DC50BF547EF1EF017C50AF518C50BF568
:103C8E00120021EEF3F111EE13F1060EDBC4E3F494
:103C9E00E806FCE210C51EF511C51FF51E501F10DB
:103CAE00D8A45CEF1EF05EEF1EF062EF1EF0130E56
:103CBE001E6E050E1F6E1EC503F51FC504F560ECC6
:103CCE0025F003C522F504C523F5D2C520F5D3C5CD
:103CDE0021F521BE75EF1EF077EF1EF08CEF1EF072
:103CEE002250205C2150800A126E2350800A1258F6
:103CFE00D8A084EF1EF086EF1EF088EF1EF08CEF3A
:103D0E001EF020C522F521C523F522C520F523C5B9
:103D1E0021F5D0C51CF5D1C51DF50501D4B19AEF1D
:103D2E001EF09CEF1EF0B9EF1EF0AAEF1EF0000E73
:103D3E00066E200E056E0EC507F50FC508F596EC3E
:103D4E0023F0224A232A1C50225C2350800A126E32
:103D5E001D50800A1258D8A0B7EF1EF0B9EF1EF012
:103D6E009EEF1EF0000E1B6E000E1A6EE0EF1EF0A0
:103D7E00610078F4F6F461007CF4F7F4000EF86E4E
:103D8E00150EF76403D00800F55005D0F6C4E9F41B
:103D9E00F7C4EAF4EF50126E1250056E066A0EC5A5
:103DAE0007F50FC508F596EC23F01E4A1F2A1A4A8E
:103DBE001B2A20501A5C1B50800A126E2150800A5A
:103DCE001258D8A0EDEF1EF0EFEF1EF0BFEF1EF071
:103DDE000501D4A1F5EF1EF0F7EF1EF014EF1FF062
:103DEE0005EF1FF0000E066E200E056E0EC507F5D0
:103DFE000FC508F596EC23F0224A232A1C50225CAC
:103E0E002350800A126E1D50800A1258D8A012EF4D
:103E1E001FF014EF1FF0F9EF1EF022C50EF523C5AB
:103E2E000FF5120036EC27F0120E0301EC6F070EA1
:103E3E000001A413A6513F0B8009A66F000E0501C9
:103E4E00F26F000EF16F0A0E036E500E046EFCEC54
:103E5E0027F0280E036E490E046EE3EC27F0D68E83
:103E6E00330E0601626F330E636F530E646F3A0E9C
:103E7E00656F0501F151D8B447EF1FF049EF1FF000
:103E8E0061EF1FF0000EF16F5B0EA86F160EA96F9B
:103E9E001BEC26F003C5AAF504C5ABF54BEC27F0D9
:103EAE00000E046E000E036E01EC28F00DEC28F0EF
:103EBE00BDEF1FF0F251D8B467EF1FF069EF1FF09E
:103ECE00BDEF1FF0000EF26FA7EC27F003C507F54C
:103EDE0004C508F5096A0A6A000E97EC1CF007C5BE
:103EEE0015F508C516F509C517F50AC518F562C604
:103EFE0019F563C61AF564C61BF565C61CF59AEC72
:103F0E0017F015C566F616C567F617C568F618C517
:103F1E0069F6C0B295EF1FF098EF1FF0010E99EF02
:103F2E001FF0000EFF0A5A6E5A46C0505A18FD0B6B
:103F3E005A18C06E480E0501A86F160EA96F1BEC1D
:103F4E0026F003C5AAF504C5ABF54BEC27F0330EEE
:103F5E000501A86F160EA96F66C6AAF567C6ABF562
:103F6E0068C6ACF569C6ADF54BEC27F09CEC27F0B6
:103F7E000009D8B4C5EF1FF0C7EF1FF0BDEF1FF05B
:103F8E00030000F040EF1FF00DEF00F00534063493
:103F9E000C6E0C50D8A4D6EF1FF0D8EF1FF0E2EF46
:103FAE001FF0000E036E000E046E000E056E000E66
:103FBE00066E4FEF20F003C507F504C508F505C5DD
:103FCE0009F506C50AF5200EF2EF1FF0D8900A3259
:103FDE00093208320732E82EEDEF1FF007500B6E54
:103FEE00058EFF0E0316FF0E0416FF0E0516000EAD
:103FFE000616960E0C5E0CBE09EF20F007EF20F0B1
:10400E001FEF20F00C50800A970FD8B011EF20F060
:10401E0013EF20F015EF20F0D8EF1FF0D8900632F6
:10402E000532043203320C3E15EF20F037EF20F04C
:10403E001F0E0C6425EF20F027EF20F02FEF20F05D
:10404E00D8EF1FF0D89003360436053606360C0628
:10405E000C50D8A435EF20F037EF20F029EF20F0E8
:10406E000B50D8B43DEF20F03FEF20F047EF20F09B
:10407E00061E051E041E036C000E042205220622D7
:10408E0003C503F504C504F505C505F506C506F516
:10409E001200000E2E14366E000E2F14376E800E88
:1040AE003014386E7F0E3114396E3650371038108A
:1040BE003910D8A465EF20F067EF20F06FEF20F0F5
:1040CE00000E2E6E000E2F6E000E306E000E316E34
:1040DE00000E3214366E000E3314376E800E34140A
:1040EE00386E7F0E3514396E365037103810391041
:1040FE00D8A484EF20F086EF20F08EEF20F0000E93
:10410E00326E000E336E000E346E000E356E31AE12
:10411E0093EF20F095EF20F09EEF20F02E6C2F1EE7
:10412E00D8B02F2A301ED8B0302A800E315635AE78
:10413E00A3EF20F0A5EF20F0AEEF20F0326C331E8F
:10414E00D8B0332A341ED8B0342A800E3556000E1D
:10415E002E1A000E2F1A000E301A800E311A000E73
:10416E00321A000E331A000E341A800E351A3250DF
:10417E002E5C33502F583450305835503158D8B0FB
:10418E00CBEF20F0CDEF20F0D0EF20F0D890D1EF94
:10419E0020F0D8801200CAC50DF5CBC50EF5CCC5E2
:1041AE000FF5CDC510F503C50DF504C50EF505C506
:1041BE000FF506C510F50DC507F50EC508F50FC5AB
:1041CE0009F510C50AF5180EF2EF20F0D8900A3254
:1041DE00093208320732E82EEDEF20F007500B6E51
:1041EE000C6A0B500C10D8A4FFEF20F001EF21F059
:1041FE0021EF21F0D8900D34076E0E34086E0F3477
:10420E00096E10340A6E0750081009100A10D8A44F
:10421E0013EF21F015EF21F01BEF21F0000E046ECD
:10422E00020E036E50EF21F0000E046E030E036EAD
:10423E0050EF21F00B280C10D8A428EF21F02AEF14
:10424E0021F04CEF21F00DC507F50EC508F50FC591
:10425E0009F510C50AF5090ED89007360836093645
:10426E000A36E82E33EF21F00750081009100A1015
:10427E00D8B444EF21F047EF21F0010E48EF21F0C2
:10428E00000E036E046A50EF21F0000E046E040E51
:10429E00036E120003C50AF504C50BF505C50CF532
:1042AE0006C50DF50706D8A00806072806E108285A
:1042BE00D8A464EF21F066EF21F073EF21F0000E29
:1042CE00046E000E036ECAEF21F00A4A0B2A0C4A46
:1042DE000D2A0706D8A00806610028F4D9F461005B
:1042EE002CF4DAF4DF50D8B47FEF21F081EF21F017
:1042FE00B4EF21F0610030F4F6F4610034F4F7F419
:10430E00F86A0800F5500009D8B490EF21F092EF4A
:10431E0021F0B4EF21F007500810D8B499EF21F036
:10432E009BEF21F0B4EF21F0610028F4D9F4610085
:10433E002CF4DAF4DF50096E610030F4F6F461000B
:10434E0034F4F7F4F86A0800F5500918D8B4B2EF4F
:10435E0021F0B4EF21F06CEF21F0610028F4D9F4D4
:10436E0061002CF4DAF4DF50096E610030F4F6F4DB
:10437E00610034F4F7F4F86A0800F550095C036E36
:10438E00046AD8A0040612000501D4A1D1EF21F0D1
:10439E00D3EF21F0DDEF21F017C50EF518C50FF59F
:1043AE0015C510F516C511F5F9EC25F01ABEE2EF9C
:1043BE0021F0E4EF21F0EAEF21F019C51EF51AC540
:1043CE001FF5EEEF21F0000E1F6E000E1E6E000E9A
:1043DE001D6E000E1C6E00EF22F0000E066E200EFB
:1043EE00056E15C507F516C508F596EC23F01C4AA3
:1043FE001D2A1E501C5C1D50800A1B6E1F50800A09
:10440E001B58D8A00DEF22F00FEF22F0F4EF21F0A1
:10441E000501D4B115EF22F017EF22F021EF22F0B3
:10442E0017C50EF518C50FF515C510F516C511F5FE
:10443E00F9EC25F017C503F518C504F560EC25F069
:10444E001E500324156E1F500420166E1200000E0F
:10445E00086E06BE37EF22F035EF22F03DEF22F068
:10446E00056C061ED8B0062A010E086E04BE44EF77
:10447E0022F042EF22F04AEF22F0036C041ED8B075
:10448E00042A010E081A000E0A6E000E096E05505F
:10449E000610D8B455EF22F057EF22F07FEF22F03E
:1044AE00010E076E5FEF22F0D89005360636072A0A
:1044BE0006AE64EF22F066EF22F05BEF22F0D890AA
:1044CE0009360A360550035C06500458D8A072EF20
:1044DE0022F074EF22F079EF22F00550035E0650C1
:1044EE00045A0980D89006320532072E66EF22F064
:1044FE000850D8B485EF22F087EF22F08BEF22F030
:10450E00096C0A1ED8B00A2A09C503F50AC504F5B6
:10451E001200AC90000E036E000E046ECAEC27F073
:10452E00AC92000E036E000E046EC5EC27F0AC9438
:10453E00000E036E000E046ED4EC27F0AC96000E47
:10454E00036E000E046EC0EC27F0000E0201A16F88
:10455E00000EA26F000EA36F000EA46F000EA56FCB
:10456E00000EA66F000EA76F000EA86F000EA96FAB
:10457E00000EAA6FA00EAB6F800EAC6F000EAD6F6B
:10458E00190EAE6F000EAF6F000EB06F000EB16F52
:10459E00000EB26F000EB36F000E036E000E046EAF
:1045AE00D9EC27F0000E036E000E046ECFEC27F050
:1045BE00000E036E000E046EDEEC27F0000E0501F9
:1045CE00D66F1200000E086E04BEF2EF22F0F0EF6E
:1045DE0022F0F8EF22F0036C041ED8B0042A010E6C
:1045EE00086E06BEFFEF22F0FDEF22F003EF23F080
:1045FE00056C061ED8B0062A05500610D8B40AEF70
:10460E0023F00CEF23F030EF23F0010E076E14EFC2
:10461E0023F0D89005360636072A06AE19EF23F09A
:10462E001BEF23F010EF23F00550035C06500458E7
:10463E00D8A024EF23F026EF23F02AEF23F0055025
:10464E00035E0650045AD89006320532072E1BEF31
:10465E0023F00850D8B436EF23F038EF23F03CEFB8
:10466E0023F0036C041ED8B0042A03C503F504C559
:10467E0004F51200000E03140B6E000E04140C6EE3
:10468E00800E05140D6E7F0E06140E6E0B500C1060
:10469E000D100E10D8A456EF23F058EF23F060EF54
:1046AE0023F0000E036E000E046E000E056E000E5B
:1046BE00066E000E07140B6E000E08140C6E800EA4
:1046CE0009140D6E7F0E0A140E6E0B500C100D1089
:1046DE000E10D8A475EF23F077EF23F07FEF23F0C1
:1046EE00000E076E000E086E000E096E000E0A6EAA
:1046FE00075003180FE1085004180CE10950051873
:10470E0009E10A500618D8B48FEF23F091EF23F089
:10471E0094EF23F0D89095EF23F0D8801200075035
:10472E000810D8B49DEF23F09FEF23F0A8EF23F0ED
:10473E0007500810D8A4A6EF23F0A8EF23F0ADEF92
:10474E0023F00550BBEC27F0E0EF23F020EE04F051
:10475E000750D9260850DA22DE50DE10D8B4BAEF50
:10476E0023F0BCEF23F0D7EF23F020EE04F0075038
:10477E00D9260850DA2210EE02F00750E126085032
:10478E00E222DE50E65CE650800A0D6EDE50800AB4
:10479E000D58D8B0D5EF23F0D7EF23F0E0EF23F08C
:1047AE0020EE02F00750D9260850DA22DE2A000E3B
:1047BE00DD221200000EBE6E000EBF6E000EC06E29
:1047CE003F0EC66E700EC76EFD0EC86E370E04011C
:1047DE00006F500E086FFC0E106F000E016F000E72
:1047EE00096F010E116F000E026F000E0A6F000EA0
:1047FE00126F370E036FF00E0B6F13693F0E046FBF
:10480E00F00E0C6F1469100E0201616F0D0E726FB7
:10481E00100E106F000E0401056F000E066F000ED5
:10482E00076F000E0D6F000E0E6F000E0F6F000E55
:10483E00156F000E166F000E176F1200640EF66ED7
:10484E004F0EF76E000EF86E01EE50F210EE12F0F3
:10485E000900F5C4EEF4E550E150FAE1120EF66EE1
:10486E00500EF76E000EF86E01EEF3F110EE07F03B
:10487E000900F5C4EEF4E550E150FAE101EE00F264
:10488E00500EEE6AE806FDE101EEAEF12D0EEE6A77
:10489E00E806FDE15C6A5B6A0401080E5D6F000EBE
:1048AE005E6F000E5F6F000119EF1FF0000E030127
:1048BE00D96F000EDA6F000EDB6F000EDC6F000E8C
:1048CE00DF6F000EE06F000EE56F000EE76F000E5B
:1048DE00EC6F060EEE6F000EEF6F000EF06F000E17
:1048EE00F16F000EF26F000EF46F100EF56F000EEA
:1048FE00F66F000EF76F000EF86F020EF96F000ED6
:10490E00FA6F940EF36FB4942A0E036E500E046E6B
:10491E00FCEC27F0A984B5901200010E0501F16F91
:10492E0010EC28F00001A3A79FEF24F0A1EF24F0D4
:10493E00A9EF24F0A487A5518F0B1009A56FA3979B
:10494E00C8EF24F0A439070B070AD8A4B1EF24F05E
:10495E00B3EF24F0BBEF24F08F0EA417A4978F0EA5
:10496E00A517A387C8EF24F0010E016EA439070B1B
:10497E00026E01500226023AA45102188F0B021841
:10498E00A46F120052C556F553C557F5000E05011A
:10499E00CF6F000ECE6FE7EF24F050C546F551C530
:1049AE0047F5560E486E050E496E54C54AF555C567
:1049BE004BF5A4EC11F046500501CE274750CF23FE
:1049CE00610058F5F6F461005CF5F7F4F86A08003A
:1049DE00F5500009D8A4F6EF24F0F8EF24F0D4EF48
:1049EE0024F0CEC550F5CFC551F5120005C509F519
:1049FE0006C50AF503C50BF504C50CF50950076E7F
:104A0E000A50086E094A0A2A61001CF4F6F4610085
:104A1E0020F4F7F4000EF86E61002CF4D9F4610066
:104A2E0030F4DAF40B4A0C2A150EF76403D00800A2
:104A3E00F55005D0F6C4E9F4F7C4EAF4EF50DF6E92
:104A4E00DF50D8A42DEF25F02FEF25F005EF25F040
:104A5E001200BF0E0B6EFF0E0C6E09C50DF50AC5CA
:104A6E000EF50B500D260C500E220E500AE11A0EAA
:104A7E000D5CD8A045EF25F048EF25F0010E49EF6B
:104A8E0025F0000E0F6E106A0F501010D8B452EFB2
:104A9E0025F054EF25F05BEF25F0200E0910096E7E
:104AAE000A500A6E5FEF25F009C509F50AC50AF529
:104ABE00120003C505F504C506F568EF25F0034A97
:104ACE00042A61000CF4F6F4610010F4F7F4000E01
:104ADE00F86E150EF76403D00800F55005D0F6C435
:104AEE00E9F4F7C4EAF4EF500009D8A481EF25F0F9
:104AFE0083EF25F066EF25F00550035C036E06503C
:104B0E000458046E1200010E096E200E03180410D4
:104B1E00D8B494EF25F096EF25F0AFEF25F0F70E11
:104B2E00056EFF0E066E03C507F504C508F50550A4
:104B3E00072606500822085009E1050E075CD8A08A
:104B4E00ABEF25F0ADEF25F0AFEF25F0000E096EBF
:104B5E0009C503F5046A1200000E321A000E331A4C
:104B6E00000E341A800E351A2EC503F52FC504F526
:104B7E0030C505F531C506F532C507F533C508F55F
:104B8E0034C509F535C50AF53AEC15F003C52EF511
:104B9E0004C52FF505C530F506C531F51200A9A4DB
:104BAE00DBEF25F0DDEF25F0E8EF25F0B4A4E2EF22
:104BBE0025F0E4EF25F0E8EF25F0F3EC26F0F8EF22
:104BCE0025F0ABA6EDEF25F0EFEF25F0F8EF25F091
:104BDE00B6A6F4EF25F0F6EF25F0F8EF25F0DBECB6
:104BEE0026F01100000E146E000E136E0AEF26F062
:104BFE0012C505F5066A10C507F511C508F596EC40
:104C0E0023F0134A142A13500E24D96E14500F2079
:104C1E00DA6EDF50126E1250D8A418EF26F01AEF8B
:104C2E0026F0FFEF25F01200000E066E0001A3B76E
:104C3E0023EF26F025EF26F02AEF26F0A439070BF6
:104C4E00056E0528066E0650020D500EF324D96E21
:104C5E00060EF420DA6E610078F303F5610074F34A
:104C6E0004F51200BF0E056EFF0E066E03C507F5A6
:104C7E0004C508F5055007260650082208500AE11B
:104C8E001A0E075CD8A04EEF26F051EF26F0010E5B
:104C9E0052EF26F0000E036E046A12000350041049
:104CAE0005100610D8B45EEF26F060EF26F068EF20
:104CBE0026F0000E031A000E041A000E051A800EBE
:104CCE00061A03C503F504C504F505C505F506C5A5
:104CDE0006F51200D00E056EFF0E066E03C507F523
:104CEE0004C508F5055007260650082208500AE1AB
:104CFE000A0E075CD8A086EF26F089EF26F0010E8B
:104D0E008AEF26F0000E036E046A1200D69AB49053
:104D1E00D680000E036E000E046EF7EC27F0B990ED
:104D2E00D682000E036E000E046EF2EC27F0BD90DC
:104D3E00D684000E036E000E046EEDEC27F012000A
:104D4E00010E0001D56F020ED76F220ED86F060E20
:104D5E00D96F000EDA6F000EDB6F080EDC6F110ECE
:104D6E00DD6F000EDE6F000EDF6F000ED46F840E4F
:104D7E00D66F1200000E0001D56F000ED76F060E13
:104D8E00D86F000ED96F000EDA6F000EDB6F020EB9
:104D9E00DC6F080EDD6F000EDE6F000EDF6F000E93
:104DAE00D46F840ED66F1200B6960501E151E21152
:104DBE00D8B4E4EF26F0E6EF26F0F2EF26F002D8B4
:104DCE00F2EF26F00500FA6EE151FD6EE251FE6E35
:104DDE00FF6AFA5012001200B4940501EF51F0115F
:104DEE00D8B4FCEF26F0FEEF26F00AEF27F002D83B
:104DFE000AEF27F00500FA6EEF51FD6EF051FE6ED0
:104E0E00FF6AFA5012001200040E0301206F110EF9
:104E1E001F6F0F0E216F1D69000E1C6F260E036E85
:104E2E00500E046EE3EC27F0B696AB86800E0301AF
:104E3E001E6F1200035005026100CCF307F56100EE
:104E4E00D0F308F503500602F3500826045005026D
:104E5E00F350082607C503F508C504F5120070ECDB
:104E6E0027F0E1EC23F05DEC24F0C1EC26F0A7EC8A
:104E7E0026F082EC27F05EEC27F00BEC27F090EC9E
:104E8E0022F08DEC26F01200AA0E586E050E596E09
:104E9E00000E506E000E516EA8C552F5A9C553F501
:104EAE00580E546E050E556EC9EC24F01200780E95
:104EBE000301196F000E186F980E1B6F280E036EEC
:104ECE00500E046EE8EC27F0B69E800E03011A6FAA
:104EDE001200620E0001AD6F700EAE6F000EAF6F5E
:104EEE00000EB36F020EB16F000EB26F000EB06FF8
:104EFE00000EAC6F1200000E0001A46F020EA56F23
:104F0E00020EA66F000EA76F000EA96FA80EA36F5C
:104F1E001200036EB7A296EF27F098EF27F091EFED
:104F2E0027F061000CF4A3F212000201B2BFA2EF4F
:104F3E0027F0A5EF27F0010EA6EF27F0000E1200C6
:104F4E000301EB51066E056AEA510524036E000E4D
:104F5E000620046E12009616761671166C169816AA
:104F6E007B1674169A169316046E045090EC27F066
:104F7E00120003C56AF604C56BF6120003C5EBF505
:104F8E0004C5ECF5120003C5EDF504C5EEF51200EF
:104F9E0003C5DDF504C5DEF5120003C56CF604C5C8
:104FAE006DF6120003C5DFF504C5E0F5120003C56A
:104FBE00DBF504C5DCF5120003C5E1F504C5E2F529
:104FCE00120003C5E3F504C5E4F5120003C5E5F5CB
:104FDE0004C5E6F5120003C5E7F504C5E8F51200B1
:104FEE0003C5E9F504C5EAF5120003C5EFF504C5DE
:104FFE00F0F5120061000CF418F31200010E050119
:0B500E00F26F1200286E756C6C290018
:10501A0003011A8F120003011A9F120012001200D4
:02502A00120072
:020000040020DA
:10000000FF0FFF0FFF0FFF0FFF0FFF0FFF0FFF0F80
:10001000FF0FFF0FFF0FFF0FFF0FFF0FFF0FFF0F70
:020000040030CA
:0A000000ECFFF7FF9FFFFFFFFFFF7B
:00000001FF
